{
	"contracts/NftDeployer.sol": {
		"NftStaker": {
			"abi": [
				{
					"inputs": [],
					"stateMutability": "nonpayable",
					"type": "constructor"
				},
				{
					"anonymous": false,
					"inputs": [
						{
							"indexed": true,
							"internalType": "address",
							"name": "previousOwner",
							"type": "address"
						},
						{
							"indexed": true,
							"internalType": "address",
							"name": "newOwner",
							"type": "address"
						}
					],
					"name": "OwnershipTransferred",
					"type": "event"
				},
				{
					"inputs": [
						{
							"internalType": "address",
							"name": "operator",
							"type": "address"
						},
						{
							"internalType": "address",
							"name": "from",
							"type": "address"
						},
						{
							"internalType": "uint256",
							"name": "id",
							"type": "uint256"
						},
						{
							"internalType": "uint256",
							"name": "value",
							"type": "uint256"
						},
						{
							"internalType": "bytes",
							"name": "data",
							"type": "bytes"
						}
					],
					"name": "onERC1155Received",
					"outputs": [
						{
							"internalType": "bytes4",
							"name": "",
							"type": "bytes4"
						}
					],
					"stateMutability": "nonpayable",
					"type": "function"
				},
				{
					"inputs": [],
					"name": "owner",
					"outputs": [
						{
							"internalType": "address",
							"name": "",
							"type": "address"
						}
					],
					"stateMutability": "view",
					"type": "function"
				},
				{
					"inputs": [],
					"name": "parentNFT",
					"outputs": [
						{
							"internalType": "contract IERC1155",
							"name": "",
							"type": "address"
						}
					],
					"stateMutability": "view",
					"type": "function"
				},
				{
					"inputs": [],
					"name": "renounceOwnership",
					"outputs": [],
					"stateMutability": "nonpayable",
					"type": "function"
				},
				{
					"inputs": [
						{
							"internalType": "address",
							"name": "_generator",
							"type": "address"
						}
					],
					"name": "setGenerator",
					"outputs": [],
					"stateMutability": "nonpayable",
					"type": "function"
				},
				{
					"inputs": [
						{
							"internalType": "uint256",
							"name": "_tokenId",
							"type": "uint256"
						},
						{
							"internalType": "uint256",
							"name": "_amount",
							"type": "uint256"
						}
					],
					"name": "stake",
					"outputs": [],
					"stateMutability": "nonpayable",
					"type": "function"
				},
				{
					"inputs": [
						{
							"internalType": "address",
							"name": "",
							"type": "address"
						}
					],
					"name": "stakes",
					"outputs": [
						{
							"internalType": "uint256",
							"name": "tokenId",
							"type": "uint256"
						},
						{
							"internalType": "uint256",
							"name": "amount",
							"type": "uint256"
						},
						{
							"internalType": "uint256",
							"name": "timestamp",
							"type": "uint256"
						}
					],
					"stateMutability": "view",
					"type": "function"
				},
				{
					"inputs": [
						{
							"internalType": "address",
							"name": "",
							"type": "address"
						}
					],
					"name": "stakingTime",
					"outputs": [
						{
							"internalType": "uint256",
							"name": "",
							"type": "uint256"
						}
					],
					"stateMutability": "view",
					"type": "function"
				},
				{
					"inputs": [
						{
							"internalType": "address",
							"name": "newOwner",
							"type": "address"
						}
					],
					"name": "transferOwnership",
					"outputs": [],
					"stateMutability": "nonpayable",
					"type": "function"
				},
				{
					"inputs": [],
					"name": "unstake",
					"outputs": [],
					"stateMutability": "nonpayable",
					"type": "function"
				}
			],
			"devdoc": {
				"kind": "dev",
				"methods": {
					"owner()": {
						"details": "Returns the address of the current owner."
					},
					"renounceOwnership()": {
						"details": "Leaves the contract without owner. It will not be possible to call `onlyOwner` functions anymore. Can only be called by the current owner. NOTE: Renouncing ownership will leave the contract without an owner, thereby removing any functionality that is only available to the owner."
					},
					"transferOwnership(address)": {
						"details": "Transfers ownership of the contract to a new account (`newOwner`). Can only be called by the current owner."
					}
				},
				"version": 1
			},
			"evm": {
				"assembly": "    /* \"contracts/NftDeployer.sol\":344:1951  contract NftStaker is Ownable {... */\n  mstore(0x40, 0x80)\n    /* \"contracts/NftDeployer.sol\":553:649  constructor(){... */\n  callvalue\n  dup1\n  iszero\n  tag_1\n  jumpi\n  0x00\n  dup1\n  revert\ntag_1:\n  pop\n    /* \"@openzeppelin/contracts/access/Ownable.sol\":936:968  _transferOwnership(_msgSender()) */\n  tag_5\n    /* \"@openzeppelin/contracts/access/Ownable.sol\":955:967  _msgSender() */\n  tag_6\n    /* \"@openzeppelin/contracts/access/Ownable.sol\":955:965  _msgSender */\n  shl(0x20, tag_7)\n    /* \"@openzeppelin/contracts/access/Ownable.sol\":955:967  _msgSender() */\n  0x20\n  shr\n  jump\t// in\ntag_6:\n    /* \"@openzeppelin/contracts/access/Ownable.sol\":936:954  _transferOwnership */\n  shl(0x20, tag_8)\n    /* \"@openzeppelin/contracts/access/Ownable.sol\":936:968  _transferOwnership(_msgSender()) */\n  0x20\n  shr\n  jump\t// in\ntag_5:\n    /* \"contracts/NftDeployer.sol\":598:640  0xd8b934580fcE35a11B58C6D73aDeE468a2833fa8 */\n  0xd8b934580fce35a11b58c6d73adee468a2833fa8\n    /* \"contracts/NftDeployer.sol\":577:586  parentNFT */\n  0x01\n  0x00\n    /* \"contracts/NftDeployer.sol\":577:641  parentNFT = IERC1155(0xd8b934580fcE35a11B58C6D73aDeE468a2833fa8) */\n  0x0100\n  exp\n  dup2\n  sload\n  dup2\n  0xffffffffffffffffffffffffffffffffffffffff\n  mul\n  not\n  and\n  swap1\n  dup4\n  0xffffffffffffffffffffffffffffffffffffffff\n  and\n  mul\n  or\n  swap1\n  sstore\n  pop\n    /* \"contracts/NftDeployer.sol\":344:1951  contract NftStaker is Ownable {... */\n  jump(tag_10)\n    /* \"@openzeppelin/contracts/utils/Context.sol\":640:736  function _msgSender() internal view virtual returns (address) {... */\ntag_7:\n    /* \"@openzeppelin/contracts/utils/Context.sol\":693:700  address */\n  0x00\n    /* \"@openzeppelin/contracts/utils/Context.sol\":719:729  msg.sender */\n  caller\n    /* \"@openzeppelin/contracts/utils/Context.sol\":712:729  return msg.sender */\n  swap1\n  pop\n    /* \"@openzeppelin/contracts/utils/Context.sol\":640:736  function _msgSender() internal view virtual returns (address) {... */\n  swap1\n  jump\t// out\n    /* \"@openzeppelin/contracts/access/Ownable.sol\":2433:2620  function _transferOwnership(address newOwner) internal virtual {... */\ntag_8:\n    /* \"@openzeppelin/contracts/access/Ownable.sol\":2506:2522  address oldOwner */\n  0x00\n    /* \"@openzeppelin/contracts/access/Ownable.sol\":2525:2531  _owner */\n  dup1\n  0x00\n  swap1\n  sload\n  swap1\n  0x0100\n  exp\n  swap1\n  div\n  0xffffffffffffffffffffffffffffffffffffffff\n  and\n    /* \"@openzeppelin/contracts/access/Ownable.sol\":2506:2531  address oldOwner = _owner */\n  swap1\n  pop\n    /* \"@openzeppelin/contracts/access/Ownable.sol\":2550:2558  newOwner */\n  dup2\n    /* \"@openzeppelin/contracts/access/Ownable.sol\":2541:2547  _owner */\n  0x00\n  dup1\n    /* \"@openzeppelin/contracts/access/Ownable.sol\":2541:2558  _owner = newOwner */\n  0x0100\n  exp\n  dup2\n  sload\n  dup2\n  0xffffffffffffffffffffffffffffffffffffffff\n  mul\n  not\n  and\n  swap1\n  dup4\n  0xffffffffffffffffffffffffffffffffffffffff\n  and\n  mul\n  or\n  swap1\n  sstore\n  pop\n    /* \"@openzeppelin/contracts/access/Ownable.sol\":2604:2612  newOwner */\n  dup2\n    /* \"@openzeppelin/contracts/access/Ownable.sol\":2573:2613  OwnershipTransferred(oldOwner, newOwner) */\n  0xffffffffffffffffffffffffffffffffffffffff\n  and\n    /* \"@openzeppelin/contracts/access/Ownable.sol\":2594:2602  oldOwner */\n  dup2\n    /* \"@openzeppelin/contracts/access/Ownable.sol\":2573:2613  OwnershipTransferred(oldOwner, newOwner) */\n  0xffffffffffffffffffffffffffffffffffffffff\n  and\n  0x8be0079c531659141344cd1fd0a4f28419497f9722a3daafe3b4186f6b6457e0\n  mload(0x40)\n  mload(0x40)\n  dup1\n  swap2\n  sub\n  swap1\n  log3\n    /* \"@openzeppelin/contracts/access/Ownable.sol\":2496:2620  {... */\n  pop\n    /* \"@openzeppelin/contracts/access/Ownable.sol\":2433:2620  function _transferOwnership(address newOwner) internal virtual {... */\n  pop\n  jump\t// out\n    /* \"contracts/NftDeployer.sol\":344:1951  contract NftStaker is Ownable {... */\ntag_10:\n  dataSize(sub_0)\n  dup1\n  dataOffset(sub_0)\n  0x00\n  codecopy\n  0x00\n  return\nstop\n\nsub_0: assembly {\n        /* \"contracts/NftDeployer.sol\":344:1951  contract NftStaker is Ownable {... */\n      mstore(0x40, 0x80)\n      callvalue\n      dup1\n      iszero\n      tag_1\n      jumpi\n      0x00\n      dup1\n      revert\n    tag_1:\n      pop\n      jumpi(tag_2, lt(calldatasize, 0x04))\n      shr(0xe0, calldataload(0x00))\n      dup1\n      0x7b0472f0\n      gt\n      tag_13\n      jumpi\n      dup1\n      0x7b0472f0\n      eq\n      tag_8\n      jumpi\n      dup1\n      0x8da5cb5b\n      eq\n      tag_9\n      jumpi\n      dup1\n      0xb8e33fb2\n      eq\n      tag_10\n      jumpi\n      dup1\n      0xf23a6e61\n      eq\n      tag_11\n      jumpi\n      dup1\n      0xf2fde38b\n      eq\n      tag_12\n      jumpi\n      jump(tag_2)\n    tag_13:\n      dup1\n      0x16934fc4\n      eq\n      tag_3\n      jumpi\n      dup1\n      0x2def6620\n      eq\n      tag_4\n      jumpi\n      dup1\n      0x4a7c7e4b\n      eq\n      tag_5\n      jumpi\n      dup1\n      0x583d42fd\n      eq\n      tag_6\n      jumpi\n      dup1\n      0x715018a6\n      eq\n      tag_7\n      jumpi\n    tag_2:\n      0x00\n      dup1\n      revert\n        /* \"contracts/NftDeployer.sol\":933:972  mapping(address => Stake) public stakes */\n    tag_3:\n      tag_14\n      0x04\n      dup1\n      calldatasize\n      sub\n      dup2\n      add\n      swap1\n      tag_15\n      swap2\n      swap1\n      tag_16\n      jump\t// in\n    tag_15:\n      tag_17\n      jump\t// in\n    tag_14:\n      mload(0x40)\n      tag_18\n      swap4\n      swap3\n      swap2\n      swap1\n      tag_19\n      jump\t// in\n    tag_18:\n      mload(0x40)\n      dup1\n      swap2\n      sub\n      swap1\n      return\n        /* \"contracts/NftDeployer.sol\":1323:1643  function unstake() public {... */\n    tag_4:\n      tag_20\n      tag_21\n      jump\t// in\n    tag_20:\n      stop\n        /* \"contracts/NftDeployer.sol\":657:760  function setGenerator(address _generator) public onlyOwner {... */\n    tag_5:\n      tag_22\n      0x04\n      dup1\n      calldatasize\n      sub\n      dup2\n      add\n      swap1\n      tag_23\n      swap2\n      swap1\n      tag_16\n      jump\t// in\n    tag_23:\n      tag_24\n      jump\t// in\n    tag_22:\n      stop\n        /* \"contracts/NftDeployer.sol\":1023:1069  mapping(address => uint256) public stakingTime */\n    tag_6:\n      tag_25\n      0x04\n      dup1\n      calldatasize\n      sub\n      dup2\n      add\n      swap1\n      tag_26\n      swap2\n      swap1\n      tag_16\n      jump\t// in\n    tag_26:\n      tag_27\n      jump\t// in\n    tag_25:\n      mload(0x40)\n      tag_28\n      swap2\n      swap1\n      tag_29\n      jump\t// in\n    tag_28:\n      mload(0x40)\n      dup1\n      swap2\n      sub\n      swap1\n      return\n        /* \"@openzeppelin/contracts/access/Ownable.sol\":1831:1932  function renounceOwnership() public virtual onlyOwner {... */\n    tag_7:\n      tag_30\n      tag_31\n      jump\t// in\n    tag_30:\n      stop\n        /* \"contracts/NftDeployer.sol\":1084:1314  function stake(uint256 _tokenId, uint256 _amount) public {... */\n    tag_8:\n      tag_32\n      0x04\n      dup1\n      calldatasize\n      sub\n      dup2\n      add\n      swap1\n      tag_33\n      swap2\n      swap1\n      tag_34\n      jump\t// in\n    tag_33:\n      tag_35\n      jump\t// in\n    tag_32:\n      stop\n        /* \"@openzeppelin/contracts/access/Ownable.sol\":1201:1286  function owner() public view virtual returns (address) {... */\n    tag_9:\n      tag_36\n      tag_37\n      jump\t// in\n    tag_36:\n      mload(0x40)\n      tag_38\n      swap2\n      swap1\n      tag_39\n      jump\t// in\n    tag_38:\n      mload(0x40)\n      dup1\n      swap2\n      sub\n      swap1\n      return\n        /* \"contracts/NftDeployer.sol\":381:406  IERC1155 public parentNFT */\n    tag_10:\n      tag_40\n      tag_41\n      jump\t// in\n    tag_40:\n      mload(0x40)\n      tag_42\n      swap2\n      swap1\n      tag_43\n      jump\t// in\n    tag_42:\n      mload(0x40)\n      dup1\n      swap2\n      sub\n      swap1\n      return\n        /* \"contracts/NftDeployer.sol\":1658:1946  function onERC1155Received(... */\n    tag_11:\n      tag_44\n      0x04\n      dup1\n      calldatasize\n      sub\n      dup2\n      add\n      swap1\n      tag_45\n      swap2\n      swap1\n      tag_46\n      jump\t// in\n    tag_45:\n      tag_47\n      jump\t// in\n    tag_44:\n      mload(0x40)\n      tag_48\n      swap2\n      swap1\n      tag_49\n      jump\t// in\n    tag_48:\n      mload(0x40)\n      dup1\n      swap2\n      sub\n      swap1\n      return\n        /* \"@openzeppelin/contracts/access/Ownable.sol\":2081:2279  function transferOwnership(address newOwner) public virtual onlyOwner {... */\n    tag_12:\n      tag_50\n      0x04\n      dup1\n      calldatasize\n      sub\n      dup2\n      add\n      swap1\n      tag_51\n      swap2\n      swap1\n      tag_16\n      jump\t// in\n    tag_51:\n      tag_52\n      jump\t// in\n    tag_50:\n      stop\n        /* \"contracts/NftDeployer.sol\":933:972  mapping(address => Stake) public stakes */\n    tag_17:\n      mstore(0x20, 0x03)\n      dup1\n      0x00\n      mstore\n      keccak256(0x00, 0x40)\n      0x00\n      swap2\n      pop\n      swap1\n      pop\n      dup1\n      0x00\n      add\n      sload\n      swap1\n      dup1\n      0x01\n      add\n      sload\n      swap1\n      dup1\n      0x02\n      add\n      sload\n      swap1\n      pop\n      dup4\n      jump\t// out\n        /* \"contracts/NftDeployer.sol\":1323:1643  function unstake() public {... */\n    tag_21:\n        /* \"contracts/NftDeployer.sol\":1360:1369  parentNFT */\n      0x01\n      0x00\n      swap1\n      sload\n      swap1\n      0x0100\n      exp\n      swap1\n      div\n      0xffffffffffffffffffffffffffffffffffffffff\n      and\n        /* \"contracts/NftDeployer.sol\":1360:1386  parentNFT.safeTransferFrom */\n      0xffffffffffffffffffffffffffffffffffffffff\n      and\n      0xf242432a\n        /* \"contracts/NftDeployer.sol\":1395:1399  this */\n      address\n        /* \"contracts/NftDeployer.sol\":1402:1412  msg.sender */\n      caller\n        /* \"contracts/NftDeployer.sol\":1414:1420  stakes */\n      0x03\n        /* \"contracts/NftDeployer.sol\":1414:1432  stakes[msg.sender] */\n      0x00\n        /* \"contracts/NftDeployer.sol\":1421:1431  msg.sender */\n      caller\n        /* \"contracts/NftDeployer.sol\":1414:1432  stakes[msg.sender] */\n      0xffffffffffffffffffffffffffffffffffffffff\n      and\n      0xffffffffffffffffffffffffffffffffffffffff\n      and\n      dup2\n      mstore\n      0x20\n      add\n      swap1\n      dup2\n      mstore\n      0x20\n      add\n      0x00\n      keccak256\n        /* \"contracts/NftDeployer.sol\":1414:1440  stakes[msg.sender].tokenId */\n      0x00\n      add\n      sload\n        /* \"contracts/NftDeployer.sol\":1442:1448  stakes */\n      0x03\n        /* \"contracts/NftDeployer.sol\":1442:1460  stakes[msg.sender] */\n      0x00\n        /* \"contracts/NftDeployer.sol\":1449:1459  msg.sender */\n      caller\n        /* \"contracts/NftDeployer.sol\":1442:1460  stakes[msg.sender] */\n      0xffffffffffffffffffffffffffffffffffffffff\n      and\n      0xffffffffffffffffffffffffffffffffffffffff\n      and\n      dup2\n      mstore\n      0x20\n      add\n      swap1\n      dup2\n      mstore\n      0x20\n      add\n      0x00\n      keccak256\n        /* \"contracts/NftDeployer.sol\":1442:1467  stakes[msg.sender].amount */\n      0x01\n      add\n      sload\n        /* \"contracts/NftDeployer.sol\":1360:1476  parentNFT.safeTransferFrom(address(this), msg.sender, stakes[msg.sender].tokenId, stakes[msg.sender].amount, \"0x00\") */\n      mload(0x40)\n      dup6\n      0xffffffff\n      and\n      0xe0\n      shl\n      dup2\n      mstore\n      0x04\n      add\n      tag_54\n      swap5\n      swap4\n      swap3\n      swap2\n      swap1\n      tag_55\n      jump\t// in\n    tag_54:\n      0x00\n      mload(0x40)\n      dup1\n      dup4\n      sub\n      dup2\n      0x00\n      dup8\n      dup1\n      extcodesize\n      iszero\n      dup1\n      iszero\n      tag_56\n      jumpi\n      0x00\n      dup1\n      revert\n    tag_56:\n      pop\n      gas\n      call\n      iszero\n      dup1\n      iszero\n      tag_58\n      jumpi\n      returndatasize\n      0x00\n      dup1\n      returndatacopy\n      revert(0x00, returndatasize)\n    tag_58:\n      pop\n      pop\n      pop\n      pop\n        /* \"contracts/NftDeployer.sol\":1533:1539  stakes */\n      0x03\n        /* \"contracts/NftDeployer.sol\":1533:1551  stakes[msg.sender] */\n      0x00\n        /* \"contracts/NftDeployer.sol\":1540:1550  msg.sender */\n      caller\n        /* \"contracts/NftDeployer.sol\":1533:1551  stakes[msg.sender] */\n      0xffffffffffffffffffffffffffffffffffffffff\n      and\n      0xffffffffffffffffffffffffffffffffffffffff\n      and\n      dup2\n      mstore\n      0x20\n      add\n      swap1\n      dup2\n      mstore\n      0x20\n      add\n      0x00\n      keccak256\n        /* \"contracts/NftDeployer.sol\":1533:1561  stakes[msg.sender].timestamp */\n      0x02\n      add\n      sload\n        /* \"contracts/NftDeployer.sol\":1515:1530  block.timestamp */\n      timestamp\n        /* \"contracts/NftDeployer.sol\":1515:1561  block.timestamp - stakes[msg.sender].timestamp */\n      tag_59\n      swap2\n      swap1\n      tag_60\n      jump\t// in\n    tag_59:\n        /* \"contracts/NftDeployer.sol\":1487:1498  stakingTime */\n      0x04\n        /* \"contracts/NftDeployer.sol\":1487:1510  stakingTime[msg.sender] */\n      0x00\n        /* \"contracts/NftDeployer.sol\":1499:1509  msg.sender */\n      caller\n        /* \"contracts/NftDeployer.sol\":1487:1510  stakingTime[msg.sender] */\n      0xffffffffffffffffffffffffffffffffffffffff\n      and\n      0xffffffffffffffffffffffffffffffffffffffff\n      and\n      dup2\n      mstore\n      0x20\n      add\n      swap1\n      dup2\n      mstore\n      0x20\n      add\n      0x00\n      keccak256\n      0x00\n        /* \"contracts/NftDeployer.sol\":1487:1562  stakingTime[msg.sender] += (block.timestamp - stakes[msg.sender].timestamp) */\n      dup3\n      dup3\n      sload\n      tag_61\n      swap2\n      swap1\n      tag_62\n      jump\t// in\n    tag_61:\n      swap3\n      pop\n      pop\n      dup2\n      swap1\n      sstore\n      pop\n        /* \"contracts/NftDeployer.sol\":1580:1586  stakes */\n      0x03\n        /* \"contracts/NftDeployer.sol\":1580:1598  stakes[msg.sender] */\n      0x00\n        /* \"contracts/NftDeployer.sol\":1587:1597  msg.sender */\n      caller\n        /* \"contracts/NftDeployer.sol\":1580:1598  stakes[msg.sender] */\n      0xffffffffffffffffffffffffffffffffffffffff\n      and\n      0xffffffffffffffffffffffffffffffffffffffff\n      and\n      dup2\n      mstore\n      0x20\n      add\n      swap1\n      dup2\n      mstore\n      0x20\n      add\n      0x00\n      keccak256\n      0x00\n        /* \"contracts/NftDeployer.sol\":1573:1598  delete stakes[msg.sender] */\n      dup1\n      dup3\n      add\n      0x00\n      swap1\n      sstore\n      0x01\n      dup3\n      add\n      0x00\n      swap1\n      sstore\n      0x02\n      dup3\n      add\n      0x00\n      swap1\n      sstore\n      pop\n      pop\n        /* \"contracts/NftDeployer.sol\":1609:1635  getLuckyReward(msg.sender) */\n      tag_63\n        /* \"contracts/NftDeployer.sol\":1624:1634  msg.sender */\n      caller\n        /* \"contracts/NftDeployer.sol\":1609:1623  getLuckyReward */\n      tag_64\n        /* \"contracts/NftDeployer.sol\":1609:1635  getLuckyReward(msg.sender) */\n      jump\t// in\n    tag_63:\n        /* \"contracts/NftDeployer.sol\":1323:1643  function unstake() public {... */\n      jump\t// out\n        /* \"contracts/NftDeployer.sol\":657:760  function setGenerator(address _generator) public onlyOwner {... */\n    tag_24:\n        /* \"@openzeppelin/contracts/access/Ownable.sol\":1094:1107  _checkOwner() */\n      tag_66\n        /* \"@openzeppelin/contracts/access/Ownable.sol\":1094:1105  _checkOwner */\n      tag_67\n        /* \"@openzeppelin/contracts/access/Ownable.sol\":1094:1107  _checkOwner() */\n      jump\t// in\n    tag_66:\n        /* \"contracts/NftDeployer.sol\":742:752  _generator */\n      dup1\n        /* \"contracts/NftDeployer.sol\":726:739  generatorAddr */\n      0x02\n      0x00\n        /* \"contracts/NftDeployer.sol\":726:752  generatorAddr = _generator */\n      0x0100\n      exp\n      dup2\n      sload\n      dup2\n      0xffffffffffffffffffffffffffffffffffffffff\n      mul\n      not\n      and\n      swap1\n      dup4\n      0xffffffffffffffffffffffffffffffffffffffff\n      and\n      mul\n      or\n      swap1\n      sstore\n      pop\n        /* \"contracts/NftDeployer.sol\":657:760  function setGenerator(address _generator) public onlyOwner {... */\n      pop\n      jump\t// out\n        /* \"contracts/NftDeployer.sol\":1023:1069  mapping(address => uint256) public stakingTime */\n    tag_27:\n      mstore(0x20, 0x04)\n      dup1\n      0x00\n      mstore\n      keccak256(0x00, 0x40)\n      0x00\n      swap2\n      pop\n      swap1\n      pop\n      sload\n      dup2\n      jump\t// out\n        /* \"@openzeppelin/contracts/access/Ownable.sol\":1831:1932  function renounceOwnership() public virtual onlyOwner {... */\n    tag_31:\n        /* \"@openzeppelin/contracts/access/Ownable.sol\":1094:1107  _checkOwner() */\n      tag_70\n        /* \"@openzeppelin/contracts/access/Ownable.sol\":1094:1105  _checkOwner */\n      tag_67\n        /* \"@openzeppelin/contracts/access/Ownable.sol\":1094:1107  _checkOwner() */\n      jump\t// in\n    tag_70:\n        /* \"@openzeppelin/contracts/access/Ownable.sol\":1895:1925  _transferOwnership(address(0)) */\n      tag_72\n        /* \"@openzeppelin/contracts/access/Ownable.sol\":1922:1923  0 */\n      0x00\n        /* \"@openzeppelin/contracts/access/Ownable.sol\":1895:1913  _transferOwnership */\n      tag_73\n        /* \"@openzeppelin/contracts/access/Ownable.sol\":1895:1925  _transferOwnership(address(0)) */\n      jump\t// in\n    tag_72:\n        /* \"@openzeppelin/contracts/access/Ownable.sol\":1831:1932  function renounceOwnership() public virtual onlyOwner {... */\n      jump\t// out\n        /* \"contracts/NftDeployer.sol\":1084:1314  function stake(uint256 _tokenId, uint256 _amount) public {... */\n    tag_35:\n        /* \"contracts/NftDeployer.sol\":1173:1214  Stake(_tokenId, _amount, block.timestamp) */\n      mload(0x40)\n      dup1\n      0x60\n      add\n      0x40\n      mstore\n      dup1\n        /* \"contracts/NftDeployer.sol\":1179:1187  _tokenId */\n      dup4\n        /* \"contracts/NftDeployer.sol\":1173:1214  Stake(_tokenId, _amount, block.timestamp) */\n      dup2\n      mstore\n      0x20\n      add\n        /* \"contracts/NftDeployer.sol\":1189:1196  _amount */\n      dup3\n        /* \"contracts/NftDeployer.sol\":1173:1214  Stake(_tokenId, _amount, block.timestamp) */\n      dup2\n      mstore\n      0x20\n      add\n        /* \"contracts/NftDeployer.sol\":1198:1213  block.timestamp */\n      timestamp\n        /* \"contracts/NftDeployer.sol\":1173:1214  Stake(_tokenId, _amount, block.timestamp) */\n      dup2\n      mstore\n      pop\n        /* \"contracts/NftDeployer.sol\":1152:1158  stakes */\n      0x03\n        /* \"contracts/NftDeployer.sol\":1152:1170  stakes[msg.sender] */\n      0x00\n        /* \"contracts/NftDeployer.sol\":1159:1169  msg.sender */\n      caller\n        /* \"contracts/NftDeployer.sol\":1152:1170  stakes[msg.sender] */\n      0xffffffffffffffffffffffffffffffffffffffff\n      and\n      0xffffffffffffffffffffffffffffffffffffffff\n      and\n      dup2\n      mstore\n      0x20\n      add\n      swap1\n      dup2\n      mstore\n      0x20\n      add\n      0x00\n      keccak256\n        /* \"contracts/NftDeployer.sol\":1152:1214  stakes[msg.sender] = Stake(_tokenId, _amount, block.timestamp) */\n      0x00\n      dup3\n      add\n      mload\n      dup2\n      0x00\n      add\n      sstore\n      0x20\n      dup3\n      add\n      mload\n      dup2\n      0x01\n      add\n      sstore\n      0x40\n      dup3\n      add\n      mload\n      dup2\n      0x02\n      add\n      sstore\n      swap1\n      pop\n      pop\n        /* \"contracts/NftDeployer.sol\":1226:1235  parentNFT */\n      0x01\n      0x00\n      swap1\n      sload\n      swap1\n      0x0100\n      exp\n      swap1\n      div\n      0xffffffffffffffffffffffffffffffffffffffff\n      and\n        /* \"contracts/NftDeployer.sol\":1226:1252  parentNFT.safeTransferFrom */\n      0xffffffffffffffffffffffffffffffffffffffff\n      and\n      0xf242432a\n        /* \"contracts/NftDeployer.sol\":1253:1263  msg.sender */\n      caller\n        /* \"contracts/NftDeployer.sol\":1273:1277  this */\n      address\n        /* \"contracts/NftDeployer.sol\":1280:1288  _tokenId */\n      dup6\n        /* \"contracts/NftDeployer.sol\":1290:1297  _amount */\n      dup6\n        /* \"contracts/NftDeployer.sol\":1226:1306  parentNFT.safeTransferFrom(msg.sender, address(this), _tokenId, _amount, \"0x00\") */\n      mload(0x40)\n      dup6\n      0xffffffff\n      and\n      0xe0\n      shl\n      dup2\n      mstore\n      0x04\n      add\n      tag_75\n      swap5\n      swap4\n      swap3\n      swap2\n      swap1\n      tag_55\n      jump\t// in\n    tag_75:\n      0x00\n      mload(0x40)\n      dup1\n      dup4\n      sub\n      dup2\n      0x00\n      dup8\n      dup1\n      extcodesize\n      iszero\n      dup1\n      iszero\n      tag_76\n      jumpi\n      0x00\n      dup1\n      revert\n    tag_76:\n      pop\n      gas\n      call\n      iszero\n      dup1\n      iszero\n      tag_78\n      jumpi\n      returndatasize\n      0x00\n      dup1\n      returndatacopy\n      revert(0x00, returndatasize)\n    tag_78:\n      pop\n      pop\n      pop\n      pop\n        /* \"contracts/NftDeployer.sol\":1084:1314  function stake(uint256 _tokenId, uint256 _amount) public {... */\n      pop\n      pop\n      jump\t// out\n        /* \"@openzeppelin/contracts/access/Ownable.sol\":1201:1286  function owner() public view virtual returns (address) {... */\n    tag_37:\n        /* \"@openzeppelin/contracts/access/Ownable.sol\":1247:1254  address */\n      0x00\n        /* \"@openzeppelin/contracts/access/Ownable.sol\":1273:1279  _owner */\n      dup1\n      0x00\n      swap1\n      sload\n      swap1\n      0x0100\n      exp\n      swap1\n      div\n      0xffffffffffffffffffffffffffffffffffffffff\n      and\n        /* \"@openzeppelin/contracts/access/Ownable.sol\":1266:1279  return _owner */\n      swap1\n      pop\n        /* \"@openzeppelin/contracts/access/Ownable.sol\":1201:1286  function owner() public view virtual returns (address) {... */\n      swap1\n      jump\t// out\n        /* \"contracts/NftDeployer.sol\":381:406  IERC1155 public parentNFT */\n    tag_41:\n      0x01\n      0x00\n      swap1\n      sload\n      swap1\n      0x0100\n      exp\n      swap1\n      div\n      0xffffffffffffffffffffffffffffffffffffffff\n      and\n      dup2\n      jump\t// out\n        /* \"contracts/NftDeployer.sol\":1658:1946  function onERC1155Received(... */\n    tag_47:\n        /* \"contracts/NftDeployer.sol\":1835:1841  bytes4 */\n      0x00\n        /* \"contracts/NftDeployer.sol\":1868:1937  keccak256(\"onERC1155Received(address,address,uint256,uint256,bytes)\") */\n      0xf23a6e612e1ff4830e658fe43f4e3cb4a5f8170bd5d9e69fb5d7a7fa9e4fdf97\n        /* \"contracts/NftDeployer.sol\":1854:1938  return bytes4(keccak256(\"onERC1155Received(address,address,uint256,uint256,bytes)\")) */\n      swap1\n      pop\n        /* \"contracts/NftDeployer.sol\":1658:1946  function onERC1155Received(... */\n      swap7\n      swap6\n      pop\n      pop\n      pop\n      pop\n      pop\n      pop\n      jump\t// out\n        /* \"@openzeppelin/contracts/access/Ownable.sol\":2081:2279  function transferOwnership(address newOwner) public virtual onlyOwner {... */\n    tag_52:\n        /* \"@openzeppelin/contracts/access/Ownable.sol\":1094:1107  _checkOwner() */\n      tag_82\n        /* \"@openzeppelin/contracts/access/Ownable.sol\":1094:1105  _checkOwner */\n      tag_67\n        /* \"@openzeppelin/contracts/access/Ownable.sol\":1094:1107  _checkOwner() */\n      jump\t// in\n    tag_82:\n        /* \"@openzeppelin/contracts/access/Ownable.sol\":2189:2190  0 */\n      0x00\n        /* \"@openzeppelin/contracts/access/Ownable.sol\":2169:2191  newOwner != address(0) */\n      0xffffffffffffffffffffffffffffffffffffffff\n      and\n        /* \"@openzeppelin/contracts/access/Ownable.sol\":2169:2177  newOwner */\n      dup2\n        /* \"@openzeppelin/contracts/access/Ownable.sol\":2169:2191  newOwner != address(0) */\n      0xffffffffffffffffffffffffffffffffffffffff\n      and\n      sub\n        /* \"@openzeppelin/contracts/access/Ownable.sol\":2161:2234  require(newOwner != address(0), \"Ownable: new owner is the zero address\") */\n      tag_84\n      jumpi\n      mload(0x40)\n      0x08c379a000000000000000000000000000000000000000000000000000000000\n      dup2\n      mstore\n      0x04\n      add\n      tag_85\n      swap1\n      tag_86\n      jump\t// in\n    tag_85:\n      mload(0x40)\n      dup1\n      swap2\n      sub\n      swap1\n      revert\n    tag_84:\n        /* \"@openzeppelin/contracts/access/Ownable.sol\":2244:2272  _transferOwnership(newOwner) */\n      tag_87\n        /* \"@openzeppelin/contracts/access/Ownable.sol\":2263:2271  newOwner */\n      dup2\n        /* \"@openzeppelin/contracts/access/Ownable.sol\":2244:2262  _transferOwnership */\n      tag_73\n        /* \"@openzeppelin/contracts/access/Ownable.sol\":2244:2272  _transferOwnership(newOwner) */\n      jump\t// in\n    tag_87:\n        /* \"@openzeppelin/contracts/access/Ownable.sol\":2081:2279  function transferOwnership(address newOwner) public virtual onlyOwner {... */\n      pop\n      jump\t// out\n        /* \"contracts/NftDeployer.sol\":768:881  function getLuckyReward(address _user) private {... */\n    tag_64:\n        /* \"contracts/NftDeployer.sol\":837:850  generatorAddr */\n      0x02\n      0x00\n      swap1\n      sload\n      swap1\n      0x0100\n      exp\n      swap1\n      div\n      0xffffffffffffffffffffffffffffffffffffffff\n      and\n        /* \"contracts/NftDeployer.sol\":826:866  IGenerator(generatorAddr).getLuckyReward */\n      0xffffffffffffffffffffffffffffffffffffffff\n      and\n      0xd34f6e72\n        /* \"contracts/NftDeployer.sol\":867:872  _user */\n      dup3\n        /* \"contracts/NftDeployer.sol\":826:873  IGenerator(generatorAddr).getLuckyReward(_user) */\n      mload(0x40)\n      dup3\n      0xffffffff\n      and\n      0xe0\n      shl\n      dup2\n      mstore\n      0x04\n      add\n      tag_89\n      swap2\n      swap1\n      tag_39\n      jump\t// in\n    tag_89:\n      0x00\n      mload(0x40)\n      dup1\n      dup4\n      sub\n      dup2\n      0x00\n      dup8\n      dup1\n      extcodesize\n      iszero\n      dup1\n      iszero\n      tag_90\n      jumpi\n      0x00\n      dup1\n      revert\n    tag_90:\n      pop\n      gas\n      call\n      iszero\n      dup1\n      iszero\n      tag_92\n      jumpi\n      returndatasize\n      0x00\n      dup1\n      returndatacopy\n      revert(0x00, returndatasize)\n    tag_92:\n      pop\n      pop\n      pop\n      pop\n        /* \"contracts/NftDeployer.sol\":768:881  function getLuckyReward(address _user) private {... */\n      pop\n      jump\t// out\n        /* \"@openzeppelin/contracts/access/Ownable.sol\":1359:1489  function _checkOwner() internal view virtual {... */\n    tag_67:\n        /* \"@openzeppelin/contracts/access/Ownable.sol\":1433:1445  _msgSender() */\n      tag_94\n        /* \"@openzeppelin/contracts/access/Ownable.sol\":1433:1443  _msgSender */\n      tag_95\n        /* \"@openzeppelin/contracts/access/Ownable.sol\":1433:1445  _msgSender() */\n      jump\t// in\n    tag_94:\n        /* \"@openzeppelin/contracts/access/Ownable.sol\":1422:1445  owner() == _msgSender() */\n      0xffffffffffffffffffffffffffffffffffffffff\n      and\n        /* \"@openzeppelin/contracts/access/Ownable.sol\":1422:1429  owner() */\n      tag_96\n        /* \"@openzeppelin/contracts/access/Ownable.sol\":1422:1427  owner */\n      tag_37\n        /* \"@openzeppelin/contracts/access/Ownable.sol\":1422:1429  owner() */\n      jump\t// in\n    tag_96:\n        /* \"@openzeppelin/contracts/access/Ownable.sol\":1422:1445  owner() == _msgSender() */\n      0xffffffffffffffffffffffffffffffffffffffff\n      and\n      eq\n        /* \"@openzeppelin/contracts/access/Ownable.sol\":1414:1482  require(owner() == _msgSender(), \"Ownable: caller is not the owner\") */\n      tag_97\n      jumpi\n      mload(0x40)\n      0x08c379a000000000000000000000000000000000000000000000000000000000\n      dup2\n      mstore\n      0x04\n      add\n      tag_98\n      swap1\n      tag_99\n      jump\t// in\n    tag_98:\n      mload(0x40)\n      dup1\n      swap2\n      sub\n      swap1\n      revert\n    tag_97:\n        /* \"@openzeppelin/contracts/access/Ownable.sol\":1359:1489  function _checkOwner() internal view virtual {... */\n      jump\t// out\n        /* \"@openzeppelin/contracts/access/Ownable.sol\":2433:2620  function _transferOwnership(address newOwner) internal virtual {... */\n    tag_73:\n        /* \"@openzeppelin/contracts/access/Ownable.sol\":2506:2522  address oldOwner */\n      0x00\n        /* \"@openzeppelin/contracts/access/Ownable.sol\":2525:2531  _owner */\n      dup1\n      0x00\n      swap1\n      sload\n      swap1\n      0x0100\n      exp\n      swap1\n      div\n      0xffffffffffffffffffffffffffffffffffffffff\n      and\n        /* \"@openzeppelin/contracts/access/Ownable.sol\":2506:2531  address oldOwner = _owner */\n      swap1\n      pop\n        /* \"@openzeppelin/contracts/access/Ownable.sol\":2550:2558  newOwner */\n      dup2\n        /* \"@openzeppelin/contracts/access/Ownable.sol\":2541:2547  _owner */\n      0x00\n      dup1\n        /* \"@openzeppelin/contracts/access/Ownable.sol\":2541:2558  _owner = newOwner */\n      0x0100\n      exp\n      dup2\n      sload\n      dup2\n      0xffffffffffffffffffffffffffffffffffffffff\n      mul\n      not\n      and\n      swap1\n      dup4\n      0xffffffffffffffffffffffffffffffffffffffff\n      and\n      mul\n      or\n      swap1\n      sstore\n      pop\n        /* \"@openzeppelin/contracts/access/Ownable.sol\":2604:2612  newOwner */\n      dup2\n        /* \"@openzeppelin/contracts/access/Ownable.sol\":2573:2613  OwnershipTransferred(oldOwner, newOwner) */\n      0xffffffffffffffffffffffffffffffffffffffff\n      and\n        /* \"@openzeppelin/contracts/access/Ownable.sol\":2594:2602  oldOwner */\n      dup2\n        /* \"@openzeppelin/contracts/access/Ownable.sol\":2573:2613  OwnershipTransferred(oldOwner, newOwner) */\n      0xffffffffffffffffffffffffffffffffffffffff\n      and\n      0x8be0079c531659141344cd1fd0a4f28419497f9722a3daafe3b4186f6b6457e0\n      mload(0x40)\n      mload(0x40)\n      dup1\n      swap2\n      sub\n      swap1\n      log3\n        /* \"@openzeppelin/contracts/access/Ownable.sol\":2496:2620  {... */\n      pop\n        /* \"@openzeppelin/contracts/access/Ownable.sol\":2433:2620  function _transferOwnership(address newOwner) internal virtual {... */\n      pop\n      jump\t// out\n        /* \"@openzeppelin/contracts/utils/Context.sol\":640:736  function _msgSender() internal view virtual returns (address) {... */\n    tag_95:\n        /* \"@openzeppelin/contracts/utils/Context.sol\":693:700  address */\n      0x00\n        /* \"@openzeppelin/contracts/utils/Context.sol\":719:729  msg.sender */\n      caller\n        /* \"@openzeppelin/contracts/utils/Context.sol\":712:729  return msg.sender */\n      swap1\n      pop\n        /* \"@openzeppelin/contracts/utils/Context.sol\":640:736  function _msgSender() internal view virtual returns (address) {... */\n      swap1\n      jump\t// out\n        /* \"#utility.yul\":88:205   */\n    tag_103:\n        /* \"#utility.yul\":197:198   */\n      0x00\n        /* \"#utility.yul\":194:195   */\n      dup1\n        /* \"#utility.yul\":187:199   */\n      revert\n        /* \"#utility.yul\":211:328   */\n    tag_104:\n        /* \"#utility.yul\":320:321   */\n      0x00\n        /* \"#utility.yul\":317:318   */\n      dup1\n        /* \"#utility.yul\":310:322   */\n      revert\n        /* \"#utility.yul\":334:460   */\n    tag_105:\n        /* \"#utility.yul\":371:378   */\n      0x00\n        /* \"#utility.yul\":411:453   */\n      0xffffffffffffffffffffffffffffffffffffffff\n        /* \"#utility.yul\":404:409   */\n      dup3\n        /* \"#utility.yul\":400:454   */\n      and\n        /* \"#utility.yul\":389:454   */\n      swap1\n      pop\n        /* \"#utility.yul\":334:460   */\n      swap2\n      swap1\n      pop\n      jump\t// out\n        /* \"#utility.yul\":466:562   */\n    tag_106:\n        /* \"#utility.yul\":503:510   */\n      0x00\n        /* \"#utility.yul\":532:556   */\n      tag_140\n        /* \"#utility.yul\":550:555   */\n      dup3\n        /* \"#utility.yul\":532:556   */\n      tag_105\n      jump\t// in\n    tag_140:\n        /* \"#utility.yul\":521:556   */\n      swap1\n      pop\n        /* \"#utility.yul\":466:562   */\n      swap2\n      swap1\n      pop\n      jump\t// out\n        /* \"#utility.yul\":568:690   */\n    tag_107:\n        /* \"#utility.yul\":641:665   */\n      tag_142\n        /* \"#utility.yul\":659:664   */\n      dup2\n        /* \"#utility.yul\":641:665   */\n      tag_106\n      jump\t// in\n    tag_142:\n        /* \"#utility.yul\":634:639   */\n      dup2\n        /* \"#utility.yul\":631:666   */\n      eq\n        /* \"#utility.yul\":621:684   */\n      tag_143\n      jumpi\n        /* \"#utility.yul\":680:681   */\n      0x00\n        /* \"#utility.yul\":677:678   */\n      dup1\n        /* \"#utility.yul\":670:682   */\n      revert\n        /* \"#utility.yul\":621:684   */\n    tag_143:\n        /* \"#utility.yul\":568:690   */\n      pop\n      jump\t// out\n        /* \"#utility.yul\":696:835   */\n    tag_108:\n        /* \"#utility.yul\":742:747   */\n      0x00\n        /* \"#utility.yul\":780:786   */\n      dup2\n        /* \"#utility.yul\":767:787   */\n      calldataload\n        /* \"#utility.yul\":758:787   */\n      swap1\n      pop\n        /* \"#utility.yul\":796:829   */\n      tag_145\n        /* \"#utility.yul\":823:828   */\n      dup2\n        /* \"#utility.yul\":796:829   */\n      tag_107\n      jump\t// in\n    tag_145:\n        /* \"#utility.yul\":696:835   */\n      swap3\n      swap2\n      pop\n      pop\n      jump\t// out\n        /* \"#utility.yul\":841:1170   */\n    tag_16:\n        /* \"#utility.yul\":900:906   */\n      0x00\n        /* \"#utility.yul\":949:951   */\n      0x20\n        /* \"#utility.yul\":937:946   */\n      dup3\n        /* \"#utility.yul\":928:935   */\n      dup5\n        /* \"#utility.yul\":924:947   */\n      sub\n        /* \"#utility.yul\":920:952   */\n      slt\n        /* \"#utility.yul\":917:1036   */\n      iszero\n      tag_147\n      jumpi\n        /* \"#utility.yul\":955:1034   */\n      tag_148\n      tag_103\n      jump\t// in\n    tag_148:\n        /* \"#utility.yul\":917:1036   */\n    tag_147:\n        /* \"#utility.yul\":1075:1076   */\n      0x00\n        /* \"#utility.yul\":1100:1153   */\n      tag_149\n        /* \"#utility.yul\":1145:1152   */\n      dup5\n        /* \"#utility.yul\":1136:1142   */\n      dup3\n        /* \"#utility.yul\":1125:1134   */\n      dup6\n        /* \"#utility.yul\":1121:1143   */\n      add\n        /* \"#utility.yul\":1100:1153   */\n      tag_108\n      jump\t// in\n    tag_149:\n        /* \"#utility.yul\":1090:1153   */\n      swap2\n      pop\n        /* \"#utility.yul\":1046:1163   */\n      pop\n        /* \"#utility.yul\":841:1170   */\n      swap3\n      swap2\n      pop\n      pop\n      jump\t// out\n        /* \"#utility.yul\":1176:1253   */\n    tag_109:\n        /* \"#utility.yul\":1213:1220   */\n      0x00\n        /* \"#utility.yul\":1242:1247   */\n      dup2\n        /* \"#utility.yul\":1231:1247   */\n      swap1\n      pop\n        /* \"#utility.yul\":1176:1253   */\n      swap2\n      swap1\n      pop\n      jump\t// out\n        /* \"#utility.yul\":1259:1377   */\n    tag_110:\n        /* \"#utility.yul\":1346:1370   */\n      tag_152\n        /* \"#utility.yul\":1364:1369   */\n      dup2\n        /* \"#utility.yul\":1346:1370   */\n      tag_109\n      jump\t// in\n    tag_152:\n        /* \"#utility.yul\":1341:1344   */\n      dup3\n        /* \"#utility.yul\":1334:1371   */\n      mstore\n        /* \"#utility.yul\":1259:1377   */\n      pop\n      pop\n      jump\t// out\n        /* \"#utility.yul\":1383:1825   */\n    tag_19:\n        /* \"#utility.yul\":1532:1536   */\n      0x00\n        /* \"#utility.yul\":1570:1572   */\n      0x60\n        /* \"#utility.yul\":1559:1568   */\n      dup3\n        /* \"#utility.yul\":1555:1573   */\n      add\n        /* \"#utility.yul\":1547:1573   */\n      swap1\n      pop\n        /* \"#utility.yul\":1583:1654   */\n      tag_154\n        /* \"#utility.yul\":1651:1652   */\n      0x00\n        /* \"#utility.yul\":1640:1649   */\n      dup4\n        /* \"#utility.yul\":1636:1653   */\n      add\n        /* \"#utility.yul\":1627:1633   */\n      dup7\n        /* \"#utility.yul\":1583:1654   */\n      tag_110\n      jump\t// in\n    tag_154:\n        /* \"#utility.yul\":1664:1736   */\n      tag_155\n        /* \"#utility.yul\":1732:1734   */\n      0x20\n        /* \"#utility.yul\":1721:1730   */\n      dup4\n        /* \"#utility.yul\":1717:1735   */\n      add\n        /* \"#utility.yul\":1708:1714   */\n      dup6\n        /* \"#utility.yul\":1664:1736   */\n      tag_110\n      jump\t// in\n    tag_155:\n        /* \"#utility.yul\":1746:1818   */\n      tag_156\n        /* \"#utility.yul\":1814:1816   */\n      0x40\n        /* \"#utility.yul\":1803:1812   */\n      dup4\n        /* \"#utility.yul\":1799:1817   */\n      add\n        /* \"#utility.yul\":1790:1796   */\n      dup5\n        /* \"#utility.yul\":1746:1818   */\n      tag_110\n      jump\t// in\n    tag_156:\n        /* \"#utility.yul\":1383:1825   */\n      swap5\n      swap4\n      pop\n      pop\n      pop\n      pop\n      jump\t// out\n        /* \"#utility.yul\":1831:2053   */\n    tag_29:\n        /* \"#utility.yul\":1924:1928   */\n      0x00\n        /* \"#utility.yul\":1962:1964   */\n      0x20\n        /* \"#utility.yul\":1951:1960   */\n      dup3\n        /* \"#utility.yul\":1947:1965   */\n      add\n        /* \"#utility.yul\":1939:1965   */\n      swap1\n      pop\n        /* \"#utility.yul\":1975:2046   */\n      tag_158\n        /* \"#utility.yul\":2043:2044   */\n      0x00\n        /* \"#utility.yul\":2032:2041   */\n      dup4\n        /* \"#utility.yul\":2028:2045   */\n      add\n        /* \"#utility.yul\":2019:2025   */\n      dup5\n        /* \"#utility.yul\":1975:2046   */\n      tag_110\n      jump\t// in\n    tag_158:\n        /* \"#utility.yul\":1831:2053   */\n      swap3\n      swap2\n      pop\n      pop\n      jump\t// out\n        /* \"#utility.yul\":2059:2181   */\n    tag_111:\n        /* \"#utility.yul\":2132:2156   */\n      tag_160\n        /* \"#utility.yul\":2150:2155   */\n      dup2\n        /* \"#utility.yul\":2132:2156   */\n      tag_109\n      jump\t// in\n    tag_160:\n        /* \"#utility.yul\":2125:2130   */\n      dup2\n        /* \"#utility.yul\":2122:2157   */\n      eq\n        /* \"#utility.yul\":2112:2175   */\n      tag_161\n      jumpi\n        /* \"#utility.yul\":2171:2172   */\n      0x00\n        /* \"#utility.yul\":2168:2169   */\n      dup1\n        /* \"#utility.yul\":2161:2173   */\n      revert\n        /* \"#utility.yul\":2112:2175   */\n    tag_161:\n        /* \"#utility.yul\":2059:2181   */\n      pop\n      jump\t// out\n        /* \"#utility.yul\":2187:2326   */\n    tag_112:\n        /* \"#utility.yul\":2233:2238   */\n      0x00\n        /* \"#utility.yul\":2271:2277   */\n      dup2\n        /* \"#utility.yul\":2258:2278   */\n      calldataload\n        /* \"#utility.yul\":2249:2278   */\n      swap1\n      pop\n        /* \"#utility.yul\":2287:2320   */\n      tag_163\n        /* \"#utility.yul\":2314:2319   */\n      dup2\n        /* \"#utility.yul\":2287:2320   */\n      tag_111\n      jump\t// in\n    tag_163:\n        /* \"#utility.yul\":2187:2326   */\n      swap3\n      swap2\n      pop\n      pop\n      jump\t// out\n        /* \"#utility.yul\":2332:2806   */\n    tag_34:\n        /* \"#utility.yul\":2400:2406   */\n      0x00\n        /* \"#utility.yul\":2408:2414   */\n      dup1\n        /* \"#utility.yul\":2457:2459   */\n      0x40\n        /* \"#utility.yul\":2445:2454   */\n      dup4\n        /* \"#utility.yul\":2436:2443   */\n      dup6\n        /* \"#utility.yul\":2432:2455   */\n      sub\n        /* \"#utility.yul\":2428:2460   */\n      slt\n        /* \"#utility.yul\":2425:2544   */\n      iszero\n      tag_165\n      jumpi\n        /* \"#utility.yul\":2463:2542   */\n      tag_166\n      tag_103\n      jump\t// in\n    tag_166:\n        /* \"#utility.yul\":2425:2544   */\n    tag_165:\n        /* \"#utility.yul\":2583:2584   */\n      0x00\n        /* \"#utility.yul\":2608:2661   */\n      tag_167\n        /* \"#utility.yul\":2653:2660   */\n      dup6\n        /* \"#utility.yul\":2644:2650   */\n      dup3\n        /* \"#utility.yul\":2633:2642   */\n      dup7\n        /* \"#utility.yul\":2629:2651   */\n      add\n        /* \"#utility.yul\":2608:2661   */\n      tag_112\n      jump\t// in\n    tag_167:\n        /* \"#utility.yul\":2598:2661   */\n      swap3\n      pop\n        /* \"#utility.yul\":2554:2671   */\n      pop\n        /* \"#utility.yul\":2710:2712   */\n      0x20\n        /* \"#utility.yul\":2736:2789   */\n      tag_168\n        /* \"#utility.yul\":2781:2788   */\n      dup6\n        /* \"#utility.yul\":2772:2778   */\n      dup3\n        /* \"#utility.yul\":2761:2770   */\n      dup7\n        /* \"#utility.yul\":2757:2779   */\n      add\n        /* \"#utility.yul\":2736:2789   */\n      tag_112\n      jump\t// in\n    tag_168:\n        /* \"#utility.yul\":2726:2789   */\n      swap2\n      pop\n        /* \"#utility.yul\":2681:2799   */\n      pop\n        /* \"#utility.yul\":2332:2806   */\n      swap3\n      pop\n      swap3\n      swap1\n      pop\n      jump\t// out\n        /* \"#utility.yul\":2812:2930   */\n    tag_113:\n        /* \"#utility.yul\":2899:2923   */\n      tag_170\n        /* \"#utility.yul\":2917:2922   */\n      dup2\n        /* \"#utility.yul\":2899:2923   */\n      tag_106\n      jump\t// in\n    tag_170:\n        /* \"#utility.yul\":2894:2897   */\n      dup3\n        /* \"#utility.yul\":2887:2924   */\n      mstore\n        /* \"#utility.yul\":2812:2930   */\n      pop\n      pop\n      jump\t// out\n        /* \"#utility.yul\":2936:3158   */\n    tag_39:\n        /* \"#utility.yul\":3029:3033   */\n      0x00\n        /* \"#utility.yul\":3067:3069   */\n      0x20\n        /* \"#utility.yul\":3056:3065   */\n      dup3\n        /* \"#utility.yul\":3052:3070   */\n      add\n        /* \"#utility.yul\":3044:3070   */\n      swap1\n      pop\n        /* \"#utility.yul\":3080:3151   */\n      tag_172\n        /* \"#utility.yul\":3148:3149   */\n      0x00\n        /* \"#utility.yul\":3137:3146   */\n      dup4\n        /* \"#utility.yul\":3133:3150   */\n      add\n        /* \"#utility.yul\":3124:3130   */\n      dup5\n        /* \"#utility.yul\":3080:3151   */\n      tag_113\n      jump\t// in\n    tag_172:\n        /* \"#utility.yul\":2936:3158   */\n      swap3\n      swap2\n      pop\n      pop\n      jump\t// out\n        /* \"#utility.yul\":3164:3224   */\n    tag_114:\n        /* \"#utility.yul\":3192:3195   */\n      0x00\n        /* \"#utility.yul\":3213:3218   */\n      dup2\n        /* \"#utility.yul\":3206:3218   */\n      swap1\n      pop\n        /* \"#utility.yul\":3164:3224   */\n      swap2\n      swap1\n      pop\n      jump\t// out\n        /* \"#utility.yul\":3230:3372   */\n    tag_115:\n        /* \"#utility.yul\":3280:3289   */\n      0x00\n        /* \"#utility.yul\":3313:3366   */\n      tag_175\n        /* \"#utility.yul\":3331:3365   */\n      tag_176\n        /* \"#utility.yul\":3340:3364   */\n      tag_177\n        /* \"#utility.yul\":3358:3363   */\n      dup5\n        /* \"#utility.yul\":3340:3364   */\n      tag_105\n      jump\t// in\n    tag_177:\n        /* \"#utility.yul\":3331:3365   */\n      tag_114\n      jump\t// in\n    tag_176:\n        /* \"#utility.yul\":3313:3366   */\n      tag_105\n      jump\t// in\n    tag_175:\n        /* \"#utility.yul\":3300:3366   */\n      swap1\n      pop\n        /* \"#utility.yul\":3230:3372   */\n      swap2\n      swap1\n      pop\n      jump\t// out\n        /* \"#utility.yul\":3378:3504   */\n    tag_116:\n        /* \"#utility.yul\":3428:3437   */\n      0x00\n        /* \"#utility.yul\":3461:3498   */\n      tag_179\n        /* \"#utility.yul\":3492:3497   */\n      dup3\n        /* \"#utility.yul\":3461:3498   */\n      tag_115\n      jump\t// in\n    tag_179:\n        /* \"#utility.yul\":3448:3498   */\n      swap1\n      pop\n        /* \"#utility.yul\":3378:3504   */\n      swap2\n      swap1\n      pop\n      jump\t// out\n        /* \"#utility.yul\":3510:3652   */\n    tag_117:\n        /* \"#utility.yul\":3576:3585   */\n      0x00\n        /* \"#utility.yul\":3609:3646   */\n      tag_181\n        /* \"#utility.yul\":3640:3645   */\n      dup3\n        /* \"#utility.yul\":3609:3646   */\n      tag_116\n      jump\t// in\n    tag_181:\n        /* \"#utility.yul\":3596:3646   */\n      swap1\n      pop\n        /* \"#utility.yul\":3510:3652   */\n      swap2\n      swap1\n      pop\n      jump\t// out\n        /* \"#utility.yul\":3658:3821   */\n    tag_118:\n        /* \"#utility.yul\":3761:3814   */\n      tag_183\n        /* \"#utility.yul\":3808:3813   */\n      dup2\n        /* \"#utility.yul\":3761:3814   */\n      tag_117\n      jump\t// in\n    tag_183:\n        /* \"#utility.yul\":3756:3759   */\n      dup3\n        /* \"#utility.yul\":3749:3815   */\n      mstore\n        /* \"#utility.yul\":3658:3821   */\n      pop\n      pop\n      jump\t// out\n        /* \"#utility.yul\":3827:4081   */\n    tag_43:\n        /* \"#utility.yul\":3936:3940   */\n      0x00\n        /* \"#utility.yul\":3974:3976   */\n      0x20\n        /* \"#utility.yul\":3963:3972   */\n      dup3\n        /* \"#utility.yul\":3959:3977   */\n      add\n        /* \"#utility.yul\":3951:3977   */\n      swap1\n      pop\n        /* \"#utility.yul\":3987:4074   */\n      tag_185\n        /* \"#utility.yul\":4071:4072   */\n      0x00\n        /* \"#utility.yul\":4060:4069   */\n      dup4\n        /* \"#utility.yul\":4056:4073   */\n      add\n        /* \"#utility.yul\":4047:4053   */\n      dup5\n        /* \"#utility.yul\":3987:4074   */\n      tag_118\n      jump\t// in\n    tag_185:\n        /* \"#utility.yul\":3827:4081   */\n      swap3\n      swap2\n      pop\n      pop\n      jump\t// out\n        /* \"#utility.yul\":4087:4204   */\n    tag_119:\n        /* \"#utility.yul\":4196:4197   */\n      0x00\n        /* \"#utility.yul\":4193:4194   */\n      dup1\n        /* \"#utility.yul\":4186:4198   */\n      revert\n        /* \"#utility.yul\":4210:4327   */\n    tag_120:\n        /* \"#utility.yul\":4319:4320   */\n      0x00\n        /* \"#utility.yul\":4316:4317   */\n      dup1\n        /* \"#utility.yul\":4309:4321   */\n      revert\n        /* \"#utility.yul\":4333:4450   */\n    tag_121:\n        /* \"#utility.yul\":4442:4443   */\n      0x00\n        /* \"#utility.yul\":4439:4440   */\n      dup1\n        /* \"#utility.yul\":4432:4444   */\n      revert\n        /* \"#utility.yul\":4469:5021   */\n    tag_122:\n        /* \"#utility.yul\":4526:4534   */\n      0x00\n        /* \"#utility.yul\":4536:4542   */\n      dup1\n        /* \"#utility.yul\":4586:4589   */\n      dup4\n        /* \"#utility.yul\":4579:4583   */\n      0x1f\n        /* \"#utility.yul\":4571:4577   */\n      dup5\n        /* \"#utility.yul\":4567:4584   */\n      add\n        /* \"#utility.yul\":4563:4590   */\n      slt\n        /* \"#utility.yul\":4553:4675   */\n      tag_190\n      jumpi\n        /* \"#utility.yul\":4594:4673   */\n      tag_191\n      tag_119\n      jump\t// in\n    tag_191:\n        /* \"#utility.yul\":4553:4675   */\n    tag_190:\n        /* \"#utility.yul\":4707:4713   */\n      dup3\n        /* \"#utility.yul\":4694:4714   */\n      calldataload\n        /* \"#utility.yul\":4684:4714   */\n      swap1\n      pop\n        /* \"#utility.yul\":4737:4755   */\n      0xffffffffffffffff\n        /* \"#utility.yul\":4729:4735   */\n      dup2\n        /* \"#utility.yul\":4726:4756   */\n      gt\n        /* \"#utility.yul\":4723:4840   */\n      iszero\n      tag_192\n      jumpi\n        /* \"#utility.yul\":4759:4838   */\n      tag_193\n      tag_120\n      jump\t// in\n    tag_193:\n        /* \"#utility.yul\":4723:4840   */\n    tag_192:\n        /* \"#utility.yul\":4873:4877   */\n      0x20\n        /* \"#utility.yul\":4865:4871   */\n      dup4\n        /* \"#utility.yul\":4861:4878   */\n      add\n        /* \"#utility.yul\":4849:4878   */\n      swap2\n      pop\n        /* \"#utility.yul\":4927:4930   */\n      dup4\n        /* \"#utility.yul\":4919:4923   */\n      0x01\n        /* \"#utility.yul\":4911:4917   */\n      dup3\n        /* \"#utility.yul\":4907:4924   */\n      mul\n        /* \"#utility.yul\":4897:4905   */\n      dup4\n        /* \"#utility.yul\":4893:4925   */\n      add\n        /* \"#utility.yul\":4890:4931   */\n      gt\n        /* \"#utility.yul\":4887:5015   */\n      iszero\n      tag_194\n      jumpi\n        /* \"#utility.yul\":4934:5013   */\n      tag_195\n      tag_121\n      jump\t// in\n    tag_195:\n        /* \"#utility.yul\":4887:5015   */\n    tag_194:\n        /* \"#utility.yul\":4469:5021   */\n      swap3\n      pop\n      swap3\n      swap1\n      pop\n      jump\t// out\n        /* \"#utility.yul\":5027:6136   */\n    tag_46:\n        /* \"#utility.yul\":5133:5139   */\n      0x00\n        /* \"#utility.yul\":5141:5147   */\n      dup1\n        /* \"#utility.yul\":5149:5155   */\n      0x00\n        /* \"#utility.yul\":5157:5163   */\n      dup1\n        /* \"#utility.yul\":5165:5171   */\n      0x00\n        /* \"#utility.yul\":5173:5179   */\n      dup1\n        /* \"#utility.yul\":5222:5225   */\n      0xa0\n        /* \"#utility.yul\":5210:5219   */\n      dup8\n        /* \"#utility.yul\":5201:5208   */\n      dup10\n        /* \"#utility.yul\":5197:5220   */\n      sub\n        /* \"#utility.yul\":5193:5226   */\n      slt\n        /* \"#utility.yul\":5190:5310   */\n      iszero\n      tag_197\n      jumpi\n        /* \"#utility.yul\":5229:5308   */\n      tag_198\n      tag_103\n      jump\t// in\n    tag_198:\n        /* \"#utility.yul\":5190:5310   */\n    tag_197:\n        /* \"#utility.yul\":5349:5350   */\n      0x00\n        /* \"#utility.yul\":5374:5427   */\n      tag_199\n        /* \"#utility.yul\":5419:5426   */\n      dup10\n        /* \"#utility.yul\":5410:5416   */\n      dup3\n        /* \"#utility.yul\":5399:5408   */\n      dup11\n        /* \"#utility.yul\":5395:5417   */\n      add\n        /* \"#utility.yul\":5374:5427   */\n      tag_108\n      jump\t// in\n    tag_199:\n        /* \"#utility.yul\":5364:5427   */\n      swap7\n      pop\n        /* \"#utility.yul\":5320:5437   */\n      pop\n        /* \"#utility.yul\":5476:5478   */\n      0x20\n        /* \"#utility.yul\":5502:5555   */\n      tag_200\n        /* \"#utility.yul\":5547:5554   */\n      dup10\n        /* \"#utility.yul\":5538:5544   */\n      dup3\n        /* \"#utility.yul\":5527:5536   */\n      dup11\n        /* \"#utility.yul\":5523:5545   */\n      add\n        /* \"#utility.yul\":5502:5555   */\n      tag_108\n      jump\t// in\n    tag_200:\n        /* \"#utility.yul\":5492:5555   */\n      swap6\n      pop\n        /* \"#utility.yul\":5447:5565   */\n      pop\n        /* \"#utility.yul\":5604:5606   */\n      0x40\n        /* \"#utility.yul\":5630:5683   */\n      tag_201\n        /* \"#utility.yul\":5675:5682   */\n      dup10\n        /* \"#utility.yul\":5666:5672   */\n      dup3\n        /* \"#utility.yul\":5655:5664   */\n      dup11\n        /* \"#utility.yul\":5651:5673   */\n      add\n        /* \"#utility.yul\":5630:5683   */\n      tag_112\n      jump\t// in\n    tag_201:\n        /* \"#utility.yul\":5620:5683   */\n      swap5\n      pop\n        /* \"#utility.yul\":5575:5693   */\n      pop\n        /* \"#utility.yul\":5732:5734   */\n      0x60\n        /* \"#utility.yul\":5758:5811   */\n      tag_202\n        /* \"#utility.yul\":5803:5810   */\n      dup10\n        /* \"#utility.yul\":5794:5800   */\n      dup3\n        /* \"#utility.yul\":5783:5792   */\n      dup11\n        /* \"#utility.yul\":5779:5801   */\n      add\n        /* \"#utility.yul\":5758:5811   */\n      tag_112\n      jump\t// in\n    tag_202:\n        /* \"#utility.yul\":5748:5811   */\n      swap4\n      pop\n        /* \"#utility.yul\":5703:5821   */\n      pop\n        /* \"#utility.yul\":5888:5891   */\n      0x80\n        /* \"#utility.yul\":5877:5886   */\n      dup8\n        /* \"#utility.yul\":5873:5892   */\n      add\n        /* \"#utility.yul\":5860:5893   */\n      calldataload\n        /* \"#utility.yul\":5920:5938   */\n      0xffffffffffffffff\n        /* \"#utility.yul\":5912:5918   */\n      dup2\n        /* \"#utility.yul\":5909:5939   */\n      gt\n        /* \"#utility.yul\":5906:6023   */\n      iszero\n      tag_203\n      jumpi\n        /* \"#utility.yul\":5942:6021   */\n      tag_204\n      tag_104\n      jump\t// in\n    tag_204:\n        /* \"#utility.yul\":5906:6023   */\n    tag_203:\n        /* \"#utility.yul\":6055:6119   */\n      tag_205\n        /* \"#utility.yul\":6111:6118   */\n      dup10\n        /* \"#utility.yul\":6102:6108   */\n      dup3\n        /* \"#utility.yul\":6091:6100   */\n      dup11\n        /* \"#utility.yul\":6087:6109   */\n      add\n        /* \"#utility.yul\":6055:6119   */\n      tag_122\n      jump\t// in\n    tag_205:\n        /* \"#utility.yul\":6037:6119   */\n      swap3\n      pop\n      swap3\n      pop\n        /* \"#utility.yul\":5831:6129   */\n      pop\n        /* \"#utility.yul\":5027:6136   */\n      swap3\n      swap6\n      pop\n      swap3\n      swap6\n      pop\n      swap3\n      swap6\n      jump\t// out\n        /* \"#utility.yul\":6142:6291   */\n    tag_123:\n        /* \"#utility.yul\":6178:6185   */\n      0x00\n        /* \"#utility.yul\":6218:6284   */\n      0xffffffff00000000000000000000000000000000000000000000000000000000\n        /* \"#utility.yul\":6211:6216   */\n      dup3\n        /* \"#utility.yul\":6207:6285   */\n      and\n        /* \"#utility.yul\":6196:6285   */\n      swap1\n      pop\n        /* \"#utility.yul\":6142:6291   */\n      swap2\n      swap1\n      pop\n      jump\t// out\n        /* \"#utility.yul\":6297:6412   */\n    tag_124:\n        /* \"#utility.yul\":6382:6405   */\n      tag_208\n        /* \"#utility.yul\":6399:6404   */\n      dup2\n        /* \"#utility.yul\":6382:6405   */\n      tag_123\n      jump\t// in\n    tag_208:\n        /* \"#utility.yul\":6377:6380   */\n      dup3\n        /* \"#utility.yul\":6370:6406   */\n      mstore\n        /* \"#utility.yul\":6297:6412   */\n      pop\n      pop\n      jump\t// out\n        /* \"#utility.yul\":6418:6636   */\n    tag_49:\n        /* \"#utility.yul\":6509:6513   */\n      0x00\n        /* \"#utility.yul\":6547:6549   */\n      0x20\n        /* \"#utility.yul\":6536:6545   */\n      dup3\n        /* \"#utility.yul\":6532:6550   */\n      add\n        /* \"#utility.yul\":6524:6550   */\n      swap1\n      pop\n        /* \"#utility.yul\":6560:6629   */\n      tag_210\n        /* \"#utility.yul\":6626:6627   */\n      0x00\n        /* \"#utility.yul\":6615:6624   */\n      dup4\n        /* \"#utility.yul\":6611:6628   */\n      add\n        /* \"#utility.yul\":6602:6608   */\n      dup5\n        /* \"#utility.yul\":6560:6629   */\n      tag_124\n      jump\t// in\n    tag_210:\n        /* \"#utility.yul\":6418:6636   */\n      swap3\n      swap2\n      pop\n      pop\n      jump\t// out\n        /* \"#utility.yul\":6642:6810   */\n    tag_125:\n        /* \"#utility.yul\":6725:6736   */\n      0x00\n        /* \"#utility.yul\":6759:6765   */\n      dup3\n        /* \"#utility.yul\":6754:6757   */\n      dup3\n        /* \"#utility.yul\":6747:6766   */\n      mstore\n        /* \"#utility.yul\":6799:6803   */\n      0x20\n        /* \"#utility.yul\":6794:6797   */\n      dup3\n        /* \"#utility.yul\":6790:6804   */\n      add\n        /* \"#utility.yul\":6775:6804   */\n      swap1\n      pop\n        /* \"#utility.yul\":6642:6810   */\n      swap3\n      swap2\n      pop\n      pop\n      jump\t// out\n        /* \"#utility.yul\":6816:6970   */\n    tag_126:\n        /* \"#utility.yul\":6956:6962   */\n      0x3078303000000000000000000000000000000000000000000000000000000000\n        /* \"#utility.yul\":6952:6953   */\n      0x00\n        /* \"#utility.yul\":6944:6950   */\n      dup3\n        /* \"#utility.yul\":6940:6954   */\n      add\n        /* \"#utility.yul\":6933:6963   */\n      mstore\n        /* \"#utility.yul\":6816:6970   */\n      pop\n      jump\t// out\n        /* \"#utility.yul\":6976:7339   */\n    tag_127:\n        /* \"#utility.yul\":7117:7120   */\n      0x00\n        /* \"#utility.yul\":7138:7203   */\n      tag_214\n        /* \"#utility.yul\":7201:7202   */\n      0x04\n        /* \"#utility.yul\":7196:7199   */\n      dup4\n        /* \"#utility.yul\":7138:7203   */\n      tag_125\n      jump\t// in\n    tag_214:\n        /* \"#utility.yul\":7131:7203   */\n      swap2\n      pop\n        /* \"#utility.yul\":7212:7305   */\n      tag_215\n        /* \"#utility.yul\":7301:7304   */\n      dup3\n        /* \"#utility.yul\":7212:7305   */\n      tag_126\n      jump\t// in\n    tag_215:\n        /* \"#utility.yul\":7330:7332   */\n      0x20\n        /* \"#utility.yul\":7325:7328   */\n      dup3\n        /* \"#utility.yul\":7321:7333   */\n      add\n        /* \"#utility.yul\":7314:7333   */\n      swap1\n      pop\n        /* \"#utility.yul\":6976:7339   */\n      swap2\n      swap1\n      pop\n      jump\t// out\n        /* \"#utility.yul\":7345:8204   */\n    tag_55:\n        /* \"#utility.yul\":7622:7626   */\n      0x00\n        /* \"#utility.yul\":7660:7663   */\n      0xa0\n        /* \"#utility.yul\":7649:7658   */\n      dup3\n        /* \"#utility.yul\":7645:7664   */\n      add\n        /* \"#utility.yul\":7637:7664   */\n      swap1\n      pop\n        /* \"#utility.yul\":7674:7745   */\n      tag_217\n        /* \"#utility.yul\":7742:7743   */\n      0x00\n        /* \"#utility.yul\":7731:7740   */\n      dup4\n        /* \"#utility.yul\":7727:7744   */\n      add\n        /* \"#utility.yul\":7718:7724   */\n      dup8\n        /* \"#utility.yul\":7674:7745   */\n      tag_113\n      jump\t// in\n    tag_217:\n        /* \"#utility.yul\":7755:7827   */\n      tag_218\n        /* \"#utility.yul\":7823:7825   */\n      0x20\n        /* \"#utility.yul\":7812:7821   */\n      dup4\n        /* \"#utility.yul\":7808:7826   */\n      add\n        /* \"#utility.yul\":7799:7805   */\n      dup7\n        /* \"#utility.yul\":7755:7827   */\n      tag_113\n      jump\t// in\n    tag_218:\n        /* \"#utility.yul\":7837:7909   */\n      tag_219\n        /* \"#utility.yul\":7905:7907   */\n      0x40\n        /* \"#utility.yul\":7894:7903   */\n      dup4\n        /* \"#utility.yul\":7890:7908   */\n      add\n        /* \"#utility.yul\":7881:7887   */\n      dup6\n        /* \"#utility.yul\":7837:7909   */\n      tag_110\n      jump\t// in\n    tag_219:\n        /* \"#utility.yul\":7919:7991   */\n      tag_220\n        /* \"#utility.yul\":7987:7989   */\n      0x60\n        /* \"#utility.yul\":7976:7985   */\n      dup4\n        /* \"#utility.yul\":7972:7990   */\n      add\n        /* \"#utility.yul\":7963:7969   */\n      dup5\n        /* \"#utility.yul\":7919:7991   */\n      tag_110\n      jump\t// in\n    tag_220:\n        /* \"#utility.yul\":8039:8048   */\n      dup2\n        /* \"#utility.yul\":8033:8037   */\n      dup2\n        /* \"#utility.yul\":8029:8049   */\n      sub\n        /* \"#utility.yul\":8023:8026   */\n      0x80\n        /* \"#utility.yul\":8012:8021   */\n      dup4\n        /* \"#utility.yul\":8008:8027   */\n      add\n        /* \"#utility.yul\":8001:8050   */\n      mstore\n        /* \"#utility.yul\":8067:8197   */\n      tag_221\n        /* \"#utility.yul\":8192:8196   */\n      dup2\n        /* \"#utility.yul\":8067:8197   */\n      tag_127\n      jump\t// in\n    tag_221:\n        /* \"#utility.yul\":8059:8197   */\n      swap1\n      pop\n        /* \"#utility.yul\":7345:8204   */\n      swap6\n      swap5\n      pop\n      pop\n      pop\n      pop\n      pop\n      jump\t// out\n        /* \"#utility.yul\":8210:8390   */\n    tag_128:\n        /* \"#utility.yul\":8258:8335   */\n      0x4e487b7100000000000000000000000000000000000000000000000000000000\n        /* \"#utility.yul\":8255:8256   */\n      0x00\n        /* \"#utility.yul\":8248:8336   */\n      mstore\n        /* \"#utility.yul\":8355:8359   */\n      0x11\n        /* \"#utility.yul\":8352:8353   */\n      0x04\n        /* \"#utility.yul\":8345:8360   */\n      mstore\n        /* \"#utility.yul\":8379:8383   */\n      0x24\n        /* \"#utility.yul\":8376:8377   */\n      0x00\n        /* \"#utility.yul\":8369:8384   */\n      revert\n        /* \"#utility.yul\":8396:8590   */\n    tag_60:\n        /* \"#utility.yul\":8436:8440   */\n      0x00\n        /* \"#utility.yul\":8456:8476   */\n      tag_224\n        /* \"#utility.yul\":8474:8475   */\n      dup3\n        /* \"#utility.yul\":8456:8476   */\n      tag_109\n      jump\t// in\n    tag_224:\n        /* \"#utility.yul\":8451:8476   */\n      swap2\n      pop\n        /* \"#utility.yul\":8490:8510   */\n      tag_225\n        /* \"#utility.yul\":8508:8509   */\n      dup4\n        /* \"#utility.yul\":8490:8510   */\n      tag_109\n      jump\t// in\n    tag_225:\n        /* \"#utility.yul\":8485:8510   */\n      swap3\n      pop\n        /* \"#utility.yul\":8534:8535   */\n      dup3\n        /* \"#utility.yul\":8531:8532   */\n      dup3\n        /* \"#utility.yul\":8527:8536   */\n      sub\n        /* \"#utility.yul\":8519:8536   */\n      swap1\n      pop\n        /* \"#utility.yul\":8558:8559   */\n      dup2\n        /* \"#utility.yul\":8552:8556   */\n      dup2\n        /* \"#utility.yul\":8549:8560   */\n      gt\n        /* \"#utility.yul\":8546:8583   */\n      iszero\n      tag_226\n      jumpi\n        /* \"#utility.yul\":8563:8581   */\n      tag_227\n      tag_128\n      jump\t// in\n    tag_227:\n        /* \"#utility.yul\":8546:8583   */\n    tag_226:\n        /* \"#utility.yul\":8396:8590   */\n      swap3\n      swap2\n      pop\n      pop\n      jump\t// out\n        /* \"#utility.yul\":8596:8787   */\n    tag_62:\n        /* \"#utility.yul\":8636:8639   */\n      0x00\n        /* \"#utility.yul\":8655:8675   */\n      tag_229\n        /* \"#utility.yul\":8673:8674   */\n      dup3\n        /* \"#utility.yul\":8655:8675   */\n      tag_109\n      jump\t// in\n    tag_229:\n        /* \"#utility.yul\":8650:8675   */\n      swap2\n      pop\n        /* \"#utility.yul\":8689:8709   */\n      tag_230\n        /* \"#utility.yul\":8707:8708   */\n      dup4\n        /* \"#utility.yul\":8689:8709   */\n      tag_109\n      jump\t// in\n    tag_230:\n        /* \"#utility.yul\":8684:8709   */\n      swap3\n      pop\n        /* \"#utility.yul\":8732:8733   */\n      dup3\n        /* \"#utility.yul\":8729:8730   */\n      dup3\n        /* \"#utility.yul\":8725:8734   */\n      add\n        /* \"#utility.yul\":8718:8734   */\n      swap1\n      pop\n        /* \"#utility.yul\":8753:8756   */\n      dup1\n        /* \"#utility.yul\":8750:8751   */\n      dup3\n        /* \"#utility.yul\":8747:8757   */\n      gt\n        /* \"#utility.yul\":8744:8780   */\n      iszero\n      tag_231\n      jumpi\n        /* \"#utility.yul\":8760:8778   */\n      tag_232\n      tag_128\n      jump\t// in\n    tag_232:\n        /* \"#utility.yul\":8744:8780   */\n    tag_231:\n        /* \"#utility.yul\":8596:8787   */\n      swap3\n      swap2\n      pop\n      pop\n      jump\t// out\n        /* \"#utility.yul\":8793:8962   */\n    tag_129:\n        /* \"#utility.yul\":8877:8888   */\n      0x00\n        /* \"#utility.yul\":8911:8917   */\n      dup3\n        /* \"#utility.yul\":8906:8909   */\n      dup3\n        /* \"#utility.yul\":8899:8918   */\n      mstore\n        /* \"#utility.yul\":8951:8955   */\n      0x20\n        /* \"#utility.yul\":8946:8949   */\n      dup3\n        /* \"#utility.yul\":8942:8956   */\n      add\n        /* \"#utility.yul\":8927:8956   */\n      swap1\n      pop\n        /* \"#utility.yul\":8793:8962   */\n      swap3\n      swap2\n      pop\n      pop\n      jump\t// out\n        /* \"#utility.yul\":8968:9193   */\n    tag_130:\n        /* \"#utility.yul\":9108:9142   */\n      0x4f776e61626c653a206e6577206f776e657220697320746865207a65726f2061\n        /* \"#utility.yul\":9104:9105   */\n      0x00\n        /* \"#utility.yul\":9096:9102   */\n      dup3\n        /* \"#utility.yul\":9092:9106   */\n      add\n        /* \"#utility.yul\":9085:9143   */\n      mstore\n        /* \"#utility.yul\":9177:9185   */\n      0x6464726573730000000000000000000000000000000000000000000000000000\n        /* \"#utility.yul\":9172:9174   */\n      0x20\n        /* \"#utility.yul\":9164:9170   */\n      dup3\n        /* \"#utility.yul\":9160:9175   */\n      add\n        /* \"#utility.yul\":9153:9186   */\n      mstore\n        /* \"#utility.yul\":8968:9193   */\n      pop\n      jump\t// out\n        /* \"#utility.yul\":9199:9565   */\n    tag_131:\n        /* \"#utility.yul\":9341:9344   */\n      0x00\n        /* \"#utility.yul\":9362:9429   */\n      tag_236\n        /* \"#utility.yul\":9426:9428   */\n      0x26\n        /* \"#utility.yul\":9421:9424   */\n      dup4\n        /* \"#utility.yul\":9362:9429   */\n      tag_129\n      jump\t// in\n    tag_236:\n        /* \"#utility.yul\":9355:9429   */\n      swap2\n      pop\n        /* \"#utility.yul\":9438:9531   */\n      tag_237\n        /* \"#utility.yul\":9527:9530   */\n      dup3\n        /* \"#utility.yul\":9438:9531   */\n      tag_130\n      jump\t// in\n    tag_237:\n        /* \"#utility.yul\":9556:9558   */\n      0x40\n        /* \"#utility.yul\":9551:9554   */\n      dup3\n        /* \"#utility.yul\":9547:9559   */\n      add\n        /* \"#utility.yul\":9540:9559   */\n      swap1\n      pop\n        /* \"#utility.yul\":9199:9565   */\n      swap2\n      swap1\n      pop\n      jump\t// out\n        /* \"#utility.yul\":9571:9990   */\n    tag_86:\n        /* \"#utility.yul\":9737:9741   */\n      0x00\n        /* \"#utility.yul\":9775:9777   */\n      0x20\n        /* \"#utility.yul\":9764:9773   */\n      dup3\n        /* \"#utility.yul\":9760:9778   */\n      add\n        /* \"#utility.yul\":9752:9778   */\n      swap1\n      pop\n        /* \"#utility.yul\":9824:9833   */\n      dup2\n        /* \"#utility.yul\":9818:9822   */\n      dup2\n        /* \"#utility.yul\":9814:9834   */\n      sub\n        /* \"#utility.yul\":9810:9811   */\n      0x00\n        /* \"#utility.yul\":9799:9808   */\n      dup4\n        /* \"#utility.yul\":9795:9812   */\n      add\n        /* \"#utility.yul\":9788:9835   */\n      mstore\n        /* \"#utility.yul\":9852:9983   */\n      tag_239\n        /* \"#utility.yul\":9978:9982   */\n      dup2\n        /* \"#utility.yul\":9852:9983   */\n      tag_131\n      jump\t// in\n    tag_239:\n        /* \"#utility.yul\":9844:9983   */\n      swap1\n      pop\n        /* \"#utility.yul\":9571:9990   */\n      swap2\n      swap1\n      pop\n      jump\t// out\n        /* \"#utility.yul\":9996:10178   */\n    tag_132:\n        /* \"#utility.yul\":10136:10170   */\n      0x4f776e61626c653a2063616c6c6572206973206e6f7420746865206f776e6572\n        /* \"#utility.yul\":10132:10133   */\n      0x00\n        /* \"#utility.yul\":10124:10130   */\n      dup3\n        /* \"#utility.yul\":10120:10134   */\n      add\n        /* \"#utility.yul\":10113:10171   */\n      mstore\n        /* \"#utility.yul\":9996:10178   */\n      pop\n      jump\t// out\n        /* \"#utility.yul\":10184:10550   */\n    tag_133:\n        /* \"#utility.yul\":10326:10329   */\n      0x00\n        /* \"#utility.yul\":10347:10414   */\n      tag_242\n        /* \"#utility.yul\":10411:10413   */\n      0x20\n        /* \"#utility.yul\":10406:10409   */\n      dup4\n        /* \"#utility.yul\":10347:10414   */\n      tag_129\n      jump\t// in\n    tag_242:\n        /* \"#utility.yul\":10340:10414   */\n      swap2\n      pop\n        /* \"#utility.yul\":10423:10516   */\n      tag_243\n        /* \"#utility.yul\":10512:10515   */\n      dup3\n        /* \"#utility.yul\":10423:10516   */\n      tag_132\n      jump\t// in\n    tag_243:\n        /* \"#utility.yul\":10541:10543   */\n      0x20\n        /* \"#utility.yul\":10536:10539   */\n      dup3\n        /* \"#utility.yul\":10532:10544   */\n      add\n        /* \"#utility.yul\":10525:10544   */\n      swap1\n      pop\n        /* \"#utility.yul\":10184:10550   */\n      swap2\n      swap1\n      pop\n      jump\t// out\n        /* \"#utility.yul\":10556:10975   */\n    tag_99:\n        /* \"#utility.yul\":10722:10726   */\n      0x00\n        /* \"#utility.yul\":10760:10762   */\n      0x20\n        /* \"#utility.yul\":10749:10758   */\n      dup3\n        /* \"#utility.yul\":10745:10763   */\n      add\n        /* \"#utility.yul\":10737:10763   */\n      swap1\n      pop\n        /* \"#utility.yul\":10809:10818   */\n      dup2\n        /* \"#utility.yul\":10803:10807   */\n      dup2\n        /* \"#utility.yul\":10799:10819   */\n      sub\n        /* \"#utility.yul\":10795:10796   */\n      0x00\n        /* \"#utility.yul\":10784:10793   */\n      dup4\n        /* \"#utility.yul\":10780:10797   */\n      add\n        /* \"#utility.yul\":10773:10820   */\n      mstore\n        /* \"#utility.yul\":10837:10968   */\n      tag_245\n        /* \"#utility.yul\":10963:10967   */\n      dup2\n        /* \"#utility.yul\":10837:10968   */\n      tag_133\n      jump\t// in\n    tag_245:\n        /* \"#utility.yul\":10829:10968   */\n      swap1\n      pop\n        /* \"#utility.yul\":10556:10975   */\n      swap2\n      swap1\n      pop\n      jump\t// out\n\n    auxdata: 0xa26469706673582212203390d9851a8c83f77cf7ffd41c2a59fc2d254c003d3ad2337d1efa45eba95bc764736f6c63430008110033\n}\n",
				"bytecode": {
					"linkReferences": {},
					"object": "608060405234801561001057600080fd5b5061002d61002261008760201b60201c565b61008f60201b60201c565b73d8b934580fce35a11b58c6d73adee468a2833fa8600160006101000a81548173ffffffffffffffffffffffffffffffffffffffff021916908373ffffffffffffffffffffffffffffffffffffffff160217905550610153565b600033905090565b60008060009054906101000a900473ffffffffffffffffffffffffffffffffffffffff169050816000806101000a81548173ffffffffffffffffffffffffffffffffffffffff021916908373ffffffffffffffffffffffffffffffffffffffff1602179055508173ffffffffffffffffffffffffffffffffffffffff168173ffffffffffffffffffffffffffffffffffffffff167f8be0079c531659141344cd1fd0a4f28419497f9722a3daafe3b4186f6b6457e060405160405180910390a35050565b610e7d806101626000396000f3fe608060405234801561001057600080fd5b506004361061009e5760003560e01c80637b0472f0116100665780637b0472f0146101355780638da5cb5b14610151578063b8e33fb21461016f578063f23a6e611461018d578063f2fde38b146101bd5761009e565b806316934fc4146100a35780632def6620146100d55780634a7c7e4b146100df578063583d42fd146100fb578063715018a61461012b575b600080fd5b6100bd60048036038101906100b891906108ef565b6101d9565b6040516100cc93929190610935565b60405180910390f35b6100dd610203565b005b6100f960048036038101906100f491906108ef565b610422565b005b610115600480360381019061011091906108ef565b61046e565b604051610122919061096c565b60405180910390f35b610133610486565b005b61014f600480360381019061014a91906109b3565b61049a565b005b6101596105ac565b6040516101669190610a02565b60405180910390f35b6101776105d5565b6040516101849190610a7c565b60405180910390f35b6101a760048036038101906101a29190610afc565b6105fb565b6040516101b49190610bd1565b60405180910390f35b6101d760048036038101906101d291906108ef565b61062a565b005b60036020528060005260406000206000915090508060000154908060010154908060020154905083565b600160009054906101000a900473ffffffffffffffffffffffffffffffffffffffff1673ffffffffffffffffffffffffffffffffffffffff1663f242432a3033600360003373ffffffffffffffffffffffffffffffffffffffff1673ffffffffffffffffffffffffffffffffffffffff16815260200190815260200160002060000154600360003373ffffffffffffffffffffffffffffffffffffffff1673ffffffffffffffffffffffffffffffffffffffff168152602001908152602001600020600101546040518563ffffffff1660e01b81526004016102e89493929190610c49565b600060405180830381600087803b15801561030257600080fd5b505af1158015610316573d6000803e3d6000fd5b50505050600360003373ffffffffffffffffffffffffffffffffffffffff1673ffffffffffffffffffffffffffffffffffffffff16815260200190815260200160002060020154426103689190610cd0565b600460003373ffffffffffffffffffffffffffffffffffffffff1673ffffffffffffffffffffffffffffffffffffffff16815260200190815260200160002060008282546103b69190610d04565b92505081905550600360003373ffffffffffffffffffffffffffffffffffffffff1673ffffffffffffffffffffffffffffffffffffffff168152602001908152602001600020600080820160009055600182016000905560028201600090555050610420336106ad565b565b61042a61073d565b80600260006101000a81548173ffffffffffffffffffffffffffffffffffffffff021916908373ffffffffffffffffffffffffffffffffffffffff16021790555050565b60046020528060005260406000206000915090505481565b61048e61073d565b61049860006107bb565b565b604051806060016040528083815260200182815260200142815250600360003373ffffffffffffffffffffffffffffffffffffffff1673ffffffffffffffffffffffffffffffffffffffff168152602001908152602001600020600082015181600001556020820151816001015560408201518160020155905050600160009054906101000a900473ffffffffffffffffffffffffffffffffffffffff1673ffffffffffffffffffffffffffffffffffffffff1663f242432a333085856040518563ffffffff1660e01b81526004016105769493929190610c49565b600060405180830381600087803b15801561059057600080fd5b505af11580156105a4573d6000803e3d6000fd5b505050505050565b60008060009054906101000a900473ffffffffffffffffffffffffffffffffffffffff16905090565b600160009054906101000a900473ffffffffffffffffffffffffffffffffffffffff1681565b60007ff23a6e612e1ff4830e658fe43f4e3cb4a5f8170bd5d9e69fb5d7a7fa9e4fdf9790509695505050505050565b61063261073d565b600073ffffffffffffffffffffffffffffffffffffffff168173ffffffffffffffffffffffffffffffffffffffff16036106a1576040517f08c379a000000000000000000000000000000000000000000000000000000000815260040161069890610dbb565b60405180910390fd5b6106aa816107bb565b50565b600260009054906101000a900473ffffffffffffffffffffffffffffffffffffffff1673ffffffffffffffffffffffffffffffffffffffff1663d34f6e72826040518263ffffffff1660e01b81526004016107089190610a02565b600060405180830381600087803b15801561072257600080fd5b505af1158015610736573d6000803e3d6000fd5b5050505050565b61074561087f565b73ffffffffffffffffffffffffffffffffffffffff166107636105ac565b73ffffffffffffffffffffffffffffffffffffffff16146107b9576040517f08c379a00000000000000000000000000000000000000000000000000000000081526004016107b090610e27565b60405180910390fd5b565b60008060009054906101000a900473ffffffffffffffffffffffffffffffffffffffff169050816000806101000a81548173ffffffffffffffffffffffffffffffffffffffff021916908373ffffffffffffffffffffffffffffffffffffffff1602179055508173ffffffffffffffffffffffffffffffffffffffff168173ffffffffffffffffffffffffffffffffffffffff167f8be0079c531659141344cd1fd0a4f28419497f9722a3daafe3b4186f6b6457e060405160405180910390a35050565b600033905090565b600080fd5b600080fd5b600073ffffffffffffffffffffffffffffffffffffffff82169050919050565b60006108bc82610891565b9050919050565b6108cc816108b1565b81146108d757600080fd5b50565b6000813590506108e9816108c3565b92915050565b60006020828403121561090557610904610887565b5b6000610913848285016108da565b91505092915050565b6000819050919050565b61092f8161091c565b82525050565b600060608201905061094a6000830186610926565b6109576020830185610926565b6109646040830184610926565b949350505050565b60006020820190506109816000830184610926565b92915050565b6109908161091c565b811461099b57600080fd5b50565b6000813590506109ad81610987565b92915050565b600080604083850312156109ca576109c9610887565b5b60006109d88582860161099e565b92505060206109e98582860161099e565b9150509250929050565b6109fc816108b1565b82525050565b6000602082019050610a1760008301846109f3565b92915050565b6000819050919050565b6000610a42610a3d610a3884610891565b610a1d565b610891565b9050919050565b6000610a5482610a27565b9050919050565b6000610a6682610a49565b9050919050565b610a7681610a5b565b82525050565b6000602082019050610a916000830184610a6d565b92915050565b600080fd5b600080fd5b600080fd5b60008083601f840112610abc57610abb610a97565b5b8235905067ffffffffffffffff811115610ad957610ad8610a9c565b5b602083019150836001820283011115610af557610af4610aa1565b5b9250929050565b60008060008060008060a08789031215610b1957610b18610887565b5b6000610b2789828a016108da565b9650506020610b3889828a016108da565b9550506040610b4989828a0161099e565b9450506060610b5a89828a0161099e565b935050608087013567ffffffffffffffff811115610b7b57610b7a61088c565b5b610b8789828a01610aa6565b92509250509295509295509295565b60007fffffffff0000000000000000000000000000000000000000000000000000000082169050919050565b610bcb81610b96565b82525050565b6000602082019050610be66000830184610bc2565b92915050565b600082825260208201905092915050565b7f3078303000000000000000000000000000000000000000000000000000000000600082015250565b6000610c33600483610bec565b9150610c3e82610bfd565b602082019050919050565b600060a082019050610c5e60008301876109f3565b610c6b60208301866109f3565b610c786040830185610926565b610c856060830184610926565b8181036080830152610c9681610c26565b905095945050505050565b7f4e487b7100000000000000000000000000000000000000000000000000000000600052601160045260246000fd5b6000610cdb8261091c565b9150610ce68361091c565b9250828203905081811115610cfe57610cfd610ca1565b5b92915050565b6000610d0f8261091c565b9150610d1a8361091c565b9250828201905080821115610d3257610d31610ca1565b5b92915050565b600082825260208201905092915050565b7f4f776e61626c653a206e6577206f776e657220697320746865207a65726f206160008201527f6464726573730000000000000000000000000000000000000000000000000000602082015250565b6000610da5602683610d38565b9150610db082610d49565b604082019050919050565b60006020820190508181036000830152610dd481610d98565b9050919050565b7f4f776e61626c653a2063616c6c6572206973206e6f7420746865206f776e6572600082015250565b6000610e11602083610d38565b9150610e1c82610ddb565b602082019050919050565b60006020820190508181036000830152610e4081610e04565b905091905056fea26469706673582212203390d9851a8c83f77cf7ffd41c2a59fc2d254c003d3ad2337d1efa45eba95bc764736f6c63430008110033",
					"opcodes": "PUSH1 0x80 PUSH1 0x40 MSTORE CALLVALUE DUP1 ISZERO PUSH2 0x10 JUMPI PUSH1 0x0 DUP1 REVERT JUMPDEST POP PUSH2 0x2D PUSH2 0x22 PUSH2 0x87 PUSH1 0x20 SHL PUSH1 0x20 SHR JUMP JUMPDEST PUSH2 0x8F PUSH1 0x20 SHL PUSH1 0x20 SHR JUMP JUMPDEST PUSH20 0xD8B934580FCE35A11B58C6D73ADEE468A2833FA8 PUSH1 0x1 PUSH1 0x0 PUSH2 0x100 EXP DUP2 SLOAD DUP2 PUSH20 0xFFFFFFFFFFFFFFFFFFFFFFFFFFFFFFFFFFFFFFFF MUL NOT AND SWAP1 DUP4 PUSH20 0xFFFFFFFFFFFFFFFFFFFFFFFFFFFFFFFFFFFFFFFF AND MUL OR SWAP1 SSTORE POP PUSH2 0x153 JUMP JUMPDEST PUSH1 0x0 CALLER SWAP1 POP SWAP1 JUMP JUMPDEST PUSH1 0x0 DUP1 PUSH1 0x0 SWAP1 SLOAD SWAP1 PUSH2 0x100 EXP SWAP1 DIV PUSH20 0xFFFFFFFFFFFFFFFFFFFFFFFFFFFFFFFFFFFFFFFF AND SWAP1 POP DUP2 PUSH1 0x0 DUP1 PUSH2 0x100 EXP DUP2 SLOAD DUP2 PUSH20 0xFFFFFFFFFFFFFFFFFFFFFFFFFFFFFFFFFFFFFFFF MUL NOT AND SWAP1 DUP4 PUSH20 0xFFFFFFFFFFFFFFFFFFFFFFFFFFFFFFFFFFFFFFFF AND MUL OR SWAP1 SSTORE POP DUP2 PUSH20 0xFFFFFFFFFFFFFFFFFFFFFFFFFFFFFFFFFFFFFFFF AND DUP2 PUSH20 0xFFFFFFFFFFFFFFFFFFFFFFFFFFFFFFFFFFFFFFFF AND PUSH32 0x8BE0079C531659141344CD1FD0A4F28419497F9722A3DAAFE3B4186F6B6457E0 PUSH1 0x40 MLOAD PUSH1 0x40 MLOAD DUP1 SWAP2 SUB SWAP1 LOG3 POP POP JUMP JUMPDEST PUSH2 0xE7D DUP1 PUSH2 0x162 PUSH1 0x0 CODECOPY PUSH1 0x0 RETURN INVALID PUSH1 0x80 PUSH1 0x40 MSTORE CALLVALUE DUP1 ISZERO PUSH2 0x10 JUMPI PUSH1 0x0 DUP1 REVERT JUMPDEST POP PUSH1 0x4 CALLDATASIZE LT PUSH2 0x9E JUMPI PUSH1 0x0 CALLDATALOAD PUSH1 0xE0 SHR DUP1 PUSH4 0x7B0472F0 GT PUSH2 0x66 JUMPI DUP1 PUSH4 0x7B0472F0 EQ PUSH2 0x135 JUMPI DUP1 PUSH4 0x8DA5CB5B EQ PUSH2 0x151 JUMPI DUP1 PUSH4 0xB8E33FB2 EQ PUSH2 0x16F JUMPI DUP1 PUSH4 0xF23A6E61 EQ PUSH2 0x18D JUMPI DUP1 PUSH4 0xF2FDE38B EQ PUSH2 0x1BD JUMPI PUSH2 0x9E JUMP JUMPDEST DUP1 PUSH4 0x16934FC4 EQ PUSH2 0xA3 JUMPI DUP1 PUSH4 0x2DEF6620 EQ PUSH2 0xD5 JUMPI DUP1 PUSH4 0x4A7C7E4B EQ PUSH2 0xDF JUMPI DUP1 PUSH4 0x583D42FD EQ PUSH2 0xFB JUMPI DUP1 PUSH4 0x715018A6 EQ PUSH2 0x12B JUMPI JUMPDEST PUSH1 0x0 DUP1 REVERT JUMPDEST PUSH2 0xBD PUSH1 0x4 DUP1 CALLDATASIZE SUB DUP2 ADD SWAP1 PUSH2 0xB8 SWAP2 SWAP1 PUSH2 0x8EF JUMP JUMPDEST PUSH2 0x1D9 JUMP JUMPDEST PUSH1 0x40 MLOAD PUSH2 0xCC SWAP4 SWAP3 SWAP2 SWAP1 PUSH2 0x935 JUMP JUMPDEST PUSH1 0x40 MLOAD DUP1 SWAP2 SUB SWAP1 RETURN JUMPDEST PUSH2 0xDD PUSH2 0x203 JUMP JUMPDEST STOP JUMPDEST PUSH2 0xF9 PUSH1 0x4 DUP1 CALLDATASIZE SUB DUP2 ADD SWAP1 PUSH2 0xF4 SWAP2 SWAP1 PUSH2 0x8EF JUMP JUMPDEST PUSH2 0x422 JUMP JUMPDEST STOP JUMPDEST PUSH2 0x115 PUSH1 0x4 DUP1 CALLDATASIZE SUB DUP2 ADD SWAP1 PUSH2 0x110 SWAP2 SWAP1 PUSH2 0x8EF JUMP JUMPDEST PUSH2 0x46E JUMP JUMPDEST PUSH1 0x40 MLOAD PUSH2 0x122 SWAP2 SWAP1 PUSH2 0x96C JUMP JUMPDEST PUSH1 0x40 MLOAD DUP1 SWAP2 SUB SWAP1 RETURN JUMPDEST PUSH2 0x133 PUSH2 0x486 JUMP JUMPDEST STOP JUMPDEST PUSH2 0x14F PUSH1 0x4 DUP1 CALLDATASIZE SUB DUP2 ADD SWAP1 PUSH2 0x14A SWAP2 SWAP1 PUSH2 0x9B3 JUMP JUMPDEST PUSH2 0x49A JUMP JUMPDEST STOP JUMPDEST PUSH2 0x159 PUSH2 0x5AC JUMP JUMPDEST PUSH1 0x40 MLOAD PUSH2 0x166 SWAP2 SWAP1 PUSH2 0xA02 JUMP JUMPDEST PUSH1 0x40 MLOAD DUP1 SWAP2 SUB SWAP1 RETURN JUMPDEST PUSH2 0x177 PUSH2 0x5D5 JUMP JUMPDEST PUSH1 0x40 MLOAD PUSH2 0x184 SWAP2 SWAP1 PUSH2 0xA7C JUMP JUMPDEST PUSH1 0x40 MLOAD DUP1 SWAP2 SUB SWAP1 RETURN JUMPDEST PUSH2 0x1A7 PUSH1 0x4 DUP1 CALLDATASIZE SUB DUP2 ADD SWAP1 PUSH2 0x1A2 SWAP2 SWAP1 PUSH2 0xAFC JUMP JUMPDEST PUSH2 0x5FB JUMP JUMPDEST PUSH1 0x40 MLOAD PUSH2 0x1B4 SWAP2 SWAP1 PUSH2 0xBD1 JUMP JUMPDEST PUSH1 0x40 MLOAD DUP1 SWAP2 SUB SWAP1 RETURN JUMPDEST PUSH2 0x1D7 PUSH1 0x4 DUP1 CALLDATASIZE SUB DUP2 ADD SWAP1 PUSH2 0x1D2 SWAP2 SWAP1 PUSH2 0x8EF JUMP JUMPDEST PUSH2 0x62A JUMP JUMPDEST STOP JUMPDEST PUSH1 0x3 PUSH1 0x20 MSTORE DUP1 PUSH1 0x0 MSTORE PUSH1 0x40 PUSH1 0x0 KECCAK256 PUSH1 0x0 SWAP2 POP SWAP1 POP DUP1 PUSH1 0x0 ADD SLOAD SWAP1 DUP1 PUSH1 0x1 ADD SLOAD SWAP1 DUP1 PUSH1 0x2 ADD SLOAD SWAP1 POP DUP4 JUMP JUMPDEST PUSH1 0x1 PUSH1 0x0 SWAP1 SLOAD SWAP1 PUSH2 0x100 EXP SWAP1 DIV PUSH20 0xFFFFFFFFFFFFFFFFFFFFFFFFFFFFFFFFFFFFFFFF AND PUSH20 0xFFFFFFFFFFFFFFFFFFFFFFFFFFFFFFFFFFFFFFFF AND PUSH4 0xF242432A ADDRESS CALLER PUSH1 0x3 PUSH1 0x0 CALLER PUSH20 0xFFFFFFFFFFFFFFFFFFFFFFFFFFFFFFFFFFFFFFFF AND PUSH20 0xFFFFFFFFFFFFFFFFFFFFFFFFFFFFFFFFFFFFFFFF AND DUP2 MSTORE PUSH1 0x20 ADD SWAP1 DUP2 MSTORE PUSH1 0x20 ADD PUSH1 0x0 KECCAK256 PUSH1 0x0 ADD SLOAD PUSH1 0x3 PUSH1 0x0 CALLER PUSH20 0xFFFFFFFFFFFFFFFFFFFFFFFFFFFFFFFFFFFFFFFF AND PUSH20 0xFFFFFFFFFFFFFFFFFFFFFFFFFFFFFFFFFFFFFFFF AND DUP2 MSTORE PUSH1 0x20 ADD SWAP1 DUP2 MSTORE PUSH1 0x20 ADD PUSH1 0x0 KECCAK256 PUSH1 0x1 ADD SLOAD PUSH1 0x40 MLOAD DUP6 PUSH4 0xFFFFFFFF AND PUSH1 0xE0 SHL DUP2 MSTORE PUSH1 0x4 ADD PUSH2 0x2E8 SWAP5 SWAP4 SWAP3 SWAP2 SWAP1 PUSH2 0xC49 JUMP JUMPDEST PUSH1 0x0 PUSH1 0x40 MLOAD DUP1 DUP4 SUB DUP2 PUSH1 0x0 DUP8 DUP1 EXTCODESIZE ISZERO DUP1 ISZERO PUSH2 0x302 JUMPI PUSH1 0x0 DUP1 REVERT JUMPDEST POP GAS CALL ISZERO DUP1 ISZERO PUSH2 0x316 JUMPI RETURNDATASIZE PUSH1 0x0 DUP1 RETURNDATACOPY RETURNDATASIZE PUSH1 0x0 REVERT JUMPDEST POP POP POP POP PUSH1 0x3 PUSH1 0x0 CALLER PUSH20 0xFFFFFFFFFFFFFFFFFFFFFFFFFFFFFFFFFFFFFFFF AND PUSH20 0xFFFFFFFFFFFFFFFFFFFFFFFFFFFFFFFFFFFFFFFF AND DUP2 MSTORE PUSH1 0x20 ADD SWAP1 DUP2 MSTORE PUSH1 0x20 ADD PUSH1 0x0 KECCAK256 PUSH1 0x2 ADD SLOAD TIMESTAMP PUSH2 0x368 SWAP2 SWAP1 PUSH2 0xCD0 JUMP JUMPDEST PUSH1 0x4 PUSH1 0x0 CALLER PUSH20 0xFFFFFFFFFFFFFFFFFFFFFFFFFFFFFFFFFFFFFFFF AND PUSH20 0xFFFFFFFFFFFFFFFFFFFFFFFFFFFFFFFFFFFFFFFF AND DUP2 MSTORE PUSH1 0x20 ADD SWAP1 DUP2 MSTORE PUSH1 0x20 ADD PUSH1 0x0 KECCAK256 PUSH1 0x0 DUP3 DUP3 SLOAD PUSH2 0x3B6 SWAP2 SWAP1 PUSH2 0xD04 JUMP JUMPDEST SWAP3 POP POP DUP2 SWAP1 SSTORE POP PUSH1 0x3 PUSH1 0x0 CALLER PUSH20 0xFFFFFFFFFFFFFFFFFFFFFFFFFFFFFFFFFFFFFFFF AND PUSH20 0xFFFFFFFFFFFFFFFFFFFFFFFFFFFFFFFFFFFFFFFF AND DUP2 MSTORE PUSH1 0x20 ADD SWAP1 DUP2 MSTORE PUSH1 0x20 ADD PUSH1 0x0 KECCAK256 PUSH1 0x0 DUP1 DUP3 ADD PUSH1 0x0 SWAP1 SSTORE PUSH1 0x1 DUP3 ADD PUSH1 0x0 SWAP1 SSTORE PUSH1 0x2 DUP3 ADD PUSH1 0x0 SWAP1 SSTORE POP POP PUSH2 0x420 CALLER PUSH2 0x6AD JUMP JUMPDEST JUMP JUMPDEST PUSH2 0x42A PUSH2 0x73D JUMP JUMPDEST DUP1 PUSH1 0x2 PUSH1 0x0 PUSH2 0x100 EXP DUP2 SLOAD DUP2 PUSH20 0xFFFFFFFFFFFFFFFFFFFFFFFFFFFFFFFFFFFFFFFF MUL NOT AND SWAP1 DUP4 PUSH20 0xFFFFFFFFFFFFFFFFFFFFFFFFFFFFFFFFFFFFFFFF AND MUL OR SWAP1 SSTORE POP POP JUMP JUMPDEST PUSH1 0x4 PUSH1 0x20 MSTORE DUP1 PUSH1 0x0 MSTORE PUSH1 0x40 PUSH1 0x0 KECCAK256 PUSH1 0x0 SWAP2 POP SWAP1 POP SLOAD DUP2 JUMP JUMPDEST PUSH2 0x48E PUSH2 0x73D JUMP JUMPDEST PUSH2 0x498 PUSH1 0x0 PUSH2 0x7BB JUMP JUMPDEST JUMP JUMPDEST PUSH1 0x40 MLOAD DUP1 PUSH1 0x60 ADD PUSH1 0x40 MSTORE DUP1 DUP4 DUP2 MSTORE PUSH1 0x20 ADD DUP3 DUP2 MSTORE PUSH1 0x20 ADD TIMESTAMP DUP2 MSTORE POP PUSH1 0x3 PUSH1 0x0 CALLER PUSH20 0xFFFFFFFFFFFFFFFFFFFFFFFFFFFFFFFFFFFFFFFF AND PUSH20 0xFFFFFFFFFFFFFFFFFFFFFFFFFFFFFFFFFFFFFFFF AND DUP2 MSTORE PUSH1 0x20 ADD SWAP1 DUP2 MSTORE PUSH1 0x20 ADD PUSH1 0x0 KECCAK256 PUSH1 0x0 DUP3 ADD MLOAD DUP2 PUSH1 0x0 ADD SSTORE PUSH1 0x20 DUP3 ADD MLOAD DUP2 PUSH1 0x1 ADD SSTORE PUSH1 0x40 DUP3 ADD MLOAD DUP2 PUSH1 0x2 ADD SSTORE SWAP1 POP POP PUSH1 0x1 PUSH1 0x0 SWAP1 SLOAD SWAP1 PUSH2 0x100 EXP SWAP1 DIV PUSH20 0xFFFFFFFFFFFFFFFFFFFFFFFFFFFFFFFFFFFFFFFF AND PUSH20 0xFFFFFFFFFFFFFFFFFFFFFFFFFFFFFFFFFFFFFFFF AND PUSH4 0xF242432A CALLER ADDRESS DUP6 DUP6 PUSH1 0x40 MLOAD DUP6 PUSH4 0xFFFFFFFF AND PUSH1 0xE0 SHL DUP2 MSTORE PUSH1 0x4 ADD PUSH2 0x576 SWAP5 SWAP4 SWAP3 SWAP2 SWAP1 PUSH2 0xC49 JUMP JUMPDEST PUSH1 0x0 PUSH1 0x40 MLOAD DUP1 DUP4 SUB DUP2 PUSH1 0x0 DUP8 DUP1 EXTCODESIZE ISZERO DUP1 ISZERO PUSH2 0x590 JUMPI PUSH1 0x0 DUP1 REVERT JUMPDEST POP GAS CALL ISZERO DUP1 ISZERO PUSH2 0x5A4 JUMPI RETURNDATASIZE PUSH1 0x0 DUP1 RETURNDATACOPY RETURNDATASIZE PUSH1 0x0 REVERT JUMPDEST POP POP POP POP POP POP JUMP JUMPDEST PUSH1 0x0 DUP1 PUSH1 0x0 SWAP1 SLOAD SWAP1 PUSH2 0x100 EXP SWAP1 DIV PUSH20 0xFFFFFFFFFFFFFFFFFFFFFFFFFFFFFFFFFFFFFFFF AND SWAP1 POP SWAP1 JUMP JUMPDEST PUSH1 0x1 PUSH1 0x0 SWAP1 SLOAD SWAP1 PUSH2 0x100 EXP SWAP1 DIV PUSH20 0xFFFFFFFFFFFFFFFFFFFFFFFFFFFFFFFFFFFFFFFF AND DUP2 JUMP JUMPDEST PUSH1 0x0 PUSH32 0xF23A6E612E1FF4830E658FE43F4E3CB4A5F8170BD5D9E69FB5D7A7FA9E4FDF97 SWAP1 POP SWAP7 SWAP6 POP POP POP POP POP POP JUMP JUMPDEST PUSH2 0x632 PUSH2 0x73D JUMP JUMPDEST PUSH1 0x0 PUSH20 0xFFFFFFFFFFFFFFFFFFFFFFFFFFFFFFFFFFFFFFFF AND DUP2 PUSH20 0xFFFFFFFFFFFFFFFFFFFFFFFFFFFFFFFFFFFFFFFF AND SUB PUSH2 0x6A1 JUMPI PUSH1 0x40 MLOAD PUSH32 0x8C379A000000000000000000000000000000000000000000000000000000000 DUP2 MSTORE PUSH1 0x4 ADD PUSH2 0x698 SWAP1 PUSH2 0xDBB JUMP JUMPDEST PUSH1 0x40 MLOAD DUP1 SWAP2 SUB SWAP1 REVERT JUMPDEST PUSH2 0x6AA DUP2 PUSH2 0x7BB JUMP JUMPDEST POP JUMP JUMPDEST PUSH1 0x2 PUSH1 0x0 SWAP1 SLOAD SWAP1 PUSH2 0x100 EXP SWAP1 DIV PUSH20 0xFFFFFFFFFFFFFFFFFFFFFFFFFFFFFFFFFFFFFFFF AND PUSH20 0xFFFFFFFFFFFFFFFFFFFFFFFFFFFFFFFFFFFFFFFF AND PUSH4 0xD34F6E72 DUP3 PUSH1 0x40 MLOAD DUP3 PUSH4 0xFFFFFFFF AND PUSH1 0xE0 SHL DUP2 MSTORE PUSH1 0x4 ADD PUSH2 0x708 SWAP2 SWAP1 PUSH2 0xA02 JUMP JUMPDEST PUSH1 0x0 PUSH1 0x40 MLOAD DUP1 DUP4 SUB DUP2 PUSH1 0x0 DUP8 DUP1 EXTCODESIZE ISZERO DUP1 ISZERO PUSH2 0x722 JUMPI PUSH1 0x0 DUP1 REVERT JUMPDEST POP GAS CALL ISZERO DUP1 ISZERO PUSH2 0x736 JUMPI RETURNDATASIZE PUSH1 0x0 DUP1 RETURNDATACOPY RETURNDATASIZE PUSH1 0x0 REVERT JUMPDEST POP POP POP POP POP JUMP JUMPDEST PUSH2 0x745 PUSH2 0x87F JUMP JUMPDEST PUSH20 0xFFFFFFFFFFFFFFFFFFFFFFFFFFFFFFFFFFFFFFFF AND PUSH2 0x763 PUSH2 0x5AC JUMP JUMPDEST PUSH20 0xFFFFFFFFFFFFFFFFFFFFFFFFFFFFFFFFFFFFFFFF AND EQ PUSH2 0x7B9 JUMPI PUSH1 0x40 MLOAD PUSH32 0x8C379A000000000000000000000000000000000000000000000000000000000 DUP2 MSTORE PUSH1 0x4 ADD PUSH2 0x7B0 SWAP1 PUSH2 0xE27 JUMP JUMPDEST PUSH1 0x40 MLOAD DUP1 SWAP2 SUB SWAP1 REVERT JUMPDEST JUMP JUMPDEST PUSH1 0x0 DUP1 PUSH1 0x0 SWAP1 SLOAD SWAP1 PUSH2 0x100 EXP SWAP1 DIV PUSH20 0xFFFFFFFFFFFFFFFFFFFFFFFFFFFFFFFFFFFFFFFF AND SWAP1 POP DUP2 PUSH1 0x0 DUP1 PUSH2 0x100 EXP DUP2 SLOAD DUP2 PUSH20 0xFFFFFFFFFFFFFFFFFFFFFFFFFFFFFFFFFFFFFFFF MUL NOT AND SWAP1 DUP4 PUSH20 0xFFFFFFFFFFFFFFFFFFFFFFFFFFFFFFFFFFFFFFFF AND MUL OR SWAP1 SSTORE POP DUP2 PUSH20 0xFFFFFFFFFFFFFFFFFFFFFFFFFFFFFFFFFFFFFFFF AND DUP2 PUSH20 0xFFFFFFFFFFFFFFFFFFFFFFFFFFFFFFFFFFFFFFFF AND PUSH32 0x8BE0079C531659141344CD1FD0A4F28419497F9722A3DAAFE3B4186F6B6457E0 PUSH1 0x40 MLOAD PUSH1 0x40 MLOAD DUP1 SWAP2 SUB SWAP1 LOG3 POP POP JUMP JUMPDEST PUSH1 0x0 CALLER SWAP1 POP SWAP1 JUMP JUMPDEST PUSH1 0x0 DUP1 REVERT JUMPDEST PUSH1 0x0 DUP1 REVERT JUMPDEST PUSH1 0x0 PUSH20 0xFFFFFFFFFFFFFFFFFFFFFFFFFFFFFFFFFFFFFFFF DUP3 AND SWAP1 POP SWAP2 SWAP1 POP JUMP JUMPDEST PUSH1 0x0 PUSH2 0x8BC DUP3 PUSH2 0x891 JUMP JUMPDEST SWAP1 POP SWAP2 SWAP1 POP JUMP JUMPDEST PUSH2 0x8CC DUP2 PUSH2 0x8B1 JUMP JUMPDEST DUP2 EQ PUSH2 0x8D7 JUMPI PUSH1 0x0 DUP1 REVERT JUMPDEST POP JUMP JUMPDEST PUSH1 0x0 DUP2 CALLDATALOAD SWAP1 POP PUSH2 0x8E9 DUP2 PUSH2 0x8C3 JUMP JUMPDEST SWAP3 SWAP2 POP POP JUMP JUMPDEST PUSH1 0x0 PUSH1 0x20 DUP3 DUP5 SUB SLT ISZERO PUSH2 0x905 JUMPI PUSH2 0x904 PUSH2 0x887 JUMP JUMPDEST JUMPDEST PUSH1 0x0 PUSH2 0x913 DUP5 DUP3 DUP6 ADD PUSH2 0x8DA JUMP JUMPDEST SWAP2 POP POP SWAP3 SWAP2 POP POP JUMP JUMPDEST PUSH1 0x0 DUP2 SWAP1 POP SWAP2 SWAP1 POP JUMP JUMPDEST PUSH2 0x92F DUP2 PUSH2 0x91C JUMP JUMPDEST DUP3 MSTORE POP POP JUMP JUMPDEST PUSH1 0x0 PUSH1 0x60 DUP3 ADD SWAP1 POP PUSH2 0x94A PUSH1 0x0 DUP4 ADD DUP7 PUSH2 0x926 JUMP JUMPDEST PUSH2 0x957 PUSH1 0x20 DUP4 ADD DUP6 PUSH2 0x926 JUMP JUMPDEST PUSH2 0x964 PUSH1 0x40 DUP4 ADD DUP5 PUSH2 0x926 JUMP JUMPDEST SWAP5 SWAP4 POP POP POP POP JUMP JUMPDEST PUSH1 0x0 PUSH1 0x20 DUP3 ADD SWAP1 POP PUSH2 0x981 PUSH1 0x0 DUP4 ADD DUP5 PUSH2 0x926 JUMP JUMPDEST SWAP3 SWAP2 POP POP JUMP JUMPDEST PUSH2 0x990 DUP2 PUSH2 0x91C JUMP JUMPDEST DUP2 EQ PUSH2 0x99B JUMPI PUSH1 0x0 DUP1 REVERT JUMPDEST POP JUMP JUMPDEST PUSH1 0x0 DUP2 CALLDATALOAD SWAP1 POP PUSH2 0x9AD DUP2 PUSH2 0x987 JUMP JUMPDEST SWAP3 SWAP2 POP POP JUMP JUMPDEST PUSH1 0x0 DUP1 PUSH1 0x40 DUP4 DUP6 SUB SLT ISZERO PUSH2 0x9CA JUMPI PUSH2 0x9C9 PUSH2 0x887 JUMP JUMPDEST JUMPDEST PUSH1 0x0 PUSH2 0x9D8 DUP6 DUP3 DUP7 ADD PUSH2 0x99E JUMP JUMPDEST SWAP3 POP POP PUSH1 0x20 PUSH2 0x9E9 DUP6 DUP3 DUP7 ADD PUSH2 0x99E JUMP JUMPDEST SWAP2 POP POP SWAP3 POP SWAP3 SWAP1 POP JUMP JUMPDEST PUSH2 0x9FC DUP2 PUSH2 0x8B1 JUMP JUMPDEST DUP3 MSTORE POP POP JUMP JUMPDEST PUSH1 0x0 PUSH1 0x20 DUP3 ADD SWAP1 POP PUSH2 0xA17 PUSH1 0x0 DUP4 ADD DUP5 PUSH2 0x9F3 JUMP JUMPDEST SWAP3 SWAP2 POP POP JUMP JUMPDEST PUSH1 0x0 DUP2 SWAP1 POP SWAP2 SWAP1 POP JUMP JUMPDEST PUSH1 0x0 PUSH2 0xA42 PUSH2 0xA3D PUSH2 0xA38 DUP5 PUSH2 0x891 JUMP JUMPDEST PUSH2 0xA1D JUMP JUMPDEST PUSH2 0x891 JUMP JUMPDEST SWAP1 POP SWAP2 SWAP1 POP JUMP JUMPDEST PUSH1 0x0 PUSH2 0xA54 DUP3 PUSH2 0xA27 JUMP JUMPDEST SWAP1 POP SWAP2 SWAP1 POP JUMP JUMPDEST PUSH1 0x0 PUSH2 0xA66 DUP3 PUSH2 0xA49 JUMP JUMPDEST SWAP1 POP SWAP2 SWAP1 POP JUMP JUMPDEST PUSH2 0xA76 DUP2 PUSH2 0xA5B JUMP JUMPDEST DUP3 MSTORE POP POP JUMP JUMPDEST PUSH1 0x0 PUSH1 0x20 DUP3 ADD SWAP1 POP PUSH2 0xA91 PUSH1 0x0 DUP4 ADD DUP5 PUSH2 0xA6D JUMP JUMPDEST SWAP3 SWAP2 POP POP JUMP JUMPDEST PUSH1 0x0 DUP1 REVERT JUMPDEST PUSH1 0x0 DUP1 REVERT JUMPDEST PUSH1 0x0 DUP1 REVERT JUMPDEST PUSH1 0x0 DUP1 DUP4 PUSH1 0x1F DUP5 ADD SLT PUSH2 0xABC JUMPI PUSH2 0xABB PUSH2 0xA97 JUMP JUMPDEST JUMPDEST DUP3 CALLDATALOAD SWAP1 POP PUSH8 0xFFFFFFFFFFFFFFFF DUP2 GT ISZERO PUSH2 0xAD9 JUMPI PUSH2 0xAD8 PUSH2 0xA9C JUMP JUMPDEST JUMPDEST PUSH1 0x20 DUP4 ADD SWAP2 POP DUP4 PUSH1 0x1 DUP3 MUL DUP4 ADD GT ISZERO PUSH2 0xAF5 JUMPI PUSH2 0xAF4 PUSH2 0xAA1 JUMP JUMPDEST JUMPDEST SWAP3 POP SWAP3 SWAP1 POP JUMP JUMPDEST PUSH1 0x0 DUP1 PUSH1 0x0 DUP1 PUSH1 0x0 DUP1 PUSH1 0xA0 DUP8 DUP10 SUB SLT ISZERO PUSH2 0xB19 JUMPI PUSH2 0xB18 PUSH2 0x887 JUMP JUMPDEST JUMPDEST PUSH1 0x0 PUSH2 0xB27 DUP10 DUP3 DUP11 ADD PUSH2 0x8DA JUMP JUMPDEST SWAP7 POP POP PUSH1 0x20 PUSH2 0xB38 DUP10 DUP3 DUP11 ADD PUSH2 0x8DA JUMP JUMPDEST SWAP6 POP POP PUSH1 0x40 PUSH2 0xB49 DUP10 DUP3 DUP11 ADD PUSH2 0x99E JUMP JUMPDEST SWAP5 POP POP PUSH1 0x60 PUSH2 0xB5A DUP10 DUP3 DUP11 ADD PUSH2 0x99E JUMP JUMPDEST SWAP4 POP POP PUSH1 0x80 DUP8 ADD CALLDATALOAD PUSH8 0xFFFFFFFFFFFFFFFF DUP2 GT ISZERO PUSH2 0xB7B JUMPI PUSH2 0xB7A PUSH2 0x88C JUMP JUMPDEST JUMPDEST PUSH2 0xB87 DUP10 DUP3 DUP11 ADD PUSH2 0xAA6 JUMP JUMPDEST SWAP3 POP SWAP3 POP POP SWAP3 SWAP6 POP SWAP3 SWAP6 POP SWAP3 SWAP6 JUMP JUMPDEST PUSH1 0x0 PUSH32 0xFFFFFFFF00000000000000000000000000000000000000000000000000000000 DUP3 AND SWAP1 POP SWAP2 SWAP1 POP JUMP JUMPDEST PUSH2 0xBCB DUP2 PUSH2 0xB96 JUMP JUMPDEST DUP3 MSTORE POP POP JUMP JUMPDEST PUSH1 0x0 PUSH1 0x20 DUP3 ADD SWAP1 POP PUSH2 0xBE6 PUSH1 0x0 DUP4 ADD DUP5 PUSH2 0xBC2 JUMP JUMPDEST SWAP3 SWAP2 POP POP JUMP JUMPDEST PUSH1 0x0 DUP3 DUP3 MSTORE PUSH1 0x20 DUP3 ADD SWAP1 POP SWAP3 SWAP2 POP POP JUMP JUMPDEST PUSH32 0x3078303000000000000000000000000000000000000000000000000000000000 PUSH1 0x0 DUP3 ADD MSTORE POP JUMP JUMPDEST PUSH1 0x0 PUSH2 0xC33 PUSH1 0x4 DUP4 PUSH2 0xBEC JUMP JUMPDEST SWAP2 POP PUSH2 0xC3E DUP3 PUSH2 0xBFD JUMP JUMPDEST PUSH1 0x20 DUP3 ADD SWAP1 POP SWAP2 SWAP1 POP JUMP JUMPDEST PUSH1 0x0 PUSH1 0xA0 DUP3 ADD SWAP1 POP PUSH2 0xC5E PUSH1 0x0 DUP4 ADD DUP8 PUSH2 0x9F3 JUMP JUMPDEST PUSH2 0xC6B PUSH1 0x20 DUP4 ADD DUP7 PUSH2 0x9F3 JUMP JUMPDEST PUSH2 0xC78 PUSH1 0x40 DUP4 ADD DUP6 PUSH2 0x926 JUMP JUMPDEST PUSH2 0xC85 PUSH1 0x60 DUP4 ADD DUP5 PUSH2 0x926 JUMP JUMPDEST DUP2 DUP2 SUB PUSH1 0x80 DUP4 ADD MSTORE PUSH2 0xC96 DUP2 PUSH2 0xC26 JUMP JUMPDEST SWAP1 POP SWAP6 SWAP5 POP POP POP POP POP JUMP JUMPDEST PUSH32 0x4E487B7100000000000000000000000000000000000000000000000000000000 PUSH1 0x0 MSTORE PUSH1 0x11 PUSH1 0x4 MSTORE PUSH1 0x24 PUSH1 0x0 REVERT JUMPDEST PUSH1 0x0 PUSH2 0xCDB DUP3 PUSH2 0x91C JUMP JUMPDEST SWAP2 POP PUSH2 0xCE6 DUP4 PUSH2 0x91C JUMP JUMPDEST SWAP3 POP DUP3 DUP3 SUB SWAP1 POP DUP2 DUP2 GT ISZERO PUSH2 0xCFE JUMPI PUSH2 0xCFD PUSH2 0xCA1 JUMP JUMPDEST JUMPDEST SWAP3 SWAP2 POP POP JUMP JUMPDEST PUSH1 0x0 PUSH2 0xD0F DUP3 PUSH2 0x91C JUMP JUMPDEST SWAP2 POP PUSH2 0xD1A DUP4 PUSH2 0x91C JUMP JUMPDEST SWAP3 POP DUP3 DUP3 ADD SWAP1 POP DUP1 DUP3 GT ISZERO PUSH2 0xD32 JUMPI PUSH2 0xD31 PUSH2 0xCA1 JUMP JUMPDEST JUMPDEST SWAP3 SWAP2 POP POP JUMP JUMPDEST PUSH1 0x0 DUP3 DUP3 MSTORE PUSH1 0x20 DUP3 ADD SWAP1 POP SWAP3 SWAP2 POP POP JUMP JUMPDEST PUSH32 0x4F776E61626C653A206E6577206F776E657220697320746865207A65726F2061 PUSH1 0x0 DUP3 ADD MSTORE PUSH32 0x6464726573730000000000000000000000000000000000000000000000000000 PUSH1 0x20 DUP3 ADD MSTORE POP JUMP JUMPDEST PUSH1 0x0 PUSH2 0xDA5 PUSH1 0x26 DUP4 PUSH2 0xD38 JUMP JUMPDEST SWAP2 POP PUSH2 0xDB0 DUP3 PUSH2 0xD49 JUMP JUMPDEST PUSH1 0x40 DUP3 ADD SWAP1 POP SWAP2 SWAP1 POP JUMP JUMPDEST PUSH1 0x0 PUSH1 0x20 DUP3 ADD SWAP1 POP DUP2 DUP2 SUB PUSH1 0x0 DUP4 ADD MSTORE PUSH2 0xDD4 DUP2 PUSH2 0xD98 JUMP JUMPDEST SWAP1 POP SWAP2 SWAP1 POP JUMP JUMPDEST PUSH32 0x4F776E61626C653A2063616C6C6572206973206E6F7420746865206F776E6572 PUSH1 0x0 DUP3 ADD MSTORE POP JUMP JUMPDEST PUSH1 0x0 PUSH2 0xE11 PUSH1 0x20 DUP4 PUSH2 0xD38 JUMP JUMPDEST SWAP2 POP PUSH2 0xE1C DUP3 PUSH2 0xDDB JUMP JUMPDEST PUSH1 0x20 DUP3 ADD SWAP1 POP SWAP2 SWAP1 POP JUMP JUMPDEST PUSH1 0x0 PUSH1 0x20 DUP3 ADD SWAP1 POP DUP2 DUP2 SUB PUSH1 0x0 DUP4 ADD MSTORE PUSH2 0xE40 DUP2 PUSH2 0xE04 JUMP JUMPDEST SWAP1 POP SWAP2 SWAP1 POP JUMP INVALID LOG2 PUSH5 0x6970667358 0x22 SLT KECCAK256 CALLER SWAP1 0xD9 DUP6 BYTE DUP13 DUP4 0xF7 PUSH29 0xF7FFD41C2A59FC2D254C003D3AD2337D1EFA45EBA95BC764736F6C6343 STOP ADDMOD GT STOP CALLER "
				},
				"gasEstimates": {
					"creation": {
						"codeDepositCost": "741800",
						"executionCost": "infinite",
						"totalCost": "infinite"
					},
					"external": {
						"onERC1155Received(address,address,uint256,uint256,bytes)": "infinite",
						"owner()": "2544",
						"parentNFT()": "infinite",
						"renounceOwnership()": "30487",
						"setGenerator(address)": "27031",
						"stake(uint256,uint256)": "infinite",
						"stakes(address)": "infinite",
						"stakingTime(address)": "2881",
						"transferOwnership(address)": "30832",
						"unstake()": "infinite"
					},
					"internal": {
						"getLuckyReward(address)": "infinite"
					}
				},
				"methodIdentifiers": {
					"onERC1155Received(address,address,uint256,uint256,bytes)": "f23a6e61",
					"owner()": "8da5cb5b",
					"parentNFT()": "b8e33fb2",
					"renounceOwnership()": "715018a6",
					"setGenerator(address)": "4a7c7e4b",
					"stake(uint256,uint256)": "7b0472f0",
					"stakes(address)": "16934fc4",
					"stakingTime(address)": "583d42fd",
					"transferOwnership(address)": "f2fde38b",
					"unstake()": "2def6620"
				}
			},
			"storageLayout": {
				"storage": [
					{
						"astId": 7,
						"contract": "contracts/NftDeployer.sol:NftStaker",
						"label": "_owner",
						"offset": 0,
						"slot": "0",
						"type": "t_address"
					},
					{
						"astId": 383,
						"contract": "contracts/NftDeployer.sol:NftStaker",
						"label": "parentNFT",
						"offset": 0,
						"slot": "1",
						"type": "t_contract(IERC1155)234"
					},
					{
						"astId": 385,
						"contract": "contracts/NftDeployer.sol:NftStaker",
						"label": "generatorAddr",
						"offset": 0,
						"slot": "2",
						"type": "t_address"
					},
					{
						"astId": 432,
						"contract": "contracts/NftDeployer.sol:NftStaker",
						"label": "stakes",
						"offset": 0,
						"slot": "3",
						"type": "t_mapping(t_address,t_struct(Stake)392_storage)"
					},
					{
						"astId": 436,
						"contract": "contracts/NftDeployer.sol:NftStaker",
						"label": "stakingTime",
						"offset": 0,
						"slot": "4",
						"type": "t_mapping(t_address,t_uint256)"
					}
				],
				"types": {
					"t_address": {
						"encoding": "inplace",
						"label": "address",
						"numberOfBytes": "20"
					},
					"t_contract(IERC1155)234": {
						"encoding": "inplace",
						"label": "contract IERC1155",
						"numberOfBytes": "20"
					},
					"t_mapping(t_address,t_struct(Stake)392_storage)": {
						"encoding": "mapping",
						"key": "t_address",
						"label": "mapping(address => struct NftStaker.Stake)",
						"numberOfBytes": "32",
						"value": "t_struct(Stake)392_storage"
					},
					"t_mapping(t_address,t_uint256)": {
						"encoding": "mapping",
						"key": "t_address",
						"label": "mapping(address => uint256)",
						"numberOfBytes": "32",
						"value": "t_uint256"
					},
					"t_struct(Stake)392_storage": {
						"encoding": "inplace",
						"label": "struct NftStaker.Stake",
						"members": [
							{
								"astId": 387,
								"contract": "contracts/NftDeployer.sol:NftStaker",
								"label": "tokenId",
								"offset": 0,
								"slot": "0",
								"type": "t_uint256"
							},
							{
								"astId": 389,
								"contract": "contracts/NftDeployer.sol:NftStaker",
								"label": "amount",
								"offset": 0,
								"slot": "1",
								"type": "t_uint256"
							},
							{
								"astId": 391,
								"contract": "contracts/NftDeployer.sol:NftStaker",
								"label": "timestamp",
								"offset": 0,
								"slot": "2",
								"type": "t_uint256"
							}
						],
						"numberOfBytes": "96"
					},
					"t_uint256": {
						"encoding": "inplace",
						"label": "uint256",
						"numberOfBytes": "32"
					}
				}
			},
			"userdoc": {
				"kind": "user",
				"methods": {},
				"version": 1
			}
		}
	}
}