{
	"contracts/NftStaker.sol": {
		"NftStaker": {
			"abi": [
				{
					"inputs": [],
					"stateMutability": "nonpayable",
					"type": "constructor"
				},
				{
					"inputs": [
						{
							"internalType": "address",
							"name": "user",
							"type": "address"
						}
					],
					"name": "balancesOf",
					"outputs": [
						{
							"internalType": "uint256",
							"name": "",
							"type": "uint256"
						}
					],
					"stateMutability": "view",
					"type": "function"
				},
				{
					"inputs": [
						{
							"internalType": "address",
							"name": "toUser",
							"type": "address"
						}
					],
					"name": "mint",
					"outputs": [],
					"stateMutability": "nonpayable",
					"type": "function"
				},
				{
					"inputs": [
						{
							"internalType": "address",
							"name": "operator",
							"type": "address"
						},
						{
							"internalType": "address",
							"name": "from",
							"type": "address"
						},
						{
							"internalType": "uint256",
							"name": "id",
							"type": "uint256"
						},
						{
							"internalType": "uint256",
							"name": "value",
							"type": "uint256"
						},
						{
							"internalType": "bytes",
							"name": "data",
							"type": "bytes"
						}
					],
					"name": "onERC1155Received",
					"outputs": [
						{
							"internalType": "bytes4",
							"name": "",
							"type": "bytes4"
						}
					],
					"stateMutability": "nonpayable",
					"type": "function"
				},
				{
					"inputs": [],
					"name": "parentNFT",
					"outputs": [
						{
							"internalType": "contract IERC1155",
							"name": "",
							"type": "address"
						}
					],
					"stateMutability": "view",
					"type": "function"
				},
				{
					"inputs": [
						{
							"internalType": "uint256",
							"name": "_tokenId",
							"type": "uint256"
						},
						{
							"internalType": "uint256",
							"name": "_amount",
							"type": "uint256"
						}
					],
					"name": "stake",
					"outputs": [],
					"stateMutability": "nonpayable",
					"type": "function"
				},
				{
					"inputs": [
						{
							"internalType": "address",
							"name": "",
							"type": "address"
						}
					],
					"name": "stakes",
					"outputs": [
						{
							"internalType": "uint256",
							"name": "tokenId",
							"type": "uint256"
						},
						{
							"internalType": "uint256",
							"name": "amount",
							"type": "uint256"
						},
						{
							"internalType": "uint256",
							"name": "timestamp",
							"type": "uint256"
						}
					],
					"stateMutability": "view",
					"type": "function"
				},
				{
					"inputs": [
						{
							"internalType": "address",
							"name": "",
							"type": "address"
						}
					],
					"name": "stakingTime",
					"outputs": [
						{
							"internalType": "uint256",
							"name": "",
							"type": "uint256"
						}
					],
					"stateMutability": "view",
					"type": "function"
				},
				{
					"inputs": [],
					"name": "unstake",
					"outputs": [],
					"stateMutability": "nonpayable",
					"type": "function"
				}
			],
			"devdoc": {
				"kind": "dev",
				"methods": {},
				"version": 1
			},
			"evm": {
				"assembly": "    /* \"contracts/NftStaker.sol\":209:1921  contract NftStaker {... */\n  mstore(0x40, 0x80)\n    /* \"contracts/NftStaker.sol\":567:690  constructor(){... */\n  callvalue\n  dup1\n  iszero\n  tag_1\n  jumpi\n  0x00\n  dup1\n  revert\ntag_1:\n  pop\n    /* \"contracts/NftStaker.sol\":597:607  msg.sender */\n  caller\n    /* \"contracts/NftStaker.sol\":591:596  owner */\n  0x01\n  0x00\n    /* \"contracts/NftStaker.sol\":591:607  owner=msg.sender */\n  0x0100\n  exp\n  dup2\n  sload\n  dup2\n  0xffffffffffffffffffffffffffffffffffffffff\n  mul\n  not\n  and\n  swap1\n  dup4\n  0xffffffffffffffffffffffffffffffffffffffff\n  and\n  mul\n  or\n  swap1\n  sstore\n  pop\n    /* \"contracts/NftStaker.sol\":639:681  0x18E819BC5a3882954B4B61E350b9Af49103aAd78 */\n  0x18e819bc5a3882954b4b61e350b9af49103aad78\n    /* \"contracts/NftStaker.sol\":618:627  parentNFT */\n  0x00\n  dup1\n    /* \"contracts/NftStaker.sol\":618:682  parentNFT = IERC1155(0x18E819BC5a3882954B4B61E350b9Af49103aAd78) */\n  0x0100\n  exp\n  dup2\n  sload\n  dup2\n  0xffffffffffffffffffffffffffffffffffffffff\n  mul\n  not\n  and\n  swap1\n  dup4\n  0xffffffffffffffffffffffffffffffffffffffff\n  and\n  mul\n  or\n  swap1\n  sstore\n  pop\n    /* \"contracts/NftStaker.sol\":209:1921  contract NftStaker {... */\n  dataSize(sub_0)\n  dup1\n  dataOffset(sub_0)\n  0x00\n  codecopy\n  0x00\n  return\nstop\n\nsub_0: assembly {\n        /* \"contracts/NftStaker.sol\":209:1921  contract NftStaker {... */\n      mstore(0x40, 0x80)\n      callvalue\n      dup1\n      iszero\n      tag_1\n      jumpi\n      0x00\n      dup1\n      revert\n    tag_1:\n      pop\n      jumpi(tag_2, lt(calldatasize, 0x04))\n      shr(0xe0, calldataload(0x00))\n      dup1\n      0x6a627842\n      gt\n      tag_11\n      jumpi\n      dup1\n      0x6a627842\n      eq\n      tag_7\n      jumpi\n      dup1\n      0x7b0472f0\n      eq\n      tag_8\n      jumpi\n      dup1\n      0xb8e33fb2\n      eq\n      tag_9\n      jumpi\n      dup1\n      0xf23a6e61\n      eq\n      tag_10\n      jumpi\n      jump(tag_2)\n    tag_11:\n      dup1\n      0x16934fc4\n      eq\n      tag_3\n      jumpi\n      dup1\n      0x2def6620\n      eq\n      tag_4\n      jumpi\n      dup1\n      0x583d42fd\n      eq\n      tag_5\n      jumpi\n      dup1\n      0x6392a51f\n      eq\n      tag_6\n      jumpi\n    tag_2:\n      0x00\n      dup1\n      revert\n        /* \"contracts/NftStaker.sol\":940:979  mapping(address => Stake) public stakes */\n    tag_3:\n      tag_12\n      0x04\n      dup1\n      calldatasize\n      sub\n      dup2\n      add\n      swap1\n      tag_13\n      swap2\n      swap1\n      tag_14\n      jump\t// in\n    tag_13:\n      tag_15\n      jump\t// in\n    tag_12:\n      mload(0x40)\n      tag_16\n      swap4\n      swap3\n      swap2\n      swap1\n      tag_17\n      jump\t// in\n    tag_16:\n      mload(0x40)\n      dup1\n      swap2\n      sub\n      swap1\n      return\n        /* \"contracts/NftStaker.sol\":1330:1613  function unstake() public {... */\n    tag_4:\n      tag_18\n      tag_19\n      jump\t// in\n    tag_18:\n      stop\n        /* \"contracts/NftStaker.sol\":1030:1076  mapping(address => uint256) public stakingTime */\n    tag_5:\n      tag_20\n      0x04\n      dup1\n      calldatasize\n      sub\n      dup2\n      add\n      swap1\n      tag_21\n      swap2\n      swap1\n      tag_14\n      jump\t// in\n    tag_21:\n      tag_22\n      jump\t// in\n    tag_20:\n      mload(0x40)\n      tag_23\n      swap2\n      swap1\n      tag_24\n      jump\t// in\n    tag_23:\n      mload(0x40)\n      dup1\n      swap2\n      sub\n      swap1\n      return\n        /* \"contracts/NftStaker.sol\":786:888  function balancesOf(address user) public view returns(uint256){... */\n    tag_6:\n      tag_25\n      0x04\n      dup1\n      calldatasize\n      sub\n      dup2\n      add\n      swap1\n      tag_26\n      swap2\n      swap1\n      tag_14\n      jump\t// in\n    tag_26:\n      tag_27\n      jump\t// in\n    tag_25:\n      mload(0x40)\n      tag_28\n      swap2\n      swap1\n      tag_24\n      jump\t// in\n    tag_28:\n      mload(0x40)\n      dup1\n      swap2\n      sub\n      swap1\n      return\n        /* \"contracts/NftStaker.sol\":698:780  function mint (address toUser) public isOwner{... */\n    tag_7:\n      tag_29\n      0x04\n      dup1\n      calldatasize\n      sub\n      dup2\n      add\n      swap1\n      tag_30\n      swap2\n      swap1\n      tag_14\n      jump\t// in\n    tag_30:\n      tag_31\n      jump\t// in\n    tag_29:\n      stop\n        /* \"contracts/NftStaker.sol\":1091:1321  function stake(uint256 _tokenId, uint256 _amount) public {... */\n    tag_8:\n      tag_32\n      0x04\n      dup1\n      calldatasize\n      sub\n      dup2\n      add\n      swap1\n      tag_33\n      swap2\n      swap1\n      tag_34\n      jump\t// in\n    tag_33:\n      tag_35\n      jump\t// in\n    tag_32:\n      stop\n        /* \"contracts/NftStaker.sol\":235:260  IERC1155 public parentNFT */\n    tag_9:\n      tag_36\n      tag_37\n      jump\t// in\n    tag_36:\n      mload(0x40)\n      tag_38\n      swap2\n      swap1\n      tag_39\n      jump\t// in\n    tag_38:\n      mload(0x40)\n      dup1\n      swap2\n      sub\n      swap1\n      return\n        /* \"contracts/NftStaker.sol\":1628:1916  function onERC1155Received(... */\n    tag_10:\n      tag_40\n      0x04\n      dup1\n      calldatasize\n      sub\n      dup2\n      add\n      swap1\n      tag_41\n      swap2\n      swap1\n      tag_42\n      jump\t// in\n    tag_41:\n      tag_43\n      jump\t// in\n    tag_40:\n      mload(0x40)\n      tag_44\n      swap2\n      swap1\n      tag_45\n      jump\t// in\n    tag_44:\n      mload(0x40)\n      dup1\n      swap2\n      sub\n      swap1\n      return\n        /* \"contracts/NftStaker.sol\":940:979  mapping(address => Stake) public stakes */\n    tag_15:\n      mstore(0x20, 0x03)\n      dup1\n      0x00\n      mstore\n      keccak256(0x00, 0x40)\n      0x00\n      swap2\n      pop\n      swap1\n      pop\n      dup1\n      0x00\n      add\n      sload\n      swap1\n      dup1\n      0x01\n      add\n      sload\n      swap1\n      dup1\n      0x02\n      add\n      sload\n      swap1\n      pop\n      dup4\n      jump\t// out\n        /* \"contracts/NftStaker.sol\":1330:1613  function unstake() public {... */\n    tag_19:\n        /* \"contracts/NftStaker.sol\":1367:1376  parentNFT */\n      0x00\n      dup1\n      sload\n      swap1\n      0x0100\n      exp\n      swap1\n      div\n      0xffffffffffffffffffffffffffffffffffffffff\n      and\n        /* \"contracts/NftStaker.sol\":1367:1393  parentNFT.safeTransferFrom */\n      0xffffffffffffffffffffffffffffffffffffffff\n      and\n      0xf242432a\n        /* \"contracts/NftStaker.sol\":1402:1406  this */\n      address\n        /* \"contracts/NftStaker.sol\":1409:1419  msg.sender */\n      caller\n        /* \"contracts/NftStaker.sol\":1421:1427  stakes */\n      0x03\n        /* \"contracts/NftStaker.sol\":1421:1439  stakes[msg.sender] */\n      0x00\n        /* \"contracts/NftStaker.sol\":1428:1438  msg.sender */\n      caller\n        /* \"contracts/NftStaker.sol\":1421:1439  stakes[msg.sender] */\n      0xffffffffffffffffffffffffffffffffffffffff\n      and\n      0xffffffffffffffffffffffffffffffffffffffff\n      and\n      dup2\n      mstore\n      0x20\n      add\n      swap1\n      dup2\n      mstore\n      0x20\n      add\n      0x00\n      keccak256\n        /* \"contracts/NftStaker.sol\":1421:1447  stakes[msg.sender].tokenId */\n      0x00\n      add\n      sload\n        /* \"contracts/NftStaker.sol\":1449:1455  stakes */\n      0x03\n        /* \"contracts/NftStaker.sol\":1449:1467  stakes[msg.sender] */\n      0x00\n        /* \"contracts/NftStaker.sol\":1456:1466  msg.sender */\n      caller\n        /* \"contracts/NftStaker.sol\":1449:1467  stakes[msg.sender] */\n      0xffffffffffffffffffffffffffffffffffffffff\n      and\n      0xffffffffffffffffffffffffffffffffffffffff\n      and\n      dup2\n      mstore\n      0x20\n      add\n      swap1\n      dup2\n      mstore\n      0x20\n      add\n      0x00\n      keccak256\n        /* \"contracts/NftStaker.sol\":1449:1474  stakes[msg.sender].amount */\n      0x01\n      add\n      sload\n        /* \"contracts/NftStaker.sol\":1367:1483  parentNFT.safeTransferFrom(address(this), msg.sender, stakes[msg.sender].tokenId, stakes[msg.sender].amount, \"0x00\") */\n      mload(0x40)\n      dup6\n      0xffffffff\n      and\n      0xe0\n      shl\n      dup2\n      mstore\n      0x04\n      add\n      tag_47\n      swap5\n      swap4\n      swap3\n      swap2\n      swap1\n      tag_48\n      jump\t// in\n    tag_47:\n      0x00\n      mload(0x40)\n      dup1\n      dup4\n      sub\n      dup2\n      0x00\n      dup8\n      dup1\n      extcodesize\n      iszero\n      dup1\n      iszero\n      tag_49\n      jumpi\n      0x00\n      dup1\n      revert\n    tag_49:\n      pop\n      gas\n      call\n      iszero\n      dup1\n      iszero\n      tag_51\n      jumpi\n      returndatasize\n      0x00\n      dup1\n      returndatacopy\n      revert(0x00, returndatasize)\n    tag_51:\n      pop\n      pop\n      pop\n      pop\n        /* \"contracts/NftStaker.sol\":1540:1546  stakes */\n      0x03\n        /* \"contracts/NftStaker.sol\":1540:1558  stakes[msg.sender] */\n      0x00\n        /* \"contracts/NftStaker.sol\":1547:1557  msg.sender */\n      caller\n        /* \"contracts/NftStaker.sol\":1540:1558  stakes[msg.sender] */\n      0xffffffffffffffffffffffffffffffffffffffff\n      and\n      0xffffffffffffffffffffffffffffffffffffffff\n      and\n      dup2\n      mstore\n      0x20\n      add\n      swap1\n      dup2\n      mstore\n      0x20\n      add\n      0x00\n      keccak256\n        /* \"contracts/NftStaker.sol\":1540:1568  stakes[msg.sender].timestamp */\n      0x02\n      add\n      sload\n        /* \"contracts/NftStaker.sol\":1522:1537  block.timestamp */\n      timestamp\n        /* \"contracts/NftStaker.sol\":1522:1568  block.timestamp - stakes[msg.sender].timestamp */\n      tag_52\n      swap2\n      swap1\n      tag_53\n      jump\t// in\n    tag_52:\n        /* \"contracts/NftStaker.sol\":1494:1505  stakingTime */\n      0x04\n        /* \"contracts/NftStaker.sol\":1494:1517  stakingTime[msg.sender] */\n      0x00\n        /* \"contracts/NftStaker.sol\":1506:1516  msg.sender */\n      caller\n        /* \"contracts/NftStaker.sol\":1494:1517  stakingTime[msg.sender] */\n      0xffffffffffffffffffffffffffffffffffffffff\n      and\n      0xffffffffffffffffffffffffffffffffffffffff\n      and\n      dup2\n      mstore\n      0x20\n      add\n      swap1\n      dup2\n      mstore\n      0x20\n      add\n      0x00\n      keccak256\n      0x00\n        /* \"contracts/NftStaker.sol\":1494:1569  stakingTime[msg.sender] += (block.timestamp - stakes[msg.sender].timestamp) */\n      dup3\n      dup3\n      sload\n      tag_54\n      swap2\n      swap1\n      tag_55\n      jump\t// in\n    tag_54:\n      swap3\n      pop\n      pop\n      dup2\n      swap1\n      sstore\n      pop\n        /* \"contracts/NftStaker.sol\":1587:1593  stakes */\n      0x03\n        /* \"contracts/NftStaker.sol\":1587:1605  stakes[msg.sender] */\n      0x00\n        /* \"contracts/NftStaker.sol\":1594:1604  msg.sender */\n      caller\n        /* \"contracts/NftStaker.sol\":1587:1605  stakes[msg.sender] */\n      0xffffffffffffffffffffffffffffffffffffffff\n      and\n      0xffffffffffffffffffffffffffffffffffffffff\n      and\n      dup2\n      mstore\n      0x20\n      add\n      swap1\n      dup2\n      mstore\n      0x20\n      add\n      0x00\n      keccak256\n      0x00\n        /* \"contracts/NftStaker.sol\":1580:1605  delete stakes[msg.sender] */\n      dup1\n      dup3\n      add\n      0x00\n      swap1\n      sstore\n      0x01\n      dup3\n      add\n      0x00\n      swap1\n      sstore\n      0x02\n      dup3\n      add\n      0x00\n      swap1\n      sstore\n      pop\n      pop\n        /* \"contracts/NftStaker.sol\":1330:1613  function unstake() public {... */\n      jump\t// out\n        /* \"contracts/NftStaker.sol\":1030:1076  mapping(address => uint256) public stakingTime */\n    tag_22:\n      mstore(0x20, 0x04)\n      dup1\n      0x00\n      mstore\n      keccak256(0x00, 0x40)\n      0x00\n      swap2\n      pop\n      swap1\n      pop\n      sload\n      dup2\n      jump\t// out\n        /* \"contracts/NftStaker.sol\":786:888  function balancesOf(address user) public view returns(uint256){... */\n    tag_27:\n        /* \"contracts/NftStaker.sol\":840:847  uint256 */\n      0x00\n        /* \"contracts/NftStaker.sol\":866:874  balances */\n      0x02\n        /* \"contracts/NftStaker.sol\":866:880  balances[user] */\n      0x00\n        /* \"contracts/NftStaker.sol\":875:879  user */\n      dup4\n        /* \"contracts/NftStaker.sol\":866:880  balances[user] */\n      0xffffffffffffffffffffffffffffffffffffffff\n      and\n      0xffffffffffffffffffffffffffffffffffffffff\n      and\n      dup2\n      mstore\n      0x20\n      add\n      swap1\n      dup2\n      mstore\n      0x20\n      add\n      0x00\n      keccak256\n      sload\n        /* \"contracts/NftStaker.sol\":859:880  return balances[user] */\n      swap1\n      pop\n        /* \"contracts/NftStaker.sol\":786:888  function balancesOf(address user) public view returns(uint256){... */\n      swap2\n      swap1\n      pop\n      jump\t// out\n        /* \"contracts/NftStaker.sol\":698:780  function mint (address toUser) public isOwner{... */\n    tag_31:\n        /* \"contracts/NftStaker.sol\":510:515  owner */\n      0x01\n      0x00\n      swap1\n      sload\n      swap1\n      0x0100\n      exp\n      swap1\n      div\n      0xffffffffffffffffffffffffffffffffffffffff\n      and\n        /* \"contracts/NftStaker.sol\":496:515  msg.sender == owner */\n      0xffffffffffffffffffffffffffffffffffffffff\n      and\n        /* \"contracts/NftStaker.sol\":496:506  msg.sender */\n      caller\n        /* \"contracts/NftStaker.sol\":496:515  msg.sender == owner */\n      0xffffffffffffffffffffffffffffffffffffffff\n      and\n      eq\n        /* \"contracts/NftStaker.sol\":488:539  require(msg.sender == owner, \"Caller is not owner\") */\n      tag_58\n      jumpi\n      mload(0x40)\n      0x08c379a000000000000000000000000000000000000000000000000000000000\n      dup2\n      mstore\n      0x04\n      add\n      tag_59\n      swap1\n      tag_60\n      jump\t// in\n    tag_59:\n      mload(0x40)\n      dup1\n      swap2\n      sub\n      swap1\n      revert\n    tag_58:\n        /* \"contracts/NftStaker.sol\":754:762  balances */\n      0x02\n        /* \"contracts/NftStaker.sol\":754:770  balances[toUser] */\n      0x00\n        /* \"contracts/NftStaker.sol\":763:769  toUser */\n      dup3\n        /* \"contracts/NftStaker.sol\":754:770  balances[toUser] */\n      0xffffffffffffffffffffffffffffffffffffffff\n      and\n      0xffffffffffffffffffffffffffffffffffffffff\n      and\n      dup2\n      mstore\n      0x20\n      add\n      swap1\n      dup2\n      mstore\n      0x20\n      add\n      0x00\n      keccak256\n      0x00\n        /* \"contracts/NftStaker.sol\":754:772  balances[toUser]++ */\n      dup2\n      sload\n      dup1\n      swap3\n      swap2\n      swap1\n      tag_62\n      swap1\n      tag_63\n      jump\t// in\n    tag_62:\n      swap2\n      swap1\n      pop\n      sstore\n      pop\n        /* \"contracts/NftStaker.sol\":698:780  function mint (address toUser) public isOwner{... */\n      pop\n      jump\t// out\n        /* \"contracts/NftStaker.sol\":1091:1321  function stake(uint256 _tokenId, uint256 _amount) public {... */\n    tag_35:\n        /* \"contracts/NftStaker.sol\":1180:1221  Stake(_tokenId, _amount, block.timestamp) */\n      mload(0x40)\n      dup1\n      0x60\n      add\n      0x40\n      mstore\n      dup1\n        /* \"contracts/NftStaker.sol\":1186:1194  _tokenId */\n      dup4\n        /* \"contracts/NftStaker.sol\":1180:1221  Stake(_tokenId, _amount, block.timestamp) */\n      dup2\n      mstore\n      0x20\n      add\n        /* \"contracts/NftStaker.sol\":1196:1203  _amount */\n      dup3\n        /* \"contracts/NftStaker.sol\":1180:1221  Stake(_tokenId, _amount, block.timestamp) */\n      dup2\n      mstore\n      0x20\n      add\n        /* \"contracts/NftStaker.sol\":1205:1220  block.timestamp */\n      timestamp\n        /* \"contracts/NftStaker.sol\":1180:1221  Stake(_tokenId, _amount, block.timestamp) */\n      dup2\n      mstore\n      pop\n        /* \"contracts/NftStaker.sol\":1159:1165  stakes */\n      0x03\n        /* \"contracts/NftStaker.sol\":1159:1177  stakes[msg.sender] */\n      0x00\n        /* \"contracts/NftStaker.sol\":1166:1176  msg.sender */\n      caller\n        /* \"contracts/NftStaker.sol\":1159:1177  stakes[msg.sender] */\n      0xffffffffffffffffffffffffffffffffffffffff\n      and\n      0xffffffffffffffffffffffffffffffffffffffff\n      and\n      dup2\n      mstore\n      0x20\n      add\n      swap1\n      dup2\n      mstore\n      0x20\n      add\n      0x00\n      keccak256\n        /* \"contracts/NftStaker.sol\":1159:1221  stakes[msg.sender] = Stake(_tokenId, _amount, block.timestamp) */\n      0x00\n      dup3\n      add\n      mload\n      dup2\n      0x00\n      add\n      sstore\n      0x20\n      dup3\n      add\n      mload\n      dup2\n      0x01\n      add\n      sstore\n      0x40\n      dup3\n      add\n      mload\n      dup2\n      0x02\n      add\n      sstore\n      swap1\n      pop\n      pop\n        /* \"contracts/NftStaker.sol\":1233:1242  parentNFT */\n      0x00\n      dup1\n      sload\n      swap1\n      0x0100\n      exp\n      swap1\n      div\n      0xffffffffffffffffffffffffffffffffffffffff\n      and\n        /* \"contracts/NftStaker.sol\":1233:1259  parentNFT.safeTransferFrom */\n      0xffffffffffffffffffffffffffffffffffffffff\n      and\n      0xf242432a\n        /* \"contracts/NftStaker.sol\":1260:1270  msg.sender */\n      caller\n        /* \"contracts/NftStaker.sol\":1280:1284  this */\n      address\n        /* \"contracts/NftStaker.sol\":1287:1295  _tokenId */\n      dup6\n        /* \"contracts/NftStaker.sol\":1297:1304  _amount */\n      dup6\n        /* \"contracts/NftStaker.sol\":1233:1313  parentNFT.safeTransferFrom(msg.sender, address(this), _tokenId, _amount, \"0x00\") */\n      mload(0x40)\n      dup6\n      0xffffffff\n      and\n      0xe0\n      shl\n      dup2\n      mstore\n      0x04\n      add\n      tag_65\n      swap5\n      swap4\n      swap3\n      swap2\n      swap1\n      tag_48\n      jump\t// in\n    tag_65:\n      0x00\n      mload(0x40)\n      dup1\n      dup4\n      sub\n      dup2\n      0x00\n      dup8\n      dup1\n      extcodesize\n      iszero\n      dup1\n      iszero\n      tag_66\n      jumpi\n      0x00\n      dup1\n      revert\n    tag_66:\n      pop\n      gas\n      call\n      iszero\n      dup1\n      iszero\n      tag_68\n      jumpi\n      returndatasize\n      0x00\n      dup1\n      returndatacopy\n      revert(0x00, returndatasize)\n    tag_68:\n      pop\n      pop\n      pop\n      pop\n        /* \"contracts/NftStaker.sol\":1091:1321  function stake(uint256 _tokenId, uint256 _amount) public {... */\n      pop\n      pop\n      jump\t// out\n        /* \"contracts/NftStaker.sol\":235:260  IERC1155 public parentNFT */\n    tag_37:\n      0x00\n      dup1\n      sload\n      swap1\n      0x0100\n      exp\n      swap1\n      div\n      0xffffffffffffffffffffffffffffffffffffffff\n      and\n      dup2\n      jump\t// out\n        /* \"contracts/NftStaker.sol\":1628:1916  function onERC1155Received(... */\n    tag_43:\n        /* \"contracts/NftStaker.sol\":1805:1811  bytes4 */\n      0x00\n        /* \"contracts/NftStaker.sol\":1838:1907  keccak256(\"onERC1155Received(address,address,uint256,uint256,bytes)\") */\n      0xf23a6e612e1ff4830e658fe43f4e3cb4a5f8170bd5d9e69fb5d7a7fa9e4fdf97\n        /* \"contracts/NftStaker.sol\":1824:1908  return bytes4(keccak256(\"onERC1155Received(address,address,uint256,uint256,bytes)\")) */\n      swap1\n      pop\n        /* \"contracts/NftStaker.sol\":1628:1916  function onERC1155Received(... */\n      swap7\n      swap6\n      pop\n      pop\n      pop\n      pop\n      pop\n      pop\n      jump\t// out\n        /* \"#utility.yul\":88:205   */\n    tag_71:\n        /* \"#utility.yul\":197:198   */\n      0x00\n        /* \"#utility.yul\":194:195   */\n      dup1\n        /* \"#utility.yul\":187:199   */\n      revert\n        /* \"#utility.yul\":211:328   */\n    tag_72:\n        /* \"#utility.yul\":320:321   */\n      0x00\n        /* \"#utility.yul\":317:318   */\n      dup1\n        /* \"#utility.yul\":310:322   */\n      revert\n        /* \"#utility.yul\":334:460   */\n    tag_73:\n        /* \"#utility.yul\":371:378   */\n      0x00\n        /* \"#utility.yul\":411:453   */\n      0xffffffffffffffffffffffffffffffffffffffff\n        /* \"#utility.yul\":404:409   */\n      dup3\n        /* \"#utility.yul\":400:454   */\n      and\n        /* \"#utility.yul\":389:454   */\n      swap1\n      pop\n        /* \"#utility.yul\":334:460   */\n      swap2\n      swap1\n      pop\n      jump\t// out\n        /* \"#utility.yul\":466:562   */\n    tag_74:\n        /* \"#utility.yul\":503:510   */\n      0x00\n        /* \"#utility.yul\":532:556   */\n      tag_106\n        /* \"#utility.yul\":550:555   */\n      dup3\n        /* \"#utility.yul\":532:556   */\n      tag_73\n      jump\t// in\n    tag_106:\n        /* \"#utility.yul\":521:556   */\n      swap1\n      pop\n        /* \"#utility.yul\":466:562   */\n      swap2\n      swap1\n      pop\n      jump\t// out\n        /* \"#utility.yul\":568:690   */\n    tag_75:\n        /* \"#utility.yul\":641:665   */\n      tag_108\n        /* \"#utility.yul\":659:664   */\n      dup2\n        /* \"#utility.yul\":641:665   */\n      tag_74\n      jump\t// in\n    tag_108:\n        /* \"#utility.yul\":634:639   */\n      dup2\n        /* \"#utility.yul\":631:666   */\n      eq\n        /* \"#utility.yul\":621:684   */\n      tag_109\n      jumpi\n        /* \"#utility.yul\":680:681   */\n      0x00\n        /* \"#utility.yul\":677:678   */\n      dup1\n        /* \"#utility.yul\":670:682   */\n      revert\n        /* \"#utility.yul\":621:684   */\n    tag_109:\n        /* \"#utility.yul\":568:690   */\n      pop\n      jump\t// out\n        /* \"#utility.yul\":696:835   */\n    tag_76:\n        /* \"#utility.yul\":742:747   */\n      0x00\n        /* \"#utility.yul\":780:786   */\n      dup2\n        /* \"#utility.yul\":767:787   */\n      calldataload\n        /* \"#utility.yul\":758:787   */\n      swap1\n      pop\n        /* \"#utility.yul\":796:829   */\n      tag_111\n        /* \"#utility.yul\":823:828   */\n      dup2\n        /* \"#utility.yul\":796:829   */\n      tag_75\n      jump\t// in\n    tag_111:\n        /* \"#utility.yul\":696:835   */\n      swap3\n      swap2\n      pop\n      pop\n      jump\t// out\n        /* \"#utility.yul\":841:1170   */\n    tag_14:\n        /* \"#utility.yul\":900:906   */\n      0x00\n        /* \"#utility.yul\":949:951   */\n      0x20\n        /* \"#utility.yul\":937:946   */\n      dup3\n        /* \"#utility.yul\":928:935   */\n      dup5\n        /* \"#utility.yul\":924:947   */\n      sub\n        /* \"#utility.yul\":920:952   */\n      slt\n        /* \"#utility.yul\":917:1036   */\n      iszero\n      tag_113\n      jumpi\n        /* \"#utility.yul\":955:1034   */\n      tag_114\n      tag_71\n      jump\t// in\n    tag_114:\n        /* \"#utility.yul\":917:1036   */\n    tag_113:\n        /* \"#utility.yul\":1075:1076   */\n      0x00\n        /* \"#utility.yul\":1100:1153   */\n      tag_115\n        /* \"#utility.yul\":1145:1152   */\n      dup5\n        /* \"#utility.yul\":1136:1142   */\n      dup3\n        /* \"#utility.yul\":1125:1134   */\n      dup6\n        /* \"#utility.yul\":1121:1143   */\n      add\n        /* \"#utility.yul\":1100:1153   */\n      tag_76\n      jump\t// in\n    tag_115:\n        /* \"#utility.yul\":1090:1153   */\n      swap2\n      pop\n        /* \"#utility.yul\":1046:1163   */\n      pop\n        /* \"#utility.yul\":841:1170   */\n      swap3\n      swap2\n      pop\n      pop\n      jump\t// out\n        /* \"#utility.yul\":1176:1253   */\n    tag_77:\n        /* \"#utility.yul\":1213:1220   */\n      0x00\n        /* \"#utility.yul\":1242:1247   */\n      dup2\n        /* \"#utility.yul\":1231:1247   */\n      swap1\n      pop\n        /* \"#utility.yul\":1176:1253   */\n      swap2\n      swap1\n      pop\n      jump\t// out\n        /* \"#utility.yul\":1259:1377   */\n    tag_78:\n        /* \"#utility.yul\":1346:1370   */\n      tag_118\n        /* \"#utility.yul\":1364:1369   */\n      dup2\n        /* \"#utility.yul\":1346:1370   */\n      tag_77\n      jump\t// in\n    tag_118:\n        /* \"#utility.yul\":1341:1344   */\n      dup3\n        /* \"#utility.yul\":1334:1371   */\n      mstore\n        /* \"#utility.yul\":1259:1377   */\n      pop\n      pop\n      jump\t// out\n        /* \"#utility.yul\":1383:1825   */\n    tag_17:\n        /* \"#utility.yul\":1532:1536   */\n      0x00\n        /* \"#utility.yul\":1570:1572   */\n      0x60\n        /* \"#utility.yul\":1559:1568   */\n      dup3\n        /* \"#utility.yul\":1555:1573   */\n      add\n        /* \"#utility.yul\":1547:1573   */\n      swap1\n      pop\n        /* \"#utility.yul\":1583:1654   */\n      tag_120\n        /* \"#utility.yul\":1651:1652   */\n      0x00\n        /* \"#utility.yul\":1640:1649   */\n      dup4\n        /* \"#utility.yul\":1636:1653   */\n      add\n        /* \"#utility.yul\":1627:1633   */\n      dup7\n        /* \"#utility.yul\":1583:1654   */\n      tag_78\n      jump\t// in\n    tag_120:\n        /* \"#utility.yul\":1664:1736   */\n      tag_121\n        /* \"#utility.yul\":1732:1734   */\n      0x20\n        /* \"#utility.yul\":1721:1730   */\n      dup4\n        /* \"#utility.yul\":1717:1735   */\n      add\n        /* \"#utility.yul\":1708:1714   */\n      dup6\n        /* \"#utility.yul\":1664:1736   */\n      tag_78\n      jump\t// in\n    tag_121:\n        /* \"#utility.yul\":1746:1818   */\n      tag_122\n        /* \"#utility.yul\":1814:1816   */\n      0x40\n        /* \"#utility.yul\":1803:1812   */\n      dup4\n        /* \"#utility.yul\":1799:1817   */\n      add\n        /* \"#utility.yul\":1790:1796   */\n      dup5\n        /* \"#utility.yul\":1746:1818   */\n      tag_78\n      jump\t// in\n    tag_122:\n        /* \"#utility.yul\":1383:1825   */\n      swap5\n      swap4\n      pop\n      pop\n      pop\n      pop\n      jump\t// out\n        /* \"#utility.yul\":1831:2053   */\n    tag_24:\n        /* \"#utility.yul\":1924:1928   */\n      0x00\n        /* \"#utility.yul\":1962:1964   */\n      0x20\n        /* \"#utility.yul\":1951:1960   */\n      dup3\n        /* \"#utility.yul\":1947:1965   */\n      add\n        /* \"#utility.yul\":1939:1965   */\n      swap1\n      pop\n        /* \"#utility.yul\":1975:2046   */\n      tag_124\n        /* \"#utility.yul\":2043:2044   */\n      0x00\n        /* \"#utility.yul\":2032:2041   */\n      dup4\n        /* \"#utility.yul\":2028:2045   */\n      add\n        /* \"#utility.yul\":2019:2025   */\n      dup5\n        /* \"#utility.yul\":1975:2046   */\n      tag_78\n      jump\t// in\n    tag_124:\n        /* \"#utility.yul\":1831:2053   */\n      swap3\n      swap2\n      pop\n      pop\n      jump\t// out\n        /* \"#utility.yul\":2059:2181   */\n    tag_79:\n        /* \"#utility.yul\":2132:2156   */\n      tag_126\n        /* \"#utility.yul\":2150:2155   */\n      dup2\n        /* \"#utility.yul\":2132:2156   */\n      tag_77\n      jump\t// in\n    tag_126:\n        /* \"#utility.yul\":2125:2130   */\n      dup2\n        /* \"#utility.yul\":2122:2157   */\n      eq\n        /* \"#utility.yul\":2112:2175   */\n      tag_127\n      jumpi\n        /* \"#utility.yul\":2171:2172   */\n      0x00\n        /* \"#utility.yul\":2168:2169   */\n      dup1\n        /* \"#utility.yul\":2161:2173   */\n      revert\n        /* \"#utility.yul\":2112:2175   */\n    tag_127:\n        /* \"#utility.yul\":2059:2181   */\n      pop\n      jump\t// out\n        /* \"#utility.yul\":2187:2326   */\n    tag_80:\n        /* \"#utility.yul\":2233:2238   */\n      0x00\n        /* \"#utility.yul\":2271:2277   */\n      dup2\n        /* \"#utility.yul\":2258:2278   */\n      calldataload\n        /* \"#utility.yul\":2249:2278   */\n      swap1\n      pop\n        /* \"#utility.yul\":2287:2320   */\n      tag_129\n        /* \"#utility.yul\":2314:2319   */\n      dup2\n        /* \"#utility.yul\":2287:2320   */\n      tag_79\n      jump\t// in\n    tag_129:\n        /* \"#utility.yul\":2187:2326   */\n      swap3\n      swap2\n      pop\n      pop\n      jump\t// out\n        /* \"#utility.yul\":2332:2806   */\n    tag_34:\n        /* \"#utility.yul\":2400:2406   */\n      0x00\n        /* \"#utility.yul\":2408:2414   */\n      dup1\n        /* \"#utility.yul\":2457:2459   */\n      0x40\n        /* \"#utility.yul\":2445:2454   */\n      dup4\n        /* \"#utility.yul\":2436:2443   */\n      dup6\n        /* \"#utility.yul\":2432:2455   */\n      sub\n        /* \"#utility.yul\":2428:2460   */\n      slt\n        /* \"#utility.yul\":2425:2544   */\n      iszero\n      tag_131\n      jumpi\n        /* \"#utility.yul\":2463:2542   */\n      tag_132\n      tag_71\n      jump\t// in\n    tag_132:\n        /* \"#utility.yul\":2425:2544   */\n    tag_131:\n        /* \"#utility.yul\":2583:2584   */\n      0x00\n        /* \"#utility.yul\":2608:2661   */\n      tag_133\n        /* \"#utility.yul\":2653:2660   */\n      dup6\n        /* \"#utility.yul\":2644:2650   */\n      dup3\n        /* \"#utility.yul\":2633:2642   */\n      dup7\n        /* \"#utility.yul\":2629:2651   */\n      add\n        /* \"#utility.yul\":2608:2661   */\n      tag_80\n      jump\t// in\n    tag_133:\n        /* \"#utility.yul\":2598:2661   */\n      swap3\n      pop\n        /* \"#utility.yul\":2554:2671   */\n      pop\n        /* \"#utility.yul\":2710:2712   */\n      0x20\n        /* \"#utility.yul\":2736:2789   */\n      tag_134\n        /* \"#utility.yul\":2781:2788   */\n      dup6\n        /* \"#utility.yul\":2772:2778   */\n      dup3\n        /* \"#utility.yul\":2761:2770   */\n      dup7\n        /* \"#utility.yul\":2757:2779   */\n      add\n        /* \"#utility.yul\":2736:2789   */\n      tag_80\n      jump\t// in\n    tag_134:\n        /* \"#utility.yul\":2726:2789   */\n      swap2\n      pop\n        /* \"#utility.yul\":2681:2799   */\n      pop\n        /* \"#utility.yul\":2332:2806   */\n      swap3\n      pop\n      swap3\n      swap1\n      pop\n      jump\t// out\n        /* \"#utility.yul\":2812:2872   */\n    tag_81:\n        /* \"#utility.yul\":2840:2843   */\n      0x00\n        /* \"#utility.yul\":2861:2866   */\n      dup2\n        /* \"#utility.yul\":2854:2866   */\n      swap1\n      pop\n        /* \"#utility.yul\":2812:2872   */\n      swap2\n      swap1\n      pop\n      jump\t// out\n        /* \"#utility.yul\":2878:3020   */\n    tag_82:\n        /* \"#utility.yul\":2928:2937   */\n      0x00\n        /* \"#utility.yul\":2961:3014   */\n      tag_137\n        /* \"#utility.yul\":2979:3013   */\n      tag_138\n        /* \"#utility.yul\":2988:3012   */\n      tag_139\n        /* \"#utility.yul\":3006:3011   */\n      dup5\n        /* \"#utility.yul\":2988:3012   */\n      tag_73\n      jump\t// in\n    tag_139:\n        /* \"#utility.yul\":2979:3013   */\n      tag_81\n      jump\t// in\n    tag_138:\n        /* \"#utility.yul\":2961:3014   */\n      tag_73\n      jump\t// in\n    tag_137:\n        /* \"#utility.yul\":2948:3014   */\n      swap1\n      pop\n        /* \"#utility.yul\":2878:3020   */\n      swap2\n      swap1\n      pop\n      jump\t// out\n        /* \"#utility.yul\":3026:3152   */\n    tag_83:\n        /* \"#utility.yul\":3076:3085   */\n      0x00\n        /* \"#utility.yul\":3109:3146   */\n      tag_141\n        /* \"#utility.yul\":3140:3145   */\n      dup3\n        /* \"#utility.yul\":3109:3146   */\n      tag_82\n      jump\t// in\n    tag_141:\n        /* \"#utility.yul\":3096:3146   */\n      swap1\n      pop\n        /* \"#utility.yul\":3026:3152   */\n      swap2\n      swap1\n      pop\n      jump\t// out\n        /* \"#utility.yul\":3158:3300   */\n    tag_84:\n        /* \"#utility.yul\":3224:3233   */\n      0x00\n        /* \"#utility.yul\":3257:3294   */\n      tag_143\n        /* \"#utility.yul\":3288:3293   */\n      dup3\n        /* \"#utility.yul\":3257:3294   */\n      tag_83\n      jump\t// in\n    tag_143:\n        /* \"#utility.yul\":3244:3294   */\n      swap1\n      pop\n        /* \"#utility.yul\":3158:3300   */\n      swap2\n      swap1\n      pop\n      jump\t// out\n        /* \"#utility.yul\":3306:3469   */\n    tag_85:\n        /* \"#utility.yul\":3409:3462   */\n      tag_145\n        /* \"#utility.yul\":3456:3461   */\n      dup2\n        /* \"#utility.yul\":3409:3462   */\n      tag_84\n      jump\t// in\n    tag_145:\n        /* \"#utility.yul\":3404:3407   */\n      dup3\n        /* \"#utility.yul\":3397:3463   */\n      mstore\n        /* \"#utility.yul\":3306:3469   */\n      pop\n      pop\n      jump\t// out\n        /* \"#utility.yul\":3475:3729   */\n    tag_39:\n        /* \"#utility.yul\":3584:3588   */\n      0x00\n        /* \"#utility.yul\":3622:3624   */\n      0x20\n        /* \"#utility.yul\":3611:3620   */\n      dup3\n        /* \"#utility.yul\":3607:3625   */\n      add\n        /* \"#utility.yul\":3599:3625   */\n      swap1\n      pop\n        /* \"#utility.yul\":3635:3722   */\n      tag_147\n        /* \"#utility.yul\":3719:3720   */\n      0x00\n        /* \"#utility.yul\":3708:3717   */\n      dup4\n        /* \"#utility.yul\":3704:3721   */\n      add\n        /* \"#utility.yul\":3695:3701   */\n      dup5\n        /* \"#utility.yul\":3635:3722   */\n      tag_85\n      jump\t// in\n    tag_147:\n        /* \"#utility.yul\":3475:3729   */\n      swap3\n      swap2\n      pop\n      pop\n      jump\t// out\n        /* \"#utility.yul\":3735:3852   */\n    tag_86:\n        /* \"#utility.yul\":3844:3845   */\n      0x00\n        /* \"#utility.yul\":3841:3842   */\n      dup1\n        /* \"#utility.yul\":3834:3846   */\n      revert\n        /* \"#utility.yul\":3858:3975   */\n    tag_87:\n        /* \"#utility.yul\":3967:3968   */\n      0x00\n        /* \"#utility.yul\":3964:3965   */\n      dup1\n        /* \"#utility.yul\":3957:3969   */\n      revert\n        /* \"#utility.yul\":3981:4098   */\n    tag_88:\n        /* \"#utility.yul\":4090:4091   */\n      0x00\n        /* \"#utility.yul\":4087:4088   */\n      dup1\n        /* \"#utility.yul\":4080:4092   */\n      revert\n        /* \"#utility.yul\":4117:4669   */\n    tag_89:\n        /* \"#utility.yul\":4174:4182   */\n      0x00\n        /* \"#utility.yul\":4184:4190   */\n      dup1\n        /* \"#utility.yul\":4234:4237   */\n      dup4\n        /* \"#utility.yul\":4227:4231   */\n      0x1f\n        /* \"#utility.yul\":4219:4225   */\n      dup5\n        /* \"#utility.yul\":4215:4232   */\n      add\n        /* \"#utility.yul\":4211:4238   */\n      slt\n        /* \"#utility.yul\":4201:4323   */\n      tag_152\n      jumpi\n        /* \"#utility.yul\":4242:4321   */\n      tag_153\n      tag_86\n      jump\t// in\n    tag_153:\n        /* \"#utility.yul\":4201:4323   */\n    tag_152:\n        /* \"#utility.yul\":4355:4361   */\n      dup3\n        /* \"#utility.yul\":4342:4362   */\n      calldataload\n        /* \"#utility.yul\":4332:4362   */\n      swap1\n      pop\n        /* \"#utility.yul\":4385:4403   */\n      0xffffffffffffffff\n        /* \"#utility.yul\":4377:4383   */\n      dup2\n        /* \"#utility.yul\":4374:4404   */\n      gt\n        /* \"#utility.yul\":4371:4488   */\n      iszero\n      tag_154\n      jumpi\n        /* \"#utility.yul\":4407:4486   */\n      tag_155\n      tag_87\n      jump\t// in\n    tag_155:\n        /* \"#utility.yul\":4371:4488   */\n    tag_154:\n        /* \"#utility.yul\":4521:4525   */\n      0x20\n        /* \"#utility.yul\":4513:4519   */\n      dup4\n        /* \"#utility.yul\":4509:4526   */\n      add\n        /* \"#utility.yul\":4497:4526   */\n      swap2\n      pop\n        /* \"#utility.yul\":4575:4578   */\n      dup4\n        /* \"#utility.yul\":4567:4571   */\n      0x01\n        /* \"#utility.yul\":4559:4565   */\n      dup3\n        /* \"#utility.yul\":4555:4572   */\n      mul\n        /* \"#utility.yul\":4545:4553   */\n      dup4\n        /* \"#utility.yul\":4541:4573   */\n      add\n        /* \"#utility.yul\":4538:4579   */\n      gt\n        /* \"#utility.yul\":4535:4663   */\n      iszero\n      tag_156\n      jumpi\n        /* \"#utility.yul\":4582:4661   */\n      tag_157\n      tag_88\n      jump\t// in\n    tag_157:\n        /* \"#utility.yul\":4535:4663   */\n    tag_156:\n        /* \"#utility.yul\":4117:4669   */\n      swap3\n      pop\n      swap3\n      swap1\n      pop\n      jump\t// out\n        /* \"#utility.yul\":4675:5784   */\n    tag_42:\n        /* \"#utility.yul\":4781:4787   */\n      0x00\n        /* \"#utility.yul\":4789:4795   */\n      dup1\n        /* \"#utility.yul\":4797:4803   */\n      0x00\n        /* \"#utility.yul\":4805:4811   */\n      dup1\n        /* \"#utility.yul\":4813:4819   */\n      0x00\n        /* \"#utility.yul\":4821:4827   */\n      dup1\n        /* \"#utility.yul\":4870:4873   */\n      0xa0\n        /* \"#utility.yul\":4858:4867   */\n      dup8\n        /* \"#utility.yul\":4849:4856   */\n      dup10\n        /* \"#utility.yul\":4845:4868   */\n      sub\n        /* \"#utility.yul\":4841:4874   */\n      slt\n        /* \"#utility.yul\":4838:4958   */\n      iszero\n      tag_159\n      jumpi\n        /* \"#utility.yul\":4877:4956   */\n      tag_160\n      tag_71\n      jump\t// in\n    tag_160:\n        /* \"#utility.yul\":4838:4958   */\n    tag_159:\n        /* \"#utility.yul\":4997:4998   */\n      0x00\n        /* \"#utility.yul\":5022:5075   */\n      tag_161\n        /* \"#utility.yul\":5067:5074   */\n      dup10\n        /* \"#utility.yul\":5058:5064   */\n      dup3\n        /* \"#utility.yul\":5047:5056   */\n      dup11\n        /* \"#utility.yul\":5043:5065   */\n      add\n        /* \"#utility.yul\":5022:5075   */\n      tag_76\n      jump\t// in\n    tag_161:\n        /* \"#utility.yul\":5012:5075   */\n      swap7\n      pop\n        /* \"#utility.yul\":4968:5085   */\n      pop\n        /* \"#utility.yul\":5124:5126   */\n      0x20\n        /* \"#utility.yul\":5150:5203   */\n      tag_162\n        /* \"#utility.yul\":5195:5202   */\n      dup10\n        /* \"#utility.yul\":5186:5192   */\n      dup3\n        /* \"#utility.yul\":5175:5184   */\n      dup11\n        /* \"#utility.yul\":5171:5193   */\n      add\n        /* \"#utility.yul\":5150:5203   */\n      tag_76\n      jump\t// in\n    tag_162:\n        /* \"#utility.yul\":5140:5203   */\n      swap6\n      pop\n        /* \"#utility.yul\":5095:5213   */\n      pop\n        /* \"#utility.yul\":5252:5254   */\n      0x40\n        /* \"#utility.yul\":5278:5331   */\n      tag_163\n        /* \"#utility.yul\":5323:5330   */\n      dup10\n        /* \"#utility.yul\":5314:5320   */\n      dup3\n        /* \"#utility.yul\":5303:5312   */\n      dup11\n        /* \"#utility.yul\":5299:5321   */\n      add\n        /* \"#utility.yul\":5278:5331   */\n      tag_80\n      jump\t// in\n    tag_163:\n        /* \"#utility.yul\":5268:5331   */\n      swap5\n      pop\n        /* \"#utility.yul\":5223:5341   */\n      pop\n        /* \"#utility.yul\":5380:5382   */\n      0x60\n        /* \"#utility.yul\":5406:5459   */\n      tag_164\n        /* \"#utility.yul\":5451:5458   */\n      dup10\n        /* \"#utility.yul\":5442:5448   */\n      dup3\n        /* \"#utility.yul\":5431:5440   */\n      dup11\n        /* \"#utility.yul\":5427:5449   */\n      add\n        /* \"#utility.yul\":5406:5459   */\n      tag_80\n      jump\t// in\n    tag_164:\n        /* \"#utility.yul\":5396:5459   */\n      swap4\n      pop\n        /* \"#utility.yul\":5351:5469   */\n      pop\n        /* \"#utility.yul\":5536:5539   */\n      0x80\n        /* \"#utility.yul\":5525:5534   */\n      dup8\n        /* \"#utility.yul\":5521:5540   */\n      add\n        /* \"#utility.yul\":5508:5541   */\n      calldataload\n        /* \"#utility.yul\":5568:5586   */\n      0xffffffffffffffff\n        /* \"#utility.yul\":5560:5566   */\n      dup2\n        /* \"#utility.yul\":5557:5587   */\n      gt\n        /* \"#utility.yul\":5554:5671   */\n      iszero\n      tag_165\n      jumpi\n        /* \"#utility.yul\":5590:5669   */\n      tag_166\n      tag_72\n      jump\t// in\n    tag_166:\n        /* \"#utility.yul\":5554:5671   */\n    tag_165:\n        /* \"#utility.yul\":5703:5767   */\n      tag_167\n        /* \"#utility.yul\":5759:5766   */\n      dup10\n        /* \"#utility.yul\":5750:5756   */\n      dup3\n        /* \"#utility.yul\":5739:5748   */\n      dup11\n        /* \"#utility.yul\":5735:5757   */\n      add\n        /* \"#utility.yul\":5703:5767   */\n      tag_89\n      jump\t// in\n    tag_167:\n        /* \"#utility.yul\":5685:5767   */\n      swap3\n      pop\n      swap3\n      pop\n        /* \"#utility.yul\":5479:5777   */\n      pop\n        /* \"#utility.yul\":4675:5784   */\n      swap3\n      swap6\n      pop\n      swap3\n      swap6\n      pop\n      swap3\n      swap6\n      jump\t// out\n        /* \"#utility.yul\":5790:5939   */\n    tag_90:\n        /* \"#utility.yul\":5826:5833   */\n      0x00\n        /* \"#utility.yul\":5866:5932   */\n      0xffffffff00000000000000000000000000000000000000000000000000000000\n        /* \"#utility.yul\":5859:5864   */\n      dup3\n        /* \"#utility.yul\":5855:5933   */\n      and\n        /* \"#utility.yul\":5844:5933   */\n      swap1\n      pop\n        /* \"#utility.yul\":5790:5939   */\n      swap2\n      swap1\n      pop\n      jump\t// out\n        /* \"#utility.yul\":5945:6060   */\n    tag_91:\n        /* \"#utility.yul\":6030:6053   */\n      tag_170\n        /* \"#utility.yul\":6047:6052   */\n      dup2\n        /* \"#utility.yul\":6030:6053   */\n      tag_90\n      jump\t// in\n    tag_170:\n        /* \"#utility.yul\":6025:6028   */\n      dup3\n        /* \"#utility.yul\":6018:6054   */\n      mstore\n        /* \"#utility.yul\":5945:6060   */\n      pop\n      pop\n      jump\t// out\n        /* \"#utility.yul\":6066:6284   */\n    tag_45:\n        /* \"#utility.yul\":6157:6161   */\n      0x00\n        /* \"#utility.yul\":6195:6197   */\n      0x20\n        /* \"#utility.yul\":6184:6193   */\n      dup3\n        /* \"#utility.yul\":6180:6198   */\n      add\n        /* \"#utility.yul\":6172:6198   */\n      swap1\n      pop\n        /* \"#utility.yul\":6208:6277   */\n      tag_172\n        /* \"#utility.yul\":6274:6275   */\n      0x00\n        /* \"#utility.yul\":6263:6272   */\n      dup4\n        /* \"#utility.yul\":6259:6276   */\n      add\n        /* \"#utility.yul\":6250:6256   */\n      dup5\n        /* \"#utility.yul\":6208:6277   */\n      tag_91\n      jump\t// in\n    tag_172:\n        /* \"#utility.yul\":6066:6284   */\n      swap3\n      swap2\n      pop\n      pop\n      jump\t// out\n        /* \"#utility.yul\":6290:6408   */\n    tag_92:\n        /* \"#utility.yul\":6377:6401   */\n      tag_174\n        /* \"#utility.yul\":6395:6400   */\n      dup2\n        /* \"#utility.yul\":6377:6401   */\n      tag_74\n      jump\t// in\n    tag_174:\n        /* \"#utility.yul\":6372:6375   */\n      dup3\n        /* \"#utility.yul\":6365:6402   */\n      mstore\n        /* \"#utility.yul\":6290:6408   */\n      pop\n      pop\n      jump\t// out\n        /* \"#utility.yul\":6414:6582   */\n    tag_93:\n        /* \"#utility.yul\":6497:6508   */\n      0x00\n        /* \"#utility.yul\":6531:6537   */\n      dup3\n        /* \"#utility.yul\":6526:6529   */\n      dup3\n        /* \"#utility.yul\":6519:6538   */\n      mstore\n        /* \"#utility.yul\":6571:6575   */\n      0x20\n        /* \"#utility.yul\":6566:6569   */\n      dup3\n        /* \"#utility.yul\":6562:6576   */\n      add\n        /* \"#utility.yul\":6547:6576   */\n      swap1\n      pop\n        /* \"#utility.yul\":6414:6582   */\n      swap3\n      swap2\n      pop\n      pop\n      jump\t// out\n        /* \"#utility.yul\":6588:6742   */\n    tag_94:\n        /* \"#utility.yul\":6728:6734   */\n      0x3078303000000000000000000000000000000000000000000000000000000000\n        /* \"#utility.yul\":6724:6725   */\n      0x00\n        /* \"#utility.yul\":6716:6722   */\n      dup3\n        /* \"#utility.yul\":6712:6726   */\n      add\n        /* \"#utility.yul\":6705:6735   */\n      mstore\n        /* \"#utility.yul\":6588:6742   */\n      pop\n      jump\t// out\n        /* \"#utility.yul\":6748:7111   */\n    tag_95:\n        /* \"#utility.yul\":6889:6892   */\n      0x00\n        /* \"#utility.yul\":6910:6975   */\n      tag_178\n        /* \"#utility.yul\":6973:6974   */\n      0x04\n        /* \"#utility.yul\":6968:6971   */\n      dup4\n        /* \"#utility.yul\":6910:6975   */\n      tag_93\n      jump\t// in\n    tag_178:\n        /* \"#utility.yul\":6903:6975   */\n      swap2\n      pop\n        /* \"#utility.yul\":6984:7077   */\n      tag_179\n        /* \"#utility.yul\":7073:7076   */\n      dup3\n        /* \"#utility.yul\":6984:7077   */\n      tag_94\n      jump\t// in\n    tag_179:\n        /* \"#utility.yul\":7102:7104   */\n      0x20\n        /* \"#utility.yul\":7097:7100   */\n      dup3\n        /* \"#utility.yul\":7093:7105   */\n      add\n        /* \"#utility.yul\":7086:7105   */\n      swap1\n      pop\n        /* \"#utility.yul\":6748:7111   */\n      swap2\n      swap1\n      pop\n      jump\t// out\n        /* \"#utility.yul\":7117:7976   */\n    tag_48:\n        /* \"#utility.yul\":7394:7398   */\n      0x00\n        /* \"#utility.yul\":7432:7435   */\n      0xa0\n        /* \"#utility.yul\":7421:7430   */\n      dup3\n        /* \"#utility.yul\":7417:7436   */\n      add\n        /* \"#utility.yul\":7409:7436   */\n      swap1\n      pop\n        /* \"#utility.yul\":7446:7517   */\n      tag_181\n        /* \"#utility.yul\":7514:7515   */\n      0x00\n        /* \"#utility.yul\":7503:7512   */\n      dup4\n        /* \"#utility.yul\":7499:7516   */\n      add\n        /* \"#utility.yul\":7490:7496   */\n      dup8\n        /* \"#utility.yul\":7446:7517   */\n      tag_92\n      jump\t// in\n    tag_181:\n        /* \"#utility.yul\":7527:7599   */\n      tag_182\n        /* \"#utility.yul\":7595:7597   */\n      0x20\n        /* \"#utility.yul\":7584:7593   */\n      dup4\n        /* \"#utility.yul\":7580:7598   */\n      add\n        /* \"#utility.yul\":7571:7577   */\n      dup7\n        /* \"#utility.yul\":7527:7599   */\n      tag_92\n      jump\t// in\n    tag_182:\n        /* \"#utility.yul\":7609:7681   */\n      tag_183\n        /* \"#utility.yul\":7677:7679   */\n      0x40\n        /* \"#utility.yul\":7666:7675   */\n      dup4\n        /* \"#utility.yul\":7662:7680   */\n      add\n        /* \"#utility.yul\":7653:7659   */\n      dup6\n        /* \"#utility.yul\":7609:7681   */\n      tag_78\n      jump\t// in\n    tag_183:\n        /* \"#utility.yul\":7691:7763   */\n      tag_184\n        /* \"#utility.yul\":7759:7761   */\n      0x60\n        /* \"#utility.yul\":7748:7757   */\n      dup4\n        /* \"#utility.yul\":7744:7762   */\n      add\n        /* \"#utility.yul\":7735:7741   */\n      dup5\n        /* \"#utility.yul\":7691:7763   */\n      tag_78\n      jump\t// in\n    tag_184:\n        /* \"#utility.yul\":7811:7820   */\n      dup2\n        /* \"#utility.yul\":7805:7809   */\n      dup2\n        /* \"#utility.yul\":7801:7821   */\n      sub\n        /* \"#utility.yul\":7795:7798   */\n      0x80\n        /* \"#utility.yul\":7784:7793   */\n      dup4\n        /* \"#utility.yul\":7780:7799   */\n      add\n        /* \"#utility.yul\":7773:7822   */\n      mstore\n        /* \"#utility.yul\":7839:7969   */\n      tag_185\n        /* \"#utility.yul\":7964:7968   */\n      dup2\n        /* \"#utility.yul\":7839:7969   */\n      tag_95\n      jump\t// in\n    tag_185:\n        /* \"#utility.yul\":7831:7969   */\n      swap1\n      pop\n        /* \"#utility.yul\":7117:7976   */\n      swap6\n      swap5\n      pop\n      pop\n      pop\n      pop\n      pop\n      jump\t// out\n        /* \"#utility.yul\":7982:8162   */\n    tag_96:\n        /* \"#utility.yul\":8030:8107   */\n      0x4e487b7100000000000000000000000000000000000000000000000000000000\n        /* \"#utility.yul\":8027:8028   */\n      0x00\n        /* \"#utility.yul\":8020:8108   */\n      mstore\n        /* \"#utility.yul\":8127:8131   */\n      0x11\n        /* \"#utility.yul\":8124:8125   */\n      0x04\n        /* \"#utility.yul\":8117:8132   */\n      mstore\n        /* \"#utility.yul\":8151:8155   */\n      0x24\n        /* \"#utility.yul\":8148:8149   */\n      0x00\n        /* \"#utility.yul\":8141:8156   */\n      revert\n        /* \"#utility.yul\":8168:8362   */\n    tag_53:\n        /* \"#utility.yul\":8208:8212   */\n      0x00\n        /* \"#utility.yul\":8228:8248   */\n      tag_188\n        /* \"#utility.yul\":8246:8247   */\n      dup3\n        /* \"#utility.yul\":8228:8248   */\n      tag_77\n      jump\t// in\n    tag_188:\n        /* \"#utility.yul\":8223:8248   */\n      swap2\n      pop\n        /* \"#utility.yul\":8262:8282   */\n      tag_189\n        /* \"#utility.yul\":8280:8281   */\n      dup4\n        /* \"#utility.yul\":8262:8282   */\n      tag_77\n      jump\t// in\n    tag_189:\n        /* \"#utility.yul\":8257:8282   */\n      swap3\n      pop\n        /* \"#utility.yul\":8306:8307   */\n      dup3\n        /* \"#utility.yul\":8303:8304   */\n      dup3\n        /* \"#utility.yul\":8299:8308   */\n      sub\n        /* \"#utility.yul\":8291:8308   */\n      swap1\n      pop\n        /* \"#utility.yul\":8330:8331   */\n      dup2\n        /* \"#utility.yul\":8324:8328   */\n      dup2\n        /* \"#utility.yul\":8321:8332   */\n      gt\n        /* \"#utility.yul\":8318:8355   */\n      iszero\n      tag_190\n      jumpi\n        /* \"#utility.yul\":8335:8353   */\n      tag_191\n      tag_96\n      jump\t// in\n    tag_191:\n        /* \"#utility.yul\":8318:8355   */\n    tag_190:\n        /* \"#utility.yul\":8168:8362   */\n      swap3\n      swap2\n      pop\n      pop\n      jump\t// out\n        /* \"#utility.yul\":8368:8559   */\n    tag_55:\n        /* \"#utility.yul\":8408:8411   */\n      0x00\n        /* \"#utility.yul\":8427:8447   */\n      tag_193\n        /* \"#utility.yul\":8445:8446   */\n      dup3\n        /* \"#utility.yul\":8427:8447   */\n      tag_77\n      jump\t// in\n    tag_193:\n        /* \"#utility.yul\":8422:8447   */\n      swap2\n      pop\n        /* \"#utility.yul\":8461:8481   */\n      tag_194\n        /* \"#utility.yul\":8479:8480   */\n      dup4\n        /* \"#utility.yul\":8461:8481   */\n      tag_77\n      jump\t// in\n    tag_194:\n        /* \"#utility.yul\":8456:8481   */\n      swap3\n      pop\n        /* \"#utility.yul\":8504:8505   */\n      dup3\n        /* \"#utility.yul\":8501:8502   */\n      dup3\n        /* \"#utility.yul\":8497:8506   */\n      add\n        /* \"#utility.yul\":8490:8506   */\n      swap1\n      pop\n        /* \"#utility.yul\":8525:8528   */\n      dup1\n        /* \"#utility.yul\":8522:8523   */\n      dup3\n        /* \"#utility.yul\":8519:8529   */\n      gt\n        /* \"#utility.yul\":8516:8552   */\n      iszero\n      tag_195\n      jumpi\n        /* \"#utility.yul\":8532:8550   */\n      tag_196\n      tag_96\n      jump\t// in\n    tag_196:\n        /* \"#utility.yul\":8516:8552   */\n    tag_195:\n        /* \"#utility.yul\":8368:8559   */\n      swap3\n      swap2\n      pop\n      pop\n      jump\t// out\n        /* \"#utility.yul\":8565:8734   */\n    tag_97:\n        /* \"#utility.yul\":8649:8660   */\n      0x00\n        /* \"#utility.yul\":8683:8689   */\n      dup3\n        /* \"#utility.yul\":8678:8681   */\n      dup3\n        /* \"#utility.yul\":8671:8690   */\n      mstore\n        /* \"#utility.yul\":8723:8727   */\n      0x20\n        /* \"#utility.yul\":8718:8721   */\n      dup3\n        /* \"#utility.yul\":8714:8728   */\n      add\n        /* \"#utility.yul\":8699:8728   */\n      swap1\n      pop\n        /* \"#utility.yul\":8565:8734   */\n      swap3\n      swap2\n      pop\n      pop\n      jump\t// out\n        /* \"#utility.yul\":8740:8909   */\n    tag_98:\n        /* \"#utility.yul\":8880:8901   */\n      0x43616c6c6572206973206e6f74206f776e657200000000000000000000000000\n        /* \"#utility.yul\":8876:8877   */\n      0x00\n        /* \"#utility.yul\":8868:8874   */\n      dup3\n        /* \"#utility.yul\":8864:8878   */\n      add\n        /* \"#utility.yul\":8857:8902   */\n      mstore\n        /* \"#utility.yul\":8740:8909   */\n      pop\n      jump\t// out\n        /* \"#utility.yul\":8915:9281   */\n    tag_99:\n        /* \"#utility.yul\":9057:9060   */\n      0x00\n        /* \"#utility.yul\":9078:9145   */\n      tag_200\n        /* \"#utility.yul\":9142:9144   */\n      0x13\n        /* \"#utility.yul\":9137:9140   */\n      dup4\n        /* \"#utility.yul\":9078:9145   */\n      tag_97\n      jump\t// in\n    tag_200:\n        /* \"#utility.yul\":9071:9145   */\n      swap2\n      pop\n        /* \"#utility.yul\":9154:9247   */\n      tag_201\n        /* \"#utility.yul\":9243:9246   */\n      dup3\n        /* \"#utility.yul\":9154:9247   */\n      tag_98\n      jump\t// in\n    tag_201:\n        /* \"#utility.yul\":9272:9274   */\n      0x20\n        /* \"#utility.yul\":9267:9270   */\n      dup3\n        /* \"#utility.yul\":9263:9275   */\n      add\n        /* \"#utility.yul\":9256:9275   */\n      swap1\n      pop\n        /* \"#utility.yul\":8915:9281   */\n      swap2\n      swap1\n      pop\n      jump\t// out\n        /* \"#utility.yul\":9287:9706   */\n    tag_60:\n        /* \"#utility.yul\":9453:9457   */\n      0x00\n        /* \"#utility.yul\":9491:9493   */\n      0x20\n        /* \"#utility.yul\":9480:9489   */\n      dup3\n        /* \"#utility.yul\":9476:9494   */\n      add\n        /* \"#utility.yul\":9468:9494   */\n      swap1\n      pop\n        /* \"#utility.yul\":9540:9549   */\n      dup2\n        /* \"#utility.yul\":9534:9538   */\n      dup2\n        /* \"#utility.yul\":9530:9550   */\n      sub\n        /* \"#utility.yul\":9526:9527   */\n      0x00\n        /* \"#utility.yul\":9515:9524   */\n      dup4\n        /* \"#utility.yul\":9511:9528   */\n      add\n        /* \"#utility.yul\":9504:9551   */\n      mstore\n        /* \"#utility.yul\":9568:9699   */\n      tag_203\n        /* \"#utility.yul\":9694:9698   */\n      dup2\n        /* \"#utility.yul\":9568:9699   */\n      tag_99\n      jump\t// in\n    tag_203:\n        /* \"#utility.yul\":9560:9699   */\n      swap1\n      pop\n        /* \"#utility.yul\":9287:9706   */\n      swap2\n      swap1\n      pop\n      jump\t// out\n        /* \"#utility.yul\":9712:9945   */\n    tag_63:\n        /* \"#utility.yul\":9751:9754   */\n      0x00\n        /* \"#utility.yul\":9774:9798   */\n      tag_205\n        /* \"#utility.yul\":9792:9797   */\n      dup3\n        /* \"#utility.yul\":9774:9798   */\n      tag_77\n      jump\t// in\n    tag_205:\n        /* \"#utility.yul\":9765:9798   */\n      swap2\n      pop\n        /* \"#utility.yul\":9820:9886   */\n      0xffffffffffffffffffffffffffffffffffffffffffffffffffffffffffffffff\n        /* \"#utility.yul\":9813:9818   */\n      dup3\n        /* \"#utility.yul\":9810:9887   */\n      sub\n        /* \"#utility.yul\":9807:9910   */\n      tag_206\n      jumpi\n        /* \"#utility.yul\":9890:9908   */\n      tag_207\n      tag_96\n      jump\t// in\n    tag_207:\n        /* \"#utility.yul\":9807:9910   */\n    tag_206:\n        /* \"#utility.yul\":9937:9938   */\n      0x01\n        /* \"#utility.yul\":9930:9935   */\n      dup3\n        /* \"#utility.yul\":9926:9939   */\n      add\n        /* \"#utility.yul\":9919:9939   */\n      swap1\n      pop\n        /* \"#utility.yul\":9712:9945   */\n      swap2\n      swap1\n      pop\n      jump\t// out\n\n    auxdata: 0xa2646970667358221220ed80c3f7347780bf4b877a750aac0bf207d28137ccfccafe52ae1797c5e4a77a64736f6c63430008110033\n}\n",
				"bytecode": {
					"linkReferences": {},
					"object": "608060405234801561001057600080fd5b5033600160006101000a81548173ffffffffffffffffffffffffffffffffffffffff021916908373ffffffffffffffffffffffffffffffffffffffff1602179055507318e819bc5a3882954b4b61e350b9af49103aad786000806101000a81548173ffffffffffffffffffffffffffffffffffffffff021916908373ffffffffffffffffffffffffffffffffffffffff160217905550610c2a806100b56000396000f3fe608060405234801561001057600080fd5b50600436106100885760003560e01c80636a6278421161005b5780636a627842146101295780637b0472f014610145578063b8e33fb214610161578063f23a6e611461017f57610088565b806316934fc41461008d5780632def6620146100bf578063583d42fd146100c95780636392a51f146100f9575b600080fd5b6100a760048036038101906100a29190610701565b6101af565b6040516100b693929190610747565b60405180910390f35b6100c76101d9565b005b6100e360048036038101906100de9190610701565b6103ed565b6040516100f0919061077e565b60405180910390f35b610113600480360381019061010e9190610701565b610405565b604051610120919061077e565b60405180910390f35b610143600480360381019061013e9190610701565b61044e565b005b61015f600480360381019061015a91906107c5565b610536565b005b610169610646565b6040516101769190610864565b60405180910390f35b610199600480360381019061019491906108e4565b61066a565b6040516101a691906109b9565b60405180910390f35b60036020528060005260406000206000915090508060000154908060010154908060020154905083565b60008054906101000a900473ffffffffffffffffffffffffffffffffffffffff1673ffffffffffffffffffffffffffffffffffffffff1663f242432a3033600360003373ffffffffffffffffffffffffffffffffffffffff1673ffffffffffffffffffffffffffffffffffffffff16815260200190815260200160002060000154600360003373ffffffffffffffffffffffffffffffffffffffff1673ffffffffffffffffffffffffffffffffffffffff168152602001908152602001600020600101546040518563ffffffff1660e01b81526004016102bc9493929190610a40565b600060405180830381600087803b1580156102d657600080fd5b505af11580156102ea573d6000803e3d6000fd5b50505050600360003373ffffffffffffffffffffffffffffffffffffffff1673ffffffffffffffffffffffffffffffffffffffff168152602001908152602001600020600201544261033c9190610ac7565b600460003373ffffffffffffffffffffffffffffffffffffffff1673ffffffffffffffffffffffffffffffffffffffff168152602001908152602001600020600082825461038a9190610afb565b92505081905550600360003373ffffffffffffffffffffffffffffffffffffffff1673ffffffffffffffffffffffffffffffffffffffff168152602001908152602001600020600080820160009055600182016000905560028201600090555050565b60046020528060005260406000206000915090505481565b6000600260008373ffffffffffffffffffffffffffffffffffffffff1673ffffffffffffffffffffffffffffffffffffffff168152602001908152602001600020549050919050565b600160009054906101000a900473ffffffffffffffffffffffffffffffffffffffff1673ffffffffffffffffffffffffffffffffffffffff163373ffffffffffffffffffffffffffffffffffffffff16146104de576040517f08c379a00000000000000000000000000000000000000000000000000000000081526004016104d590610b8c565b60405180910390fd5b600260008273ffffffffffffffffffffffffffffffffffffffff1673ffffffffffffffffffffffffffffffffffffffff168152602001908152602001600020600081548092919061052e90610bac565b919050555050565b604051806060016040528083815260200182815260200142815250600360003373ffffffffffffffffffffffffffffffffffffffff1673ffffffffffffffffffffffffffffffffffffffff16815260200190815260200160002060008201518160000155602082015181600101556040820151816002015590505060008054906101000a900473ffffffffffffffffffffffffffffffffffffffff1673ffffffffffffffffffffffffffffffffffffffff1663f242432a333085856040518563ffffffff1660e01b81526004016106109493929190610a40565b600060405180830381600087803b15801561062a57600080fd5b505af115801561063e573d6000803e3d6000fd5b505050505050565b60008054906101000a900473ffffffffffffffffffffffffffffffffffffffff1681565b60007ff23a6e612e1ff4830e658fe43f4e3cb4a5f8170bd5d9e69fb5d7a7fa9e4fdf9790509695505050505050565b600080fd5b600080fd5b600073ffffffffffffffffffffffffffffffffffffffff82169050919050565b60006106ce826106a3565b9050919050565b6106de816106c3565b81146106e957600080fd5b50565b6000813590506106fb816106d5565b92915050565b60006020828403121561071757610716610699565b5b6000610725848285016106ec565b91505092915050565b6000819050919050565b6107418161072e565b82525050565b600060608201905061075c6000830186610738565b6107696020830185610738565b6107766040830184610738565b949350505050565b60006020820190506107936000830184610738565b92915050565b6107a28161072e565b81146107ad57600080fd5b50565b6000813590506107bf81610799565b92915050565b600080604083850312156107dc576107db610699565b5b60006107ea858286016107b0565b92505060206107fb858286016107b0565b9150509250929050565b6000819050919050565b600061082a610825610820846106a3565b610805565b6106a3565b9050919050565b600061083c8261080f565b9050919050565b600061084e82610831565b9050919050565b61085e81610843565b82525050565b60006020820190506108796000830184610855565b92915050565b600080fd5b600080fd5b600080fd5b60008083601f8401126108a4576108a361087f565b5b8235905067ffffffffffffffff8111156108c1576108c0610884565b5b6020830191508360018202830111156108dd576108dc610889565b5b9250929050565b60008060008060008060a0878903121561090157610900610699565b5b600061090f89828a016106ec565b965050602061092089828a016106ec565b955050604061093189828a016107b0565b945050606061094289828a016107b0565b935050608087013567ffffffffffffffff8111156109635761096261069e565b5b61096f89828a0161088e565b92509250509295509295509295565b60007fffffffff0000000000000000000000000000000000000000000000000000000082169050919050565b6109b38161097e565b82525050565b60006020820190506109ce60008301846109aa565b92915050565b6109dd816106c3565b82525050565b600082825260208201905092915050565b7f3078303000000000000000000000000000000000000000000000000000000000600082015250565b6000610a2a6004836109e3565b9150610a35826109f4565b602082019050919050565b600060a082019050610a5560008301876109d4565b610a6260208301866109d4565b610a6f6040830185610738565b610a7c6060830184610738565b8181036080830152610a8d81610a1d565b905095945050505050565b7f4e487b7100000000000000000000000000000000000000000000000000000000600052601160045260246000fd5b6000610ad28261072e565b9150610add8361072e565b9250828203905081811115610af557610af4610a98565b5b92915050565b6000610b068261072e565b9150610b118361072e565b9250828201905080821115610b2957610b28610a98565b5b92915050565b600082825260208201905092915050565b7f43616c6c6572206973206e6f74206f776e657200000000000000000000000000600082015250565b6000610b76601383610b2f565b9150610b8182610b40565b602082019050919050565b60006020820190508181036000830152610ba581610b69565b9050919050565b6000610bb78261072e565b91507fffffffffffffffffffffffffffffffffffffffffffffffffffffffffffffffff8203610be957610be8610a98565b5b60018201905091905056fea2646970667358221220ed80c3f7347780bf4b877a750aac0bf207d28137ccfccafe52ae1797c5e4a77a64736f6c63430008110033",
					"opcodes": "PUSH1 0x80 PUSH1 0x40 MSTORE CALLVALUE DUP1 ISZERO PUSH2 0x10 JUMPI PUSH1 0x0 DUP1 REVERT JUMPDEST POP CALLER PUSH1 0x1 PUSH1 0x0 PUSH2 0x100 EXP DUP2 SLOAD DUP2 PUSH20 0xFFFFFFFFFFFFFFFFFFFFFFFFFFFFFFFFFFFFFFFF MUL NOT AND SWAP1 DUP4 PUSH20 0xFFFFFFFFFFFFFFFFFFFFFFFFFFFFFFFFFFFFFFFF AND MUL OR SWAP1 SSTORE POP PUSH20 0x18E819BC5A3882954B4B61E350B9AF49103AAD78 PUSH1 0x0 DUP1 PUSH2 0x100 EXP DUP2 SLOAD DUP2 PUSH20 0xFFFFFFFFFFFFFFFFFFFFFFFFFFFFFFFFFFFFFFFF MUL NOT AND SWAP1 DUP4 PUSH20 0xFFFFFFFFFFFFFFFFFFFFFFFFFFFFFFFFFFFFFFFF AND MUL OR SWAP1 SSTORE POP PUSH2 0xC2A DUP1 PUSH2 0xB5 PUSH1 0x0 CODECOPY PUSH1 0x0 RETURN INVALID PUSH1 0x80 PUSH1 0x40 MSTORE CALLVALUE DUP1 ISZERO PUSH2 0x10 JUMPI PUSH1 0x0 DUP1 REVERT JUMPDEST POP PUSH1 0x4 CALLDATASIZE LT PUSH2 0x88 JUMPI PUSH1 0x0 CALLDATALOAD PUSH1 0xE0 SHR DUP1 PUSH4 0x6A627842 GT PUSH2 0x5B JUMPI DUP1 PUSH4 0x6A627842 EQ PUSH2 0x129 JUMPI DUP1 PUSH4 0x7B0472F0 EQ PUSH2 0x145 JUMPI DUP1 PUSH4 0xB8E33FB2 EQ PUSH2 0x161 JUMPI DUP1 PUSH4 0xF23A6E61 EQ PUSH2 0x17F JUMPI PUSH2 0x88 JUMP JUMPDEST DUP1 PUSH4 0x16934FC4 EQ PUSH2 0x8D JUMPI DUP1 PUSH4 0x2DEF6620 EQ PUSH2 0xBF JUMPI DUP1 PUSH4 0x583D42FD EQ PUSH2 0xC9 JUMPI DUP1 PUSH4 0x6392A51F EQ PUSH2 0xF9 JUMPI JUMPDEST PUSH1 0x0 DUP1 REVERT JUMPDEST PUSH2 0xA7 PUSH1 0x4 DUP1 CALLDATASIZE SUB DUP2 ADD SWAP1 PUSH2 0xA2 SWAP2 SWAP1 PUSH2 0x701 JUMP JUMPDEST PUSH2 0x1AF JUMP JUMPDEST PUSH1 0x40 MLOAD PUSH2 0xB6 SWAP4 SWAP3 SWAP2 SWAP1 PUSH2 0x747 JUMP JUMPDEST PUSH1 0x40 MLOAD DUP1 SWAP2 SUB SWAP1 RETURN JUMPDEST PUSH2 0xC7 PUSH2 0x1D9 JUMP JUMPDEST STOP JUMPDEST PUSH2 0xE3 PUSH1 0x4 DUP1 CALLDATASIZE SUB DUP2 ADD SWAP1 PUSH2 0xDE SWAP2 SWAP1 PUSH2 0x701 JUMP JUMPDEST PUSH2 0x3ED JUMP JUMPDEST PUSH1 0x40 MLOAD PUSH2 0xF0 SWAP2 SWAP1 PUSH2 0x77E JUMP JUMPDEST PUSH1 0x40 MLOAD DUP1 SWAP2 SUB SWAP1 RETURN JUMPDEST PUSH2 0x113 PUSH1 0x4 DUP1 CALLDATASIZE SUB DUP2 ADD SWAP1 PUSH2 0x10E SWAP2 SWAP1 PUSH2 0x701 JUMP JUMPDEST PUSH2 0x405 JUMP JUMPDEST PUSH1 0x40 MLOAD PUSH2 0x120 SWAP2 SWAP1 PUSH2 0x77E JUMP JUMPDEST PUSH1 0x40 MLOAD DUP1 SWAP2 SUB SWAP1 RETURN JUMPDEST PUSH2 0x143 PUSH1 0x4 DUP1 CALLDATASIZE SUB DUP2 ADD SWAP1 PUSH2 0x13E SWAP2 SWAP1 PUSH2 0x701 JUMP JUMPDEST PUSH2 0x44E JUMP JUMPDEST STOP JUMPDEST PUSH2 0x15F PUSH1 0x4 DUP1 CALLDATASIZE SUB DUP2 ADD SWAP1 PUSH2 0x15A SWAP2 SWAP1 PUSH2 0x7C5 JUMP JUMPDEST PUSH2 0x536 JUMP JUMPDEST STOP JUMPDEST PUSH2 0x169 PUSH2 0x646 JUMP JUMPDEST PUSH1 0x40 MLOAD PUSH2 0x176 SWAP2 SWAP1 PUSH2 0x864 JUMP JUMPDEST PUSH1 0x40 MLOAD DUP1 SWAP2 SUB SWAP1 RETURN JUMPDEST PUSH2 0x199 PUSH1 0x4 DUP1 CALLDATASIZE SUB DUP2 ADD SWAP1 PUSH2 0x194 SWAP2 SWAP1 PUSH2 0x8E4 JUMP JUMPDEST PUSH2 0x66A JUMP JUMPDEST PUSH1 0x40 MLOAD PUSH2 0x1A6 SWAP2 SWAP1 PUSH2 0x9B9 JUMP JUMPDEST PUSH1 0x40 MLOAD DUP1 SWAP2 SUB SWAP1 RETURN JUMPDEST PUSH1 0x3 PUSH1 0x20 MSTORE DUP1 PUSH1 0x0 MSTORE PUSH1 0x40 PUSH1 0x0 KECCAK256 PUSH1 0x0 SWAP2 POP SWAP1 POP DUP1 PUSH1 0x0 ADD SLOAD SWAP1 DUP1 PUSH1 0x1 ADD SLOAD SWAP1 DUP1 PUSH1 0x2 ADD SLOAD SWAP1 POP DUP4 JUMP JUMPDEST PUSH1 0x0 DUP1 SLOAD SWAP1 PUSH2 0x100 EXP SWAP1 DIV PUSH20 0xFFFFFFFFFFFFFFFFFFFFFFFFFFFFFFFFFFFFFFFF AND PUSH20 0xFFFFFFFFFFFFFFFFFFFFFFFFFFFFFFFFFFFFFFFF AND PUSH4 0xF242432A ADDRESS CALLER PUSH1 0x3 PUSH1 0x0 CALLER PUSH20 0xFFFFFFFFFFFFFFFFFFFFFFFFFFFFFFFFFFFFFFFF AND PUSH20 0xFFFFFFFFFFFFFFFFFFFFFFFFFFFFFFFFFFFFFFFF AND DUP2 MSTORE PUSH1 0x20 ADD SWAP1 DUP2 MSTORE PUSH1 0x20 ADD PUSH1 0x0 KECCAK256 PUSH1 0x0 ADD SLOAD PUSH1 0x3 PUSH1 0x0 CALLER PUSH20 0xFFFFFFFFFFFFFFFFFFFFFFFFFFFFFFFFFFFFFFFF AND PUSH20 0xFFFFFFFFFFFFFFFFFFFFFFFFFFFFFFFFFFFFFFFF AND DUP2 MSTORE PUSH1 0x20 ADD SWAP1 DUP2 MSTORE PUSH1 0x20 ADD PUSH1 0x0 KECCAK256 PUSH1 0x1 ADD SLOAD PUSH1 0x40 MLOAD DUP6 PUSH4 0xFFFFFFFF AND PUSH1 0xE0 SHL DUP2 MSTORE PUSH1 0x4 ADD PUSH2 0x2BC SWAP5 SWAP4 SWAP3 SWAP2 SWAP1 PUSH2 0xA40 JUMP JUMPDEST PUSH1 0x0 PUSH1 0x40 MLOAD DUP1 DUP4 SUB DUP2 PUSH1 0x0 DUP8 DUP1 EXTCODESIZE ISZERO DUP1 ISZERO PUSH2 0x2D6 JUMPI PUSH1 0x0 DUP1 REVERT JUMPDEST POP GAS CALL ISZERO DUP1 ISZERO PUSH2 0x2EA JUMPI RETURNDATASIZE PUSH1 0x0 DUP1 RETURNDATACOPY RETURNDATASIZE PUSH1 0x0 REVERT JUMPDEST POP POP POP POP PUSH1 0x3 PUSH1 0x0 CALLER PUSH20 0xFFFFFFFFFFFFFFFFFFFFFFFFFFFFFFFFFFFFFFFF AND PUSH20 0xFFFFFFFFFFFFFFFFFFFFFFFFFFFFFFFFFFFFFFFF AND DUP2 MSTORE PUSH1 0x20 ADD SWAP1 DUP2 MSTORE PUSH1 0x20 ADD PUSH1 0x0 KECCAK256 PUSH1 0x2 ADD SLOAD TIMESTAMP PUSH2 0x33C SWAP2 SWAP1 PUSH2 0xAC7 JUMP JUMPDEST PUSH1 0x4 PUSH1 0x0 CALLER PUSH20 0xFFFFFFFFFFFFFFFFFFFFFFFFFFFFFFFFFFFFFFFF AND PUSH20 0xFFFFFFFFFFFFFFFFFFFFFFFFFFFFFFFFFFFFFFFF AND DUP2 MSTORE PUSH1 0x20 ADD SWAP1 DUP2 MSTORE PUSH1 0x20 ADD PUSH1 0x0 KECCAK256 PUSH1 0x0 DUP3 DUP3 SLOAD PUSH2 0x38A SWAP2 SWAP1 PUSH2 0xAFB JUMP JUMPDEST SWAP3 POP POP DUP2 SWAP1 SSTORE POP PUSH1 0x3 PUSH1 0x0 CALLER PUSH20 0xFFFFFFFFFFFFFFFFFFFFFFFFFFFFFFFFFFFFFFFF AND PUSH20 0xFFFFFFFFFFFFFFFFFFFFFFFFFFFFFFFFFFFFFFFF AND DUP2 MSTORE PUSH1 0x20 ADD SWAP1 DUP2 MSTORE PUSH1 0x20 ADD PUSH1 0x0 KECCAK256 PUSH1 0x0 DUP1 DUP3 ADD PUSH1 0x0 SWAP1 SSTORE PUSH1 0x1 DUP3 ADD PUSH1 0x0 SWAP1 SSTORE PUSH1 0x2 DUP3 ADD PUSH1 0x0 SWAP1 SSTORE POP POP JUMP JUMPDEST PUSH1 0x4 PUSH1 0x20 MSTORE DUP1 PUSH1 0x0 MSTORE PUSH1 0x40 PUSH1 0x0 KECCAK256 PUSH1 0x0 SWAP2 POP SWAP1 POP SLOAD DUP2 JUMP JUMPDEST PUSH1 0x0 PUSH1 0x2 PUSH1 0x0 DUP4 PUSH20 0xFFFFFFFFFFFFFFFFFFFFFFFFFFFFFFFFFFFFFFFF AND PUSH20 0xFFFFFFFFFFFFFFFFFFFFFFFFFFFFFFFFFFFFFFFF AND DUP2 MSTORE PUSH1 0x20 ADD SWAP1 DUP2 MSTORE PUSH1 0x20 ADD PUSH1 0x0 KECCAK256 SLOAD SWAP1 POP SWAP2 SWAP1 POP JUMP JUMPDEST PUSH1 0x1 PUSH1 0x0 SWAP1 SLOAD SWAP1 PUSH2 0x100 EXP SWAP1 DIV PUSH20 0xFFFFFFFFFFFFFFFFFFFFFFFFFFFFFFFFFFFFFFFF AND PUSH20 0xFFFFFFFFFFFFFFFFFFFFFFFFFFFFFFFFFFFFFFFF AND CALLER PUSH20 0xFFFFFFFFFFFFFFFFFFFFFFFFFFFFFFFFFFFFFFFF AND EQ PUSH2 0x4DE JUMPI PUSH1 0x40 MLOAD PUSH32 0x8C379A000000000000000000000000000000000000000000000000000000000 DUP2 MSTORE PUSH1 0x4 ADD PUSH2 0x4D5 SWAP1 PUSH2 0xB8C JUMP JUMPDEST PUSH1 0x40 MLOAD DUP1 SWAP2 SUB SWAP1 REVERT JUMPDEST PUSH1 0x2 PUSH1 0x0 DUP3 PUSH20 0xFFFFFFFFFFFFFFFFFFFFFFFFFFFFFFFFFFFFFFFF AND PUSH20 0xFFFFFFFFFFFFFFFFFFFFFFFFFFFFFFFFFFFFFFFF AND DUP2 MSTORE PUSH1 0x20 ADD SWAP1 DUP2 MSTORE PUSH1 0x20 ADD PUSH1 0x0 KECCAK256 PUSH1 0x0 DUP2 SLOAD DUP1 SWAP3 SWAP2 SWAP1 PUSH2 0x52E SWAP1 PUSH2 0xBAC JUMP JUMPDEST SWAP2 SWAP1 POP SSTORE POP POP JUMP JUMPDEST PUSH1 0x40 MLOAD DUP1 PUSH1 0x60 ADD PUSH1 0x40 MSTORE DUP1 DUP4 DUP2 MSTORE PUSH1 0x20 ADD DUP3 DUP2 MSTORE PUSH1 0x20 ADD TIMESTAMP DUP2 MSTORE POP PUSH1 0x3 PUSH1 0x0 CALLER PUSH20 0xFFFFFFFFFFFFFFFFFFFFFFFFFFFFFFFFFFFFFFFF AND PUSH20 0xFFFFFFFFFFFFFFFFFFFFFFFFFFFFFFFFFFFFFFFF AND DUP2 MSTORE PUSH1 0x20 ADD SWAP1 DUP2 MSTORE PUSH1 0x20 ADD PUSH1 0x0 KECCAK256 PUSH1 0x0 DUP3 ADD MLOAD DUP2 PUSH1 0x0 ADD SSTORE PUSH1 0x20 DUP3 ADD MLOAD DUP2 PUSH1 0x1 ADD SSTORE PUSH1 0x40 DUP3 ADD MLOAD DUP2 PUSH1 0x2 ADD SSTORE SWAP1 POP POP PUSH1 0x0 DUP1 SLOAD SWAP1 PUSH2 0x100 EXP SWAP1 DIV PUSH20 0xFFFFFFFFFFFFFFFFFFFFFFFFFFFFFFFFFFFFFFFF AND PUSH20 0xFFFFFFFFFFFFFFFFFFFFFFFFFFFFFFFFFFFFFFFF AND PUSH4 0xF242432A CALLER ADDRESS DUP6 DUP6 PUSH1 0x40 MLOAD DUP6 PUSH4 0xFFFFFFFF AND PUSH1 0xE0 SHL DUP2 MSTORE PUSH1 0x4 ADD PUSH2 0x610 SWAP5 SWAP4 SWAP3 SWAP2 SWAP1 PUSH2 0xA40 JUMP JUMPDEST PUSH1 0x0 PUSH1 0x40 MLOAD DUP1 DUP4 SUB DUP2 PUSH1 0x0 DUP8 DUP1 EXTCODESIZE ISZERO DUP1 ISZERO PUSH2 0x62A JUMPI PUSH1 0x0 DUP1 REVERT JUMPDEST POP GAS CALL ISZERO DUP1 ISZERO PUSH2 0x63E JUMPI RETURNDATASIZE PUSH1 0x0 DUP1 RETURNDATACOPY RETURNDATASIZE PUSH1 0x0 REVERT JUMPDEST POP POP POP POP POP POP JUMP JUMPDEST PUSH1 0x0 DUP1 SLOAD SWAP1 PUSH2 0x100 EXP SWAP1 DIV PUSH20 0xFFFFFFFFFFFFFFFFFFFFFFFFFFFFFFFFFFFFFFFF AND DUP2 JUMP JUMPDEST PUSH1 0x0 PUSH32 0xF23A6E612E1FF4830E658FE43F4E3CB4A5F8170BD5D9E69FB5D7A7FA9E4FDF97 SWAP1 POP SWAP7 SWAP6 POP POP POP POP POP POP JUMP JUMPDEST PUSH1 0x0 DUP1 REVERT JUMPDEST PUSH1 0x0 DUP1 REVERT JUMPDEST PUSH1 0x0 PUSH20 0xFFFFFFFFFFFFFFFFFFFFFFFFFFFFFFFFFFFFFFFF DUP3 AND SWAP1 POP SWAP2 SWAP1 POP JUMP JUMPDEST PUSH1 0x0 PUSH2 0x6CE DUP3 PUSH2 0x6A3 JUMP JUMPDEST SWAP1 POP SWAP2 SWAP1 POP JUMP JUMPDEST PUSH2 0x6DE DUP2 PUSH2 0x6C3 JUMP JUMPDEST DUP2 EQ PUSH2 0x6E9 JUMPI PUSH1 0x0 DUP1 REVERT JUMPDEST POP JUMP JUMPDEST PUSH1 0x0 DUP2 CALLDATALOAD SWAP1 POP PUSH2 0x6FB DUP2 PUSH2 0x6D5 JUMP JUMPDEST SWAP3 SWAP2 POP POP JUMP JUMPDEST PUSH1 0x0 PUSH1 0x20 DUP3 DUP5 SUB SLT ISZERO PUSH2 0x717 JUMPI PUSH2 0x716 PUSH2 0x699 JUMP JUMPDEST JUMPDEST PUSH1 0x0 PUSH2 0x725 DUP5 DUP3 DUP6 ADD PUSH2 0x6EC JUMP JUMPDEST SWAP2 POP POP SWAP3 SWAP2 POP POP JUMP JUMPDEST PUSH1 0x0 DUP2 SWAP1 POP SWAP2 SWAP1 POP JUMP JUMPDEST PUSH2 0x741 DUP2 PUSH2 0x72E JUMP JUMPDEST DUP3 MSTORE POP POP JUMP JUMPDEST PUSH1 0x0 PUSH1 0x60 DUP3 ADD SWAP1 POP PUSH2 0x75C PUSH1 0x0 DUP4 ADD DUP7 PUSH2 0x738 JUMP JUMPDEST PUSH2 0x769 PUSH1 0x20 DUP4 ADD DUP6 PUSH2 0x738 JUMP JUMPDEST PUSH2 0x776 PUSH1 0x40 DUP4 ADD DUP5 PUSH2 0x738 JUMP JUMPDEST SWAP5 SWAP4 POP POP POP POP JUMP JUMPDEST PUSH1 0x0 PUSH1 0x20 DUP3 ADD SWAP1 POP PUSH2 0x793 PUSH1 0x0 DUP4 ADD DUP5 PUSH2 0x738 JUMP JUMPDEST SWAP3 SWAP2 POP POP JUMP JUMPDEST PUSH2 0x7A2 DUP2 PUSH2 0x72E JUMP JUMPDEST DUP2 EQ PUSH2 0x7AD JUMPI PUSH1 0x0 DUP1 REVERT JUMPDEST POP JUMP JUMPDEST PUSH1 0x0 DUP2 CALLDATALOAD SWAP1 POP PUSH2 0x7BF DUP2 PUSH2 0x799 JUMP JUMPDEST SWAP3 SWAP2 POP POP JUMP JUMPDEST PUSH1 0x0 DUP1 PUSH1 0x40 DUP4 DUP6 SUB SLT ISZERO PUSH2 0x7DC JUMPI PUSH2 0x7DB PUSH2 0x699 JUMP JUMPDEST JUMPDEST PUSH1 0x0 PUSH2 0x7EA DUP6 DUP3 DUP7 ADD PUSH2 0x7B0 JUMP JUMPDEST SWAP3 POP POP PUSH1 0x20 PUSH2 0x7FB DUP6 DUP3 DUP7 ADD PUSH2 0x7B0 JUMP JUMPDEST SWAP2 POP POP SWAP3 POP SWAP3 SWAP1 POP JUMP JUMPDEST PUSH1 0x0 DUP2 SWAP1 POP SWAP2 SWAP1 POP JUMP JUMPDEST PUSH1 0x0 PUSH2 0x82A PUSH2 0x825 PUSH2 0x820 DUP5 PUSH2 0x6A3 JUMP JUMPDEST PUSH2 0x805 JUMP JUMPDEST PUSH2 0x6A3 JUMP JUMPDEST SWAP1 POP SWAP2 SWAP1 POP JUMP JUMPDEST PUSH1 0x0 PUSH2 0x83C DUP3 PUSH2 0x80F JUMP JUMPDEST SWAP1 POP SWAP2 SWAP1 POP JUMP JUMPDEST PUSH1 0x0 PUSH2 0x84E DUP3 PUSH2 0x831 JUMP JUMPDEST SWAP1 POP SWAP2 SWAP1 POP JUMP JUMPDEST PUSH2 0x85E DUP2 PUSH2 0x843 JUMP JUMPDEST DUP3 MSTORE POP POP JUMP JUMPDEST PUSH1 0x0 PUSH1 0x20 DUP3 ADD SWAP1 POP PUSH2 0x879 PUSH1 0x0 DUP4 ADD DUP5 PUSH2 0x855 JUMP JUMPDEST SWAP3 SWAP2 POP POP JUMP JUMPDEST PUSH1 0x0 DUP1 REVERT JUMPDEST PUSH1 0x0 DUP1 REVERT JUMPDEST PUSH1 0x0 DUP1 REVERT JUMPDEST PUSH1 0x0 DUP1 DUP4 PUSH1 0x1F DUP5 ADD SLT PUSH2 0x8A4 JUMPI PUSH2 0x8A3 PUSH2 0x87F JUMP JUMPDEST JUMPDEST DUP3 CALLDATALOAD SWAP1 POP PUSH8 0xFFFFFFFFFFFFFFFF DUP2 GT ISZERO PUSH2 0x8C1 JUMPI PUSH2 0x8C0 PUSH2 0x884 JUMP JUMPDEST JUMPDEST PUSH1 0x20 DUP4 ADD SWAP2 POP DUP4 PUSH1 0x1 DUP3 MUL DUP4 ADD GT ISZERO PUSH2 0x8DD JUMPI PUSH2 0x8DC PUSH2 0x889 JUMP JUMPDEST JUMPDEST SWAP3 POP SWAP3 SWAP1 POP JUMP JUMPDEST PUSH1 0x0 DUP1 PUSH1 0x0 DUP1 PUSH1 0x0 DUP1 PUSH1 0xA0 DUP8 DUP10 SUB SLT ISZERO PUSH2 0x901 JUMPI PUSH2 0x900 PUSH2 0x699 JUMP JUMPDEST JUMPDEST PUSH1 0x0 PUSH2 0x90F DUP10 DUP3 DUP11 ADD PUSH2 0x6EC JUMP JUMPDEST SWAP7 POP POP PUSH1 0x20 PUSH2 0x920 DUP10 DUP3 DUP11 ADD PUSH2 0x6EC JUMP JUMPDEST SWAP6 POP POP PUSH1 0x40 PUSH2 0x931 DUP10 DUP3 DUP11 ADD PUSH2 0x7B0 JUMP JUMPDEST SWAP5 POP POP PUSH1 0x60 PUSH2 0x942 DUP10 DUP3 DUP11 ADD PUSH2 0x7B0 JUMP JUMPDEST SWAP4 POP POP PUSH1 0x80 DUP8 ADD CALLDATALOAD PUSH8 0xFFFFFFFFFFFFFFFF DUP2 GT ISZERO PUSH2 0x963 JUMPI PUSH2 0x962 PUSH2 0x69E JUMP JUMPDEST JUMPDEST PUSH2 0x96F DUP10 DUP3 DUP11 ADD PUSH2 0x88E JUMP JUMPDEST SWAP3 POP SWAP3 POP POP SWAP3 SWAP6 POP SWAP3 SWAP6 POP SWAP3 SWAP6 JUMP JUMPDEST PUSH1 0x0 PUSH32 0xFFFFFFFF00000000000000000000000000000000000000000000000000000000 DUP3 AND SWAP1 POP SWAP2 SWAP1 POP JUMP JUMPDEST PUSH2 0x9B3 DUP2 PUSH2 0x97E JUMP JUMPDEST DUP3 MSTORE POP POP JUMP JUMPDEST PUSH1 0x0 PUSH1 0x20 DUP3 ADD SWAP1 POP PUSH2 0x9CE PUSH1 0x0 DUP4 ADD DUP5 PUSH2 0x9AA JUMP JUMPDEST SWAP3 SWAP2 POP POP JUMP JUMPDEST PUSH2 0x9DD DUP2 PUSH2 0x6C3 JUMP JUMPDEST DUP3 MSTORE POP POP JUMP JUMPDEST PUSH1 0x0 DUP3 DUP3 MSTORE PUSH1 0x20 DUP3 ADD SWAP1 POP SWAP3 SWAP2 POP POP JUMP JUMPDEST PUSH32 0x3078303000000000000000000000000000000000000000000000000000000000 PUSH1 0x0 DUP3 ADD MSTORE POP JUMP JUMPDEST PUSH1 0x0 PUSH2 0xA2A PUSH1 0x4 DUP4 PUSH2 0x9E3 JUMP JUMPDEST SWAP2 POP PUSH2 0xA35 DUP3 PUSH2 0x9F4 JUMP JUMPDEST PUSH1 0x20 DUP3 ADD SWAP1 POP SWAP2 SWAP1 POP JUMP JUMPDEST PUSH1 0x0 PUSH1 0xA0 DUP3 ADD SWAP1 POP PUSH2 0xA55 PUSH1 0x0 DUP4 ADD DUP8 PUSH2 0x9D4 JUMP JUMPDEST PUSH2 0xA62 PUSH1 0x20 DUP4 ADD DUP7 PUSH2 0x9D4 JUMP JUMPDEST PUSH2 0xA6F PUSH1 0x40 DUP4 ADD DUP6 PUSH2 0x738 JUMP JUMPDEST PUSH2 0xA7C PUSH1 0x60 DUP4 ADD DUP5 PUSH2 0x738 JUMP JUMPDEST DUP2 DUP2 SUB PUSH1 0x80 DUP4 ADD MSTORE PUSH2 0xA8D DUP2 PUSH2 0xA1D JUMP JUMPDEST SWAP1 POP SWAP6 SWAP5 POP POP POP POP POP JUMP JUMPDEST PUSH32 0x4E487B7100000000000000000000000000000000000000000000000000000000 PUSH1 0x0 MSTORE PUSH1 0x11 PUSH1 0x4 MSTORE PUSH1 0x24 PUSH1 0x0 REVERT JUMPDEST PUSH1 0x0 PUSH2 0xAD2 DUP3 PUSH2 0x72E JUMP JUMPDEST SWAP2 POP PUSH2 0xADD DUP4 PUSH2 0x72E JUMP JUMPDEST SWAP3 POP DUP3 DUP3 SUB SWAP1 POP DUP2 DUP2 GT ISZERO PUSH2 0xAF5 JUMPI PUSH2 0xAF4 PUSH2 0xA98 JUMP JUMPDEST JUMPDEST SWAP3 SWAP2 POP POP JUMP JUMPDEST PUSH1 0x0 PUSH2 0xB06 DUP3 PUSH2 0x72E JUMP JUMPDEST SWAP2 POP PUSH2 0xB11 DUP4 PUSH2 0x72E JUMP JUMPDEST SWAP3 POP DUP3 DUP3 ADD SWAP1 POP DUP1 DUP3 GT ISZERO PUSH2 0xB29 JUMPI PUSH2 0xB28 PUSH2 0xA98 JUMP JUMPDEST JUMPDEST SWAP3 SWAP2 POP POP JUMP JUMPDEST PUSH1 0x0 DUP3 DUP3 MSTORE PUSH1 0x20 DUP3 ADD SWAP1 POP SWAP3 SWAP2 POP POP JUMP JUMPDEST PUSH32 0x43616C6C6572206973206E6F74206F776E657200000000000000000000000000 PUSH1 0x0 DUP3 ADD MSTORE POP JUMP JUMPDEST PUSH1 0x0 PUSH2 0xB76 PUSH1 0x13 DUP4 PUSH2 0xB2F JUMP JUMPDEST SWAP2 POP PUSH2 0xB81 DUP3 PUSH2 0xB40 JUMP JUMPDEST PUSH1 0x20 DUP3 ADD SWAP1 POP SWAP2 SWAP1 POP JUMP JUMPDEST PUSH1 0x0 PUSH1 0x20 DUP3 ADD SWAP1 POP DUP2 DUP2 SUB PUSH1 0x0 DUP4 ADD MSTORE PUSH2 0xBA5 DUP2 PUSH2 0xB69 JUMP JUMPDEST SWAP1 POP SWAP2 SWAP1 POP JUMP JUMPDEST PUSH1 0x0 PUSH2 0xBB7 DUP3 PUSH2 0x72E JUMP JUMPDEST SWAP2 POP PUSH32 0xFFFFFFFFFFFFFFFFFFFFFFFFFFFFFFFFFFFFFFFFFFFFFFFFFFFFFFFFFFFFFFFF DUP3 SUB PUSH2 0xBE9 JUMPI PUSH2 0xBE8 PUSH2 0xA98 JUMP JUMPDEST JUMPDEST PUSH1 0x1 DUP3 ADD SWAP1 POP SWAP2 SWAP1 POP JUMP INVALID LOG2 PUSH5 0x6970667358 0x22 SLT KECCAK256 0xED DUP1 0xC3 0xF7 CALLVALUE PUSH24 0x80BF4B877A750AAC0BF207D28137CCFCCAFE52AE1797C5E4 0xA7 PUSH27 0x64736F6C6343000811003300000000000000000000000000000000 "
				},
				"gasEstimates": {
					"creation": {
						"codeDepositCost": "622800",
						"executionCost": "49190",
						"totalCost": "671990"
					},
					"external": {
						"balancesOf(address)": "2908",
						"mint(address)": "27072",
						"onERC1155Received(address,address,uint256,uint256,bytes)": "infinite",
						"parentNFT()": "infinite",
						"stake(uint256,uint256)": "infinite",
						"stakes(address)": "infinite",
						"stakingTime(address)": "2859",
						"unstake()": "infinite"
					}
				},
				"methodIdentifiers": {
					"balancesOf(address)": "6392a51f",
					"mint(address)": "6a627842",
					"onERC1155Received(address,address,uint256,uint256,bytes)": "f23a6e61",
					"parentNFT()": "b8e33fb2",
					"stake(uint256,uint256)": "7b0472f0",
					"stakes(address)": "16934fc4",
					"stakingTime(address)": "583d42fd",
					"unstake()": "2def6620"
				}
			},
			"storageLayout": {
				"storage": [
					{
						"astId": 239,
						"contract": "contracts/NftStaker.sol:NftStaker",
						"label": "parentNFT",
						"offset": 0,
						"slot": "0",
						"type": "t_contract(IERC1155)121"
					},
					{
						"astId": 248,
						"contract": "contracts/NftStaker.sol:NftStaker",
						"label": "owner",
						"offset": 0,
						"slot": "1",
						"type": "t_address"
					},
					{
						"astId": 252,
						"contract": "contracts/NftStaker.sol:NftStaker",
						"label": "balances",
						"offset": 0,
						"slot": "2",
						"type": "t_mapping(t_address,t_uint256)"
					},
					{
						"astId": 309,
						"contract": "contracts/NftStaker.sol:NftStaker",
						"label": "stakes",
						"offset": 0,
						"slot": "3",
						"type": "t_mapping(t_address,t_struct(Stake)246_storage)"
					},
					{
						"astId": 313,
						"contract": "contracts/NftStaker.sol:NftStaker",
						"label": "stakingTime",
						"offset": 0,
						"slot": "4",
						"type": "t_mapping(t_address,t_uint256)"
					}
				],
				"types": {
					"t_address": {
						"encoding": "inplace",
						"label": "address",
						"numberOfBytes": "20"
					},
					"t_contract(IERC1155)121": {
						"encoding": "inplace",
						"label": "contract IERC1155",
						"numberOfBytes": "20"
					},
					"t_mapping(t_address,t_struct(Stake)246_storage)": {
						"encoding": "mapping",
						"key": "t_address",
						"label": "mapping(address => struct NftStaker.Stake)",
						"numberOfBytes": "32",
						"value": "t_struct(Stake)246_storage"
					},
					"t_mapping(t_address,t_uint256)": {
						"encoding": "mapping",
						"key": "t_address",
						"label": "mapping(address => uint256)",
						"numberOfBytes": "32",
						"value": "t_uint256"
					},
					"t_struct(Stake)246_storage": {
						"encoding": "inplace",
						"label": "struct NftStaker.Stake",
						"members": [
							{
								"astId": 241,
								"contract": "contracts/NftStaker.sol:NftStaker",
								"label": "tokenId",
								"offset": 0,
								"slot": "0",
								"type": "t_uint256"
							},
							{
								"astId": 243,
								"contract": "contracts/NftStaker.sol:NftStaker",
								"label": "amount",
								"offset": 0,
								"slot": "1",
								"type": "t_uint256"
							},
							{
								"astId": 245,
								"contract": "contracts/NftStaker.sol:NftStaker",
								"label": "timestamp",
								"offset": 0,
								"slot": "2",
								"type": "t_uint256"
							}
						],
						"numberOfBytes": "96"
					},
					"t_uint256": {
						"encoding": "inplace",
						"label": "uint256",
						"numberOfBytes": "32"
					}
				}
			},
			"userdoc": {
				"kind": "user",
				"methods": {},
				"version": 1
			}
		}
	}
}